1070220389000166019466846     CELESTE DISTRIBUIDORA DE ALIMENTOS SAO JOSE                      PE81362110582011110720111108331
11AV.CONGRESSO E.INTERNACIONAL      01179                      SAO JOSE       55819220HERIBERTO ANDRADE L COUTINHO008136211058
50000344190394340             20111108PE011  0374895102P000000000265000000000000000000000000000000000000000000000000000000000N
5400034419039434551  037489510204000100000000000001000000010000000000026500000000000000000000000000000000000000000000000000000
60M20111108BE0911101000112     01MP-4000 TH FI       00021800000003983868000000000000N00000003983868                                     
60A20111107BE0911101000112     1700000000000162                                                                               
7520111107201111080000000000000111111111PRODUTO 1                                            UN    000000000000000000000000000
9070220389000166019466846     5000000001                                                                                     5
9070220389000166019466846     5400000001                                                                                     5
9070220389000166019466846     6000000002                                                                                     5
9070220389000166019466846     7500000001                                                                                     5
9070220389000166019466846     9900000010                                                                                     5
EAD9D50A8938F81F115FAA0CF0D016D1E063083D9A734090D20419A93FF80FD759179A62C8D01307C94672503F8F61E7F60B811573C8594BFD63CEFF6A1AFA65FB270C16C8F8A97AABE088861CD909CF84359A6B19F1ABE22B2E11559304F87006F6E8CDA55588D3EBA7C502ED1BF3157EB5BC894C8C750E1ACCEF29DEF6B6A8451