P112808484000189042995663                   CELESTE ALIMENTOS                                 
P212808484000189001 CIMENTO NASSAU 25KG                                                      00001CIMENTO NASSAU 25KG                     T2500000000000000
P212808484000189001CIMENTO NASSAU 50KG                                                       00002CIMENTO NASSAU 50KG                     T0341000000000000
P212808484000189001VERGALHAO CA 50 5/16 GERDAU                                               00004VERGALHAO CA 50 5/16 GERDAU             T1700000000000000
P212808484000189001VERGALHAO CA 50 3/8  GERDAU                                               00005VERGALHAO CA 50 3/8  GERDAU             T1700000000000000
P212808484000189001PISO CER. 30X30 CAPRI CORAL R                                             00022PISO CER. 30X30 CAPRI CORAL R           T1700000000000000
P212808484000189001VERGALHAO CA 50 1/2  GERDAU                                               00006VERGALHAO CA 50 1/2  GERDAU             T1700000000000000
P212808484000189001VERGALHAO CA 60 4.2MM ROLO GERDAU                                         00008VERGALHAO CA 60 4.2MM ROLO GERDAU       T1700000000000000
P212808484000189001PISO CER. 30X30 NUANCE BRANCO C                                           00078PISO CER. 30X30 NUANCE BRANCO C         T1700000000000000
P212808484000189001VERGALHAO CA 60 5.0MM ROLO GERDAU                                         00009VERGALHAO CA 60 5.0MM ROLO GERDAU       T1700000000000000
P212808484000189001JNJNINJINIJNIJNIUJNINIJNIJ                                                00150JNJNINJINIJNIJNIUJNINIJNIJ              T1700000000000000
P212808484000189001ARAME RECOZIDO 18 GERDAU                                                  00011ARAME RECOZIDO 18 GERDAU                T1700000000000000
P212808484000189001PISO CER. 30X30 NUANCE ESMERALDA C                                        00033PISO CER. 30X30 NUANCE ESMERALDA C      T1700000000000000
P212808484000189001PREGO GERDAU 1.1/2X13                                                     00012PREGO GERDAU 1.1/2X13                   I0000000000000000
P212808484000189001PREGO GERDAU 2.1/2X10                                                     00013PREGO GERDAU 2.1/2X10                   T1700000000000000
P2128084840001890011                                                                         001511                                       T1700000214125400
P212808484000189001CAIXA FORTLEV FIBRA DE VIDRO 5000 L C/TP                                  00031CAIXA FORTLEV FIBRA DE VIDRO 5000 L C/TPT1700000000000000
P212808484000189001PREGO GERDAU 2X12                                                         00014PREGO GERDAU 2X12                       T1700000000000000
P212808484000189001PREGO GERDAU 3X8                                                          00015PREGO GERDAU 3X8                        T1700000000000000
P212808484000189001ESTRIBO VERGALHAO 4.2 (7X22)                                              00107ESTRIBO VERGALHAO 4.2 (7X22)            T1700000000000000
P212808484000189001                                                                          00016PREGO TELHEIRO 2.1/2X10                 T1700000000000000
P212808484000189001                                                                          00017GRAMPO GALVANIZADO 1X9 GERDAU           T1700000000000000
P212808484000189001PISO CER. 34X34 TATI AZUL A ESCURIAL                                      00041PISO CER. 34X34 TATI AZUL A ESCURIAL    T1700000000000000
P212808484000189001PISO CER. 20X20 ATLANTA A                                                 00026PISO CER. 20X20 ATLANTA A               T1700000000000000
P212808484000189001PISO CER. 20X20 MALTA A                                                   00032PISO CER. 20X20 MALTA A                 T1700000000000000
P212808484000189001PISO CER. 30X30 MALTA A                                                   00040PISO CER. 30X30 MALTA A                 T1700000000000000
P212808484000189001TP. CAIXA DAGUA CON 1000L BRASILIT                                        00044TP. CAIXA DAGUA CON 1000L BRASILIT      T1700000000000000
P212808484000189001CAIXA DAGUA CONICA BRASILIT  500 L                                        00045CAIXA DAGUA CONICA BRASILIT  500 L      T1700000000000000
P212808484000189001TP. CAIXA DAGUA CON 500L BRASILIT                                         00046TP. CAIXA DAGUA CON 500L BRASILIT       T1700000000000000
P212808484000189001CAIXA DAGUA CONICA BRASILIT  250 L                                        00047CAIXA DAGUA CONICA BRASILIT  250 L      T1700000000000000
P212808484000189001TP. CAIXA DAGUA CON 250L BRASILIT                                         00048TP. CAIXA DAGUA CON 250L BRASILIT       T1700000000000000
P212808484000189001PISO CER. 34X34 MORGANA BRANCO A ESCURIA                                  00042PISO CER. 34X34 MORGANA BRANCO A ESCURIAT1700000000000000
P212808484000189001CAIXA DAGUA CONICA BRASILIT 1000 L                                        00049CAIXA DAGUA CONICA BRASILIT 1000 L      T1700000000000000
P212808484000189001TP. CAIXA AQUALEV 1000L "CINZA"                                           00050TP. CAIXA AQUALEV 1000L "CINZA"         T1700000000000000
P212808484000189001CAIXA CON. AQUALEV 500L                                                   00051CAIXA CON. AQUALEV 500L                 T1700000000000000
P212808484000189001TP. CAIXA AQUALEV 500L                                                    00052TP. CAIXA AQUALEV 500L                  T1700000000000000
P212808484000189001CHAPA FIBROTEX 4MM 2.44X0.50M                                             00053CHAPA FIBROTEX 4MM 2.44X0.50M           T1700000000000000
P212808484000189001CHAPA RESIDENCIAL 5MM 1.22X1.10                                           00054CHAPA RESIDENCIAL 5MM 1.22X1.10         T1700000000000000
P212808484000189001CHAPA RESIDENCIAL 5MM 1.83X1.10                                           00055CHAPA RESIDENCIAL 5MM 1.83X1.10         T1700000000000000
P212808484000189001CHAPA RESIDENCIAL 5MM 2.13X1.10                                           00056CHAPA RESIDENCIAL 5MM 2.13X1.10         T1700000000000000
P212808484000189001CHAPA RESIDENCIAL 5MM 2.44X1.10                                           00057CHAPA RESIDENCIAL 5MM 2.44X1.10         T1700000000000000
P212808484000189001CHAPA ONDULADA 6MM 1.22X1.10                                              00058CHAPA ONDULADA 6MM 1.22X1.10            T0437000000000000
P212808484000189001CHAPA ONDULADA 6MM 1.53X1.10                                              00059CHAPA ONDULADA 6MM 1.53X1.10            T1700000000000000
P212808484000189001CHAPA ONDULADA 6MM 1.83X1.10                                              00060CHAPA ONDULADA 6MM 1.83X1.10            T1700000000000000
P212808484000189001CHAPA ONDULADA 6MM 2.13X1.10                                              00061CHAPA ONDULADA 6MM 2.13X1.10            T1700000000000000
P212808484000189001CHAPA ONDULADA 6MM 2.44X1.10                                              00062CHAPA ONDULADA 6MM 2.44X1.10            T1700000000000000
P212808484000189001CHAPA ONDULADA 6MM 3.05X1.10                                              00063CHAPA ONDULADA 6MM 3.05X1.10            T1700000000000000
P212808484000189001CHAPA ONDULADA 6MM 3.66X1.10                                              00064CHAPA ONDULADA 6MM 3.66X1.10            T1700000000000000
P212808484000189001AMOSTRA DIVERSAS ESCURIAL                                                 00097AMOSTRA DIVERSAS ESCURIAL               T1700000000000000
P212808484000189001TELHA KALHETA 8MM 3.60M                                                   00065TELHA KALHETA 8MM 3.60M                 T1700000000000000
P212808484000189001TELHA KALHETA 8MM 4.00M                                                   00066TELHA KALHETA 8MM 4.00M                 T1700000000000000
P212808484000189001TELHA KALHETA 8MM 4.50M                                                   00067TELHA KALHETA 8MM 4.50M                 T1700000000000000
P212808484000189001TELHA KALHETA 8MM 5.00M                                                   00068TELHA KALHETA 8MM 5.00M                 T1700000000000000
P212808484000189001TELHA KALHETA 8MM 5.50M                                                   00069TELHA KALHETA 8MM 5.50M                 T1700000000000000
P212808484000189001TELHA KALHETA 8MM 6.00M                                                   00070TELHA KALHETA 8MM 6.00M                 T1700000000000000
P212808484000189001TELHA KALHETA 8MM 6.50M                                                   00071TELHA KALHETA 8MM 6.50M                 T1700000000000000
P212808484000189001TELHA KALHETAO 8MM 3.70M                                                  00072TELHA KALHETAO 8MM 3.70M                T1700000000000000
P212808484000189001TELHA KALHETAO 8MM 4.60M                                                  00073TELHA KALHETAO 8MM 4.60M                T1700000000000000
P212808484000189001TELHA KALHETAO 8MM 6.00M                                                  00074TELHA KALHETAO 8MM 6.00M                T1700000000000000
P212808484000189001CUMEEIRA ARTICULADA TTX SUP                                               00075CUMEEIRA ARTICULADA TTX SUP             T1700000000000000
P212808484000189001CUMEEIRA ARTICULADA TTX INF                                               00076CUMEEIRA ARTICULADA TTX INF             T1700000000000000
P212808484000189001ESTRIBO VERGALHAO 4.2 (7X17)                                              00077ESTRIBO VERGALHAO 4.2 (7X17)            T1700000000000000
P212808484000189001ARGAMASSA QUARTZOLIT 20KG ACI                                             00080ARGAMASSA QUARTZOLIT 20KG ACI           T1700000000000000
P212808484000189001PISO CER. 20X20 IRIS BRANCO A                                             00106PISO CER. 20X20 IRIS BRANCO A           T1700000000000000
P212808484000189001ESTRIBO VERGALHAO 4.2 (7X27)                                              00081ESTRIBO VERGALHAO 4.2 (7X27)            T1700000000000000
P212808484000189001TELHA MAXIPLAC 8MM 3.00X1.06                                              00085TELHA MAXIPLAC 8MM 3.00X1.06            T1700000000000000
P212808484000189001TELHA MAXIPLAC 8MM 4.10X1.06                                              00086TELHA MAXIPLAC 8MM 4.10X1.06            T1700000000000000
P212808484000189001PREGO GERDAU 1X15                                                         00087PREGO GERDAU 1X15                       T1700000000000000
P212808484000189001PREGO GERDAU 1.1/2X14                                                     00088PREGO GERDAU 1.1/2X14                   T1700000000000000
P212808484000189001PREGO GERDAU 2X14                                                         00089PREGO GERDAU 2X14                       T1700000000000000
P212808484000189001PREGO GERDAU 2.1/2X12                                                     00090PREGO GERDAU 2.1/2X12                   T1700000000000000
P212808484000189001PREGO GERDAU 2X10                                                         00091PREGO GERDAU 2X10                       T1700000000000000
P212808484000189001PREGO GERDAU 1.1/2X15                                                     00092PREGO GERDAU 1.1/2X15                   T1700000000000000
P212808484000189001PISO CER. 30X30 ARIANA A                                                  00093PISO CER. 30X30 ARIANA A                T1700000000000000
P212808484000189001CUMEEIRA NORMAL TOD 10 G 1,10M                                            00094CUMEEIRA NORMAL TOD 10 G 1,10M          T1700000000000000
P212808484000189001PREGO GERDAU 1X16                                                         00095PREGO GERDAU 1X16                       T1700000000000000
P212808484000189001PISO CER. 30X30 COPACABANA A                                              00096PISO CER. 30X30 COPACABANA A            T1700000000000000
P212808484000189001PISO CER. 30X30 SEVILHA GRIS A                                            00098PISO CER. 30X30 SEVILHA GRIS A          T1700000000000000
P212808484000189001PISO CER. 30X30 MALLORCA CORAL A                                          00099PISO CER. 30X30 MALLORCA CORAL A        T1700000000000000
P212808484000189001PISO CER. 20X20 ALABASTRO A                                               00101PISO CER. 20X20 ALABASTRO A             T1700000000000000
P212808484000189001CUMEEIRA UNIVERSAL TOD / TRE 1.10 M                                       00102CUMEEIRA UNIVERSAL TOD / TRE 1.10 M     T1700000000000000
P212808484000189001PREGO GERDAU 1.1/4X14                                                     00103PREGO GERDAU 1.1/4X14                   T1700000000000000
P212808484000189001PISO CER. 20X20 ANDES CINZA A                                             00104PISO CER. 20X20 ANDES CINZA A           T1700000000000000
P212808484000189001PISO CER. 30X30 ALBANY BRANCO A                                           00105PISO CER. 30X30 ALBANY BRANCO A         T1700000000000000
P212808484000189001PISO CER. 30X30 MALLORCA GRIS A                                           00108PISO CER. 30X30 MALLORCA GRIS A         T1700000000000000
P212808484000189001PISO CER. 30X30 ALBANY BEGE A                                             00111PISO CER. 30X30 ALBANY BEGE A           T1700000000000000
P212808484000189001HIDRACOR BRANCO FRD 10/2                                                  00112HIDRACOR BRANCO FRD 10/2                T1700000000000000
P212808484000189001HIDRACOR BRANCO GELO FRD 10/2                                             00113HIDRACOR BRANCO GELO FRD 10/2           T1700000000000000
P212808484000189001HIDRACOR CREME FRD 10/2                                                   00114HIDRACOR CREME FRD 10/2                 T1700000000000000
P212808484000189001HIDRACOR AZUL PAVAO FRD 10/2                                              00115HIDRACOR AZUL PAVAO FRD 10/2            T1700000000000000
P212808484000189001HIDRACOR VERDE AMAZONAS FRD 10/2                                          00116HIDRACOR VERDE AMAZONAS FRD 10/2        T1700000000000000
P212808484000189001HIDRACOR PESSEGO FRD 10/2                                                 00117HIDRACOR PESSEGO FRD 10/2               T1700000000000000
P212808484000189001PISO CER. 10X10 IRIS BRANCO A                                             00118PISO CER. 10X10 IRIS BRANCO A           T1700000000000000
P212808484000189001PISO CER. 10X10 IRIS CINZA A                                              00119PISO CER. 10X10 IRIS CINZA A            T1700000000000000
P212808484000189001PISO CER. 10X10 IRIS AZUL A                                               00120PISO CER. 10X10 IRIS AZUL A             T1700000000000000
P212808484000189001PISO CER. 10X10 IRIS MARFIM A                                             00121PISO CER. 10X10 IRIS MARFIM A           T1700000000000000
P212808484000189001PISO CER. 30X30 ALBANY CINZA A                                            00122PISO CER. 30X30 ALBANY CINZA A          T1700000000000000
P212808484000189001 PISO CER. 30X30 ASPEN SKY A                                              00124PISO CER. 30X30 ASPEN SKY A 123456789012T1700000000000000
P212808484000189001HIDRACOR AMARELO FRD 10/2 12345678901234                                  00125HIDRACOR AMARELO FRD 10/2 12345678901234I0000000000000000
P212808484000189001SADFASFDGSDFG                                                             00128SADFASFDGSDFG                           T1700000000000000
P212808484000189001HIDRACOR AZUL CELESTE FRD 10/2                                            00127HIDRACOR AZUL CELESTE FRD 10/2          T0700000000000000
P212808484000189001HIDRACOR ROSA FRD 10/2                                                    00129HIDRACOR ROSA FRD 10/2                  T1700000000000000
P212808484000189001ASDFASDF                                                                  00164ASDFASDF                                T1700000000000000
P212808484000189001HIDRACOR AREIA FRD 10/2                                                   00130HIDRACOR AREIA FRD 10/2                 T1700000000000000
P212808484000189001ESTRIBO VERGALHAO 4.2 (17X17)                                             00131ESTRIBO VERGALHAO 4.2 (17X17)           T1700000000000000
P212808484000189001AWDFADS                                                                   00159AWDFADS                                 T1700000000000000
P212808484000189001TRELICA GERDAU TG8L 8M                                                    00132TRELICA GERDAU TG8L 8M                  T1700000000000000
P212808484000189001TRELICA GERDAU TG8L 6M                                                    00133TRELICA GERDAU TG8L 6M                  T1700000000000000
P212808484000189001PISO CER. 10X10 IRIS VERDE A                                              00135PISO CER. 10X10 IRIS VERDE A            T1700000000000000
P212808484000189001PISO CER. 10X10 IRIS AMARELO A                                            00137PISO CER. 10X10 IRIS AMARELO A          T1700000000000000
P212808484000189001PISO CER. 10X10 IRIS BEGE A                                               00138PISO CER. 10X10 IRIS BEGE A             T1700000000000000
P212808484000189001ARAME FARPADO GIR 1.60MM 250M                                             00140ARAME FARPADO GIR 1.60MM 250M           T1700000000000000
P212808484000189001ARAME FARPADO GIR 1.60MM 500M                                             00141ARAME FARPADO GIR 1.60MM 500M           T1700000000000000
P212808484000189001TESTE DE PRODUTOS INSENTOS                                                00126TESTE DE PRODUTOS INSENTOS              I0000000000000000
P212808484000189001ARAME GALVANIZADO BWG 12 (1 KG)                                           00142ARAME GALVANIZADO BWG 12 (1 KG)         T1700000000000000
P212808484000189001TESTE 2                                                                   00160TESTE 2                                 T1700000000000000
P212808484000189001ARAME GALVANIZADO BWG 14 (1 KG)                                           00143ARAME GALVANIZADO BWG 14 (1 KG)         I0000000000000000
P212808484000189001SDFGSDFGSDF                                                               00134SDFGSDFGSDF                             T1700000000000000
P212808484000189001TESTE 56                                                                  00161TESTE 56                                T1700000000000000
P212808484000189001ARAME GALVANIZADO BWG 16 (1 KG)                                           00144ARAME GALVANIZADO BWG 16 (1 KG)         T1700000000000000
P212808484000189001ARAME GALVANIZADO BWG 18 (1 KG)                                           00145ARAME GALVANIZADO BWG 18 (1 KG)         T1700000000000000
P212808484000189001PISO CER. 30X30 TECHNO MARROM A                                           00149PISO CER. 30X30 TECHNO MARROM A         T1700000000000000
P212808484000189001HIDRACOR VERDE CANA FRD 10/2                                              00152HIDRACOR VERDE CANA FRD 10/2            T1700000000000000
P212808484000189001TESTE 2                                                                   00162TESTE 2                                 T1700000000000000
P212808484000189001CARRINHO METALOSA POP PC (3,25X8)                                         00153CARRINHO METALOSA POP PC (3,25X8)       T1700000000000000
P212808484000189001CARRO DE MAO CONSTR. P MACICO                                             00154CARRO DE MAO CONSTR. P MACICO           T1700000000000000
P212808484000189001TESTE 4                                                                   00163TESTE 4                                 T1700000000000000
P212808484000189001ESFKJNVWGELKJFJGVLKHEWKJLHGJEWH                                           00136ESFKJNVWGELKJFJGVLKHEWKJLHGJEWH         T1700000000000000
P212808484000189001CARRINHO METALOSA POP PC (2,50X8)                                         00155CARRINHO METALOSA POP PC (2,50X8)       T1700000000000000
P212808484000189001TELHA MAXIPLAC 8MM 4.60X1.06                                              00156TELHA MAXIPLAC 8MM 4.60X1.06            T1700000000000000
P212808484000189001TELHA MAXIPLAC 8MM 3.30X1.06                                              00157TELHA MAXIPLAC 8MM 3.30X1.06            T1700000000000000
P212808484000189001PISO CER. 30X30 TECHNO CINZA A                                            00158PISO CER. 30X30 TECHNO CINZA A          T1700000000000000
P212808484000189001SZADFCVGASGDFASF                                                          00165SZADFCVGASGDFASF                        T1700000000000000
P212808484000189001RODA C/ PNEU CAMARA 3,25X8                                                00166RODA C/ PNEU CAMARA 3,25X8              T1700000000000000
P212808484000189001CUMEEIRA NORMAL TOD 15 G 1,10M                                            00167CUMEEIRA NORMAL TOD 15 G 1,10M          T1700000000000000
P212808484000189001REJUNTE PISO COLA BRANCO FRD 40X1                                         00179REJUNTE PISO COLA BRANCO FRD 40X1       T1700000000000000
P212808484000189001REJUNTE PISO COLA CINZA FRD 40X1                                          00180REJUNTE PISO COLA CINZA FRD 40X1        T1700000000000000
P212808484000189001REJUNTE PISO COLA GRAFITE FRD 40X1                                        00181REJUNTE PISO COLA GRAFITE FRD 40X1      T1700000000000000
P212808484000189001REJUNTE PISO COLA MARROM FRD 40X1                                         00182REJUNTE PISO COLA MARROM FRD 40X1       T1700000000000000
P212808484000189001REJUNTE PISO COLA PRETO FRD 40X1                                          00183REJUNTE PISO COLA PRETO FRD 40X1        T1700000000000000
P212808484000189001SDFCGVASFGDFASFGAS                                                        00169SDFCGVASFGDFASFGAS                      T1700000000000000
P212808484000189001VERGALHAO CA 50 1/4  GERDAU                                               00003VERGALHAO CA 50 1/4  GERDAU             T0341000000000000
P212808484000189001PISO CER. 33X33 APOLO EXT                                                 00193PISO CER. 33X33 APOLO EXT               T1700000000000000
P212808484000189001SZDFASFDGDFSDFG                                                           00168SZDFASFDGDFSDFG                         T1700000000000000
P212808484000189001PISO CER. 33X33 BOTTICINO STD                                             00197PISO CER. 33X33 BOTTICINO STD           T1700000000000000
P212808484000189001PISO CER. 33X33 CIANITA BRANCO STD                                        00199PISO CER. 33X33 CIANITA BRANCO STD      T1700000000000000
P212808484000189001PISO CER. 33X33 MATE BRANCO STD                                           00203PISO CER. 33X33 MATE BRANCO STD         T1700000000000000
P212808484000189001CUMEEIRA NORMAL TOD 20 G 1,10M                                            00209CUMEEIRA NORMAL TOD 20 G 1,10M          T1700000000000000
P212808484000189001TUBO PVC AMANCO SOLDAVEL  20 X 6M ( 1/2)                                  00264TUBO PVC AMANCO SOLDAVEL  20 X 6M ( 1/2)T1700000000000000
P212808484000189001TUBO PVC AMANCO SOLDAVEL  25 X 6M ( 3/4)                                  00265TUBO PVC AMANCO SOLDAVEL  25 X 6M ( 3/4)T1700000000000000
P212808484000189001TUBO PVC AMANCO SOLDAVEL  32 X 6M                                         00266TUBO PVC AMANCO SOLDAVEL  32 X 6M       T1700000000000000
P212808484000189001TUBO PVC AMANCO SOLDAVEL  50 X 6M                                         00267TUBO PVC AMANCO SOLDAVEL  50 X 6M       T1700000000000000
P212808484000189001TUBO PVC AMANCO ESGOTO SN DN  40 X 6M                                     00268TUBO PVC AMANCO ESGOTO SN DN  40 X 6M   T1700000000000000
P212808484000189001TUBO PVC AMANCO ESGOTO SN DN  50 X 6M                                     00269TUBO PVC AMANCO ESGOTO SN DN  50 X 6M   T1700000000000000
P212808484000189001TUBO PVC AMANCO ESGOTO SN DN  75 X 6M                                     00270TUBO PVC AMANCO ESGOTO SN DN  75 X 6M   T1700000000000000
P212808484000189001TUBO PVC AMANCO ESGOTO SN DN 150 X 6M                                     00271TUBO PVC AMANCO ESGOTO SN DN 150 X 6M   T1700000000000000
P212808484000189001TUBO PVC AMANCO ESGOTO SN DN 100 X 6M                                     00272TUBO PVC AMANCO ESGOTO SN DN 100 X 6M   T1700000000000000
P212808484000189001PISO CER. 34X34 TATI VERDE A ESCURIAL                                     00084PISO CER. 34X34 TATI VERDE A ESCURIAL   T1700000000000000
P212808484000189001VERGALHAO CA 50 5/8  GERDAU                                               00273VERGALHAO CA 50 5/8  GERDAU             T1700000000000000
P212808484000189001PISO CER. 30X30 TECHNO BEGE A                                             00274PISO CER. 30X30 TECHNO BEGE A           T1700000000000000
P212808484000189001JOELHO 90 SOLDAVEL 50MM                                                   00276JOELHO 90 SOLDAVEL 50MM                 T1700000000000000
P212808484000189001LUVA SOLDAVEL 25 MM                                                       00277LUVA SOLDAVEL 25 MM                     T1700000000000000
P212808484000189001LUVA SOLDAVEL 50 MM                                                       00278LUVA SOLDAVEL 50 MM                     T1700000000000000
P212808484000189001LUVA SIMPLES ESGOTO SN DN  40                                             00279LUVA SIMPLES ESGOTO SN DN  40           T1700000000000000
P212808484000189001LUVA SIMPLES ESGOTO SN DN  50                                             00280LUVA SIMPLES ESGOTO SN DN  50           T1700000000000000
P212808484000189001JOELHO 90 ESGOTO SN DN  40                                                00281JOELHO 90 ESGOTO SN DN  40              T1700000000000000
P212808484000189001JOELHO 90 SOLDAVEL 20MM                                                   00282JOELHO 90 SOLDAVEL 20MM                 T1700000000000000
P212808484000189001JOELHO 90 SOLDAVEL 25MM                                                   00283JOELHO 90 SOLDAVEL 25MM                 T1700000000000000
P212808484000189001LUVA SOLDAVEL 20 MM                                                       00284LUVA SOLDAVEL 20 MM                     T1700000000000000
P212808484000189001TE SOLDAVEL 20MM                                                          00285TE SOLDAVEL 20MM                        T1700000000000000
P212808484000189001TE SOLDAVEL 25MM                                                          00286TE SOLDAVEL 25MM                        T1700000000000000
P212808484000189001TE SOLDAVEL 50MM                                                          00287TE SOLDAVEL 50MM                        T1700000000000000
P212808484000189001TE ESGOTO SN DN  40                                                       00288TE ESGOTO SN DN  40                     T1700000000000000
P212808484000189001JOELHO 90 ESGOTO SN DN  50                                                00289JOELHO 90 ESGOTO SN DN  50              T1700000000000000
P212808484000189001JOELHO 90 ESGOTO SN DN 100                                                00290JOELHO 90 ESGOTO SN DN 100              T1700000000000000
P212808484000189001LUVA SIMPLES ESGOTO SN DN 100                                             00291LUVA SIMPLES ESGOTO SN DN 100           T1700000000000000
P212808484000189001TE ESGOTO SN DN  50                                                       00292TE ESGOTO SN DN  50                     T1700000000000000
P212808484000189001TE ESGOTO SN DN 100                                                       00293TE ESGOTO SN DN 100                     T1700000000000000
P212808484000189001CAIXA AGUA POLYFIT 500L                                                   00295CAIXA AGUA POLYFIT 500L                 T1700000000000000
P212808484000189001TP. CAIXA POLYFIT 310L                                                    00298TP. CAIXA POLYFIT 310L                  T1700000000000000
P212808484000189001CAIXA AGUA POLYFIT 1000L                                                  00299CAIXA AGUA POLYFIT 1000L                T1700000000000000
P212808484000189001TP. CAIXA POLYFIT 1000L                                                   00300TP. CAIXA POLYFIT 1000L                 T1700000000000000
P212808484000189001CORANTE LIQUIDO VERMELHO                                                  00328CORANTE LIQUIDO VERMELHO                T1700000000000000
P212808484000189001CORANTE LIQUIDO AMARELO                                                   00329CORANTE LIQUIDO AMARELO                 T1700000000000000
P212808484000189001CORANTE LIQUIDO AZUL                                                      00330CORANTE LIQUIDO AZUL                    T1700000000000000
P212808484000189001CORANTE LIQUIDO VERDE                                                     00331CORANTE LIQUIDO VERDE                   T1700000000000000
P212808484000189001CORANTE LIQUIDO OCRE                                                      00332CORANTE LIQUIDO OCRE                    T1700000000000000
P212808484000189001CORANTE LIQUIDO PRETO                                                     00333CORANTE LIQUIDO PRETO                   T1700000000000000
P212808484000189001CORANTE LIQUIDO MARRON                                                    00334CORANTE LIQUIDO MARRON                  T1700000000000000
P212808484000189001SUPERCAL 10 KG                                                            00335SUPERCAL 10 KG                          T1700000000000000
P212808484000189001SELOS FISCAIS NUMERADOS                                                   00028SELOS FISCAIS NUMERADOS                 T1700000000000000
P212808484000189001PISO CER. 10X10 ANDES CINZA A                                             00336PISO CER. 10X10 ANDES CINZA A           T1700000000000000
P212808484000189001ARGAMASSA QUARTZOLIT 20KG ACIII                                           00339ARGAMASSA QUARTZOLIT 20KG ACIII         T1700000000000000
P212808484000189001PISO CER. 20X20 IRIS BRANCO A                                             00351PISO CER. 20X20 IRIS BRANCO A           T1700000000000000
P212808484000189001PISO CER. 30X30 DALLAS CINZA A                                            00352PISO CER. 30X30 DALLAS CINZA A          T1700000000000000
P212808484000189001PISO CER. 30X30 DALLAS SALMAO A                                           00353PISO CER. 30X30 DALLAS SALMAO A         T1700000000000000
P212808484000189001TELHA KALHETA 8MM 3.00M                                                   00354TELHA KALHETA 8MM 3.00M                 T1700000000000000
P212808484000189001ESTRIBO VERGALHAO 4.2 (17X27)                                             00355ESTRIBO VERGALHAO 4.2 (17X27)           T1700000000000000
P212808484000189001HIDRAFORT BRANCO                                                          00356HIDRAFORT BRANCO                        T1700000000000000
P212808484000189001HIDRAFORT BRANCO GELO                                                     00357HIDRAFORT BRANCO GELO                   T1700000000000000
P212808484000189001HIDRAFORT AMARELO                                                         00358HIDRAFORT AMARELO                       T1700000000000000
P212808484000189001HIDRAFORT CREME                                                           00359HIDRAFORT CREME                         T1700000000000000
P212808484000189001HIDRAFORT AZUL PAVAO                                                      00360HIDRAFORT AZUL PAVAO                    T1700000000000000
P212808484000189001HIDRAFORT VERDE AMAZONAS                                                  00361HIDRAFORT VERDE AMAZONAS                T1700000000000000
P212808484000189001HIDRAFORT ROSA                                                            00362HIDRAFORT ROSA                          T1700000000000000
P212808484000189001ARGAMASSA DO MESTRE 20 KG                                                 00363ARGAMASSA DO MESTRE 20 KG               T1700000000000000
P212808484000189001CHAPA RESIDENCIAL 5MM 1.53X1.10                                           00364CHAPA RESIDENCIAL 5MM 1.53X1.10         T1700000000000000
P212808484000189001VERGALHAO CA 50 3/4  GERDAU                                               00365VERGALHAO CA 50 3/4  GERDAU             T1700000000000000
P212808484000189001PISO CER. 20X20 ALBANY BRANCO A                                           00373PISO CER. 20X20 ALBANY BRANCO A         T1700000000000000
P212808484000189001PISO CER. 10X10 IRIS GRAFITE A                                            00375PISO CER. 10X10 IRIS GRAFITE A          T1700000000000000
P212808484000189001CAIXA FORTLEV POLIETILENO  150 L C/TP                                     00109CAIXA FORTLEV POLIETILENO  150 L C/TP   T1700000000000000
P212808484000189001HIDRAFORT PESSEGO                                                         00377HIDRAFORT PESSEGO                       T1700000000000000
P212808484000189001TP. CAIXA AQUALEV 1000L                                                   00034TP. CAIXA AQUALEV 1000L                 T1700000000000000
P212808484000189001HIDRACOR FLAMINGO FRD 10/2                                                00382HIDRACOR FLAMINGO FRD 10/2              T1700000000000000
P212808484000189001HIDRACOR CROMO SUAVE FRD 10/2                                             00383HIDRACOR CROMO SUAVE FRD 10/2           T1700000000000000
P212808484000189001HIDRACOR TERRACOTA FRD 10/2                                               00384HIDRACOR TERRACOTA FRD 10/2             T1700000000000000
P212808484000189001PISO CER. 30X30 MONACO A                                                  00386PISO CER. 30X30 MONACO A                T1700000000000000
P212808484000189001MALHA POP LEVE  PAINEL 2,00X3,00 M                                        00387MALHA POP LEVE  PAINEL 2,00X3,00 M      T1700000000000000
P212808484000189001CACAMBA CONSTRUTOR PRETO                                                  00390CACAMBA CONSTRUTOR PRETO                T1700000000000000
P212808484000189001PISO CER. 33X33 ARENITO BRANCO STD                                        00391PISO CER. 33X33 ARENITO BRANCO STD      T1700000000000000
P212808484000189001CAIXA DESCARGA PLUS CINZA CLARO                                           00393CAIXA DESCARGA PLUS CINZA CLARO         T1700000000000000
P212808484000189001ASSENTO SANIT.FOFINHO PLUS CINZA CLARO                                    00394ASSENTO SANIT.FOFINHO PLUS CINZA CLARO  T1700000000000000
P212808484000189001CAIXA DESCARGA PLUS BRANCO                                                00395CAIXA DESCARGA PLUS BRANCO              T1700000000000000
P212808484000189001CAIXA DESCARGA PLUS AMARELO TERRA                                         00396CAIXA DESCARGA PLUS AMARELO TERRA       T1700000000000000
P212808484000189001ASSENTO SANIT.FOFINHO PLUS BRANCO                                         00397ASSENTO SANIT.FOFINHO PLUS BRANCO       T1700000000000000
P212808484000189001ASSENTO SANIT.FOFINHO PLUS AMARELO TERRA                                  00398ASSENTO SANIT.FOFINHO PLUS AMARELO TERRAT1700000000000000
P212808484000189001PISO CER. 20X20 TURIN CINZA A                                             00399PISO CER. 20X20 TURIN CINZA A           T1700000000000000
P212808484000189001PISO CER. 20X20 CANNES CINZA A                                            00400PISO CER. 20X20 CANNES CINZA A          T1700000000000000
P212808484000189001PISO CER. 30X30 DETROIT A                                                 00401PISO CER. 30X30 DETROIT A               T1700000000000000
P212808484000189001JOELHO 90 SOLD/ROSC 25MM X 1/2                                            00402JOELHO 90 SOLD/ROSC 25MM X 1/2          T1700000000000000
P212808484000189001JOELHO 90 SOLDAVEL BUCHA LT 20MM X 1/2                                    00403JOELHO 90 SOLDAVEL BUCHA LT 20MM X 1/2  T1700000000000000
P212808484000189001JOELHO 90 SOLDAVEL BUCHA LT 25MM X 3/4                                    00404JOELHO 90 SOLDAVEL BUCHA LT 25MM X 3/4  T1700000000000000
P212808484000189001JOELHO 90 SOLDAVEL BUCHA LT 25MM X 1/2                                    00405JOELHO 90 SOLDAVEL BUCHA LT 25MM X 1/2  T1700000000000000
P212808484000189001JOELHO 90 ESGOTO SN DN  75                                                00406JOELHO 90 ESGOTO SN DN  75              T1700000000000000
P212808484000189001JOELHO 45 SOLDAVEL 20 MM                                                  00407JOELHO 45 SOLDAVEL 20 MM                T1700000000000000
P212808484000189001JOELHO 45 SOLDAVEL 25 MM                                                  00408JOELHO 45 SOLDAVEL 25 MM                T1700000000000000
P212808484000189001JOELHO 90 SOLDAVEL 32MM                                                   00409JOELHO 90 SOLDAVEL 32MM                 T1700000000000000
P212808484000189001JOELHO 90 SOLDAVEL 40MM                                                   00410JOELHO 90 SOLDAVEL 40MM                 T1700000000000000
P212808484000189001JOELHO 90 REDUZIDO SOLDAVEL 25 X 20MM                                     00411JOELHO 90 REDUZIDO SOLDAVEL 25 X 20MM   T1700000000000000
P212808484000189001JOELHO 90 SOLD/ROSC 20MM X 1/2                                            00412JOELHO 90 SOLD/ROSC 20MM X 1/2          T1700000000000000
P212808484000189001JOELHO 90 SOLD/ROSC 25MM X 3/4                                            00413JOELHO 90 SOLD/ROSC 25MM X 3/4          T1700000000000000
P212808484000189001JOELHO 90 ESGOTO SN C/ VISITA DN 100X50                                   00414JOELHO 90 ESGOTO SN C/ VISITA DN 100X50 T1700000000000000
P212808484000189001LUVA REDUZIDA SOLDAVEL 25 X 20MM                                          00415LUVA REDUZIDA SOLDAVEL 25 X 20MM        T1700000000000000
P212808484000189001LUVA SOLD/ROSC 20MM X 1/2                                                 00416LUVA SOLD/ROSC 20MM X 1/2               T1700000000000000
P212808484000189001LUVA SOLDAVEL 32 MM                                                       00417LUVA SOLDAVEL 32 MM                     T1700000000000000
P212808484000189001LUVA SOLDAVEL 40 MM                                                       00418LUVA SOLDAVEL 40 MM                     T1700000000000000
P212808484000189001LUVA REDUZIDA SOLDAVEL 32 X 25 MM                                         00419LUVA REDUZIDA SOLDAVEL 32 X 25 MM       T1700000000000000
P212808484000189001LUVA SOLD/ROSC 25MM X 3/4                                                 00420LUVA SOLD/ROSC 25MM X 3/4               T1700000000000000
P212808484000189001LUVA SOLD/ROSC 25MM X 1/2                                                 00421LUVA SOLD/ROSC 25MM X 1/2               T1700000000000000
P212808484000189001LUVA SOLDAVEL BUCHA LT 20MM X 1/2                                         00422LUVA SOLDAVEL BUCHA LT 20MM X 1/2       T1700000000000000
P212808484000189001LUVA SOLDAVEL BUCHA LT 25MM X 3/4                                         00423LUVA SOLDAVEL BUCHA LT 25MM X 3/4       T1700000000000000
P212808484000189001LUVA SOLDAVEL BUCHA LT 25MM X 1/2                                         00424LUVA SOLDAVEL BUCHA LT 25MM X 1/2       T1700000000000000
P212808484000189001TE REDUZIDO ESGOTO SN DN  75X50                                           00425TE REDUZIDO ESGOTO SN DN  75X50         T1700000000000000
P212808484000189001TE SOLD/ROSC 20MMX1/2                                                     00426TE SOLD/ROSC 20MMX1/2                   T1700000000000000
P212808484000189001TE SOLD/ROSC 25MMX3/4                                                     00427TE SOLD/ROSC 25MMX3/4                   T1700000000000000
P212808484000189001TE SOLD/ROSC 25MMX1/2                                                     00428TE SOLD/ROSC 25MMX1/2                   T1700000000000000
P212808484000189001TE SOLDAVEL 32MM                                                          00429TE SOLDAVEL 32MM                        T1700000000000000
P212808484000189001TE SOLDAVEL 40MM                                                          00430TE SOLDAVEL 40MM                        T1700000000000000
P212808484000189001TE REDUZIDO SOLDAVEL 25X20 MM                                             00431TE REDUZIDO SOLDAVEL 25X20 MM           T1700000000000000
P212808484000189001TE REDUZIDO SOLDAVEL 40X25 MM                                             00433TE REDUZIDO SOLDAVEL 40X25 MM           T1700000000000000
P212808484000189001BUCHA REDUZIDA ESGOTO SN DN 50 X 40                                       00435BUCHA REDUZIDA ESGOTO SN DN 50 X 40     T1700000000000000
P212808484000189001BUCHA REDUZIDA ROSCA 3/4X1/2                                              00436BUCHA REDUZIDA ROSCA 3/4X1/2            T1700000000000000
P212808484000189001BUCHA REDUZIDA SOLDAVEL CURTA 25X20MM                                     00437BUCHA REDUZIDA SOLDAVEL CURTA 25X20MM   T1700000000000000
P212808484000189001BUCHA REDUZIDA SOLDAVEL CURTA 32X25MM                                     00438BUCHA REDUZIDA SOLDAVEL CURTA 32X25MM   T1700000000000000
P212808484000189001BUCHA REDUZIDA SOLDAVEL LONGA 32X20MM                                     00439BUCHA REDUZIDA SOLDAVEL LONGA 32X20MM   T1700000000000000
P212808484000189001BUCHA REDUZIDA SOLDAVEL LONGA 40X20MM                                     00440BUCHA REDUZIDA SOLDAVEL LONGA 40X20MM   T1700000000000000
P212808484000189001BUCHA REDUZIDA SOLDAVEL LONGA 40X25MM                                     00441BUCHA REDUZIDA SOLDAVEL LONGA 40X25MM   T1700000000000000
P212808484000189001BUCHA REDUZIDA SOLDAVEL LONGA 50X20MM                                     00442BUCHA REDUZIDA SOLDAVEL LONGA 50X20MM   T1700000000000000
P212808484000189001BUCHA REDUZIDA SOLDAVEL LONGA 50X25MM                                     00443BUCHA REDUZIDA SOLDAVEL LONGA 50X25MM   T1700000000000000
P212808484000189001ADAPTADOR SOLD CURTO 20MM X 1/2                                           00444ADAPTADOR SOLD CURTO 20MM X 1/2         T1700000000000000
P212808484000189001ADAPTADOR SOLD CURTO 25MM X 3/4                                           00445ADAPTADOR SOLD CURTO 25MM X 3/4         T1700000000000000
P212808484000189001ADAPTADOR SOLD CURTO 32MM X 1                                             00446ADAPTADOR SOLD CURTO 32MM X 1           T1700000000000000
P212808484000189001NIPEL ROSCA 1/2                                                           00447NIPEL ROSCA 1/2                         T1700000000000000
P212808484000189001LTRAO MARIA EDUARDA BRASILEIRO BELTRAO ZE HELIO BE                        00448ADAPTADOR AA SOLD CX DAGUA 25MM X 3/4   T1700000000000000
P212808484000189001ADAPTADOR AA SOLD CX DAGUA 50MM X 1.1/2                                   00449ADAPTADOR AA SOLD CX DAGUA 50MM X 1.1/2 F0000000000000000
P212808484000189001JHQWJKHDKJAHGKHFIVHWEIRHIGHEI                                             01039JHQWJKHDKJAHGKHFIVHWEIRHIGHEI           T1700000000000000
P212808484000189001ADAPTADOR N1 P/ VALVULA PIA/LAV DN 40                                     00451ADAPTADOR N1 P/ VALVULA PIA/LAV DN 40   T1700000000000000
P212808484000189001                                                                          00452ADAPTADOR FL SOLD CX DAGUA 50MM X 1.1/2 F0000000000000000
P212808484000189001NIPEL ROSCA 3/4                                                           00453NIPEL ROSCA 3/4                         T1700000000000000
P212808484000189001PLUG ROSCA 1/2                                                            00454PLUG ROSCA 1/2                          T1700000000000000
P212808484000189001PLUG ROSCA 3/4                                                            00455PLUG ROSCA 3/4                          T1700000000000000
P212808484000189001CAP SOLDAVEL 20MM                                                         00456CAP SOLDAVEL 20MM                       T1700000000000000
P212808484000189001CAP SOLDAVEL 25MM                                                         00457CAP SOLDAVEL 25MM                       T1700000000000000
P212808484000189001CAP ESGOTO SN DN  40                                                      00458CAP ESGOTO SN DN  40                    T1700000000000000
P212808484000189001CAP ESGOTO SN DN 100                                                      00459CAP ESGOTO SN DN 100                    T1700000000000000
P212808484000189001JUNCAO SIMPLES ESGOTO SN DN  40                                           00460JUNCAO SIMPLES ESGOTO SN DN  40         T1700000000000000
P212808484000189001JUNCAO SIMPLES ESGOTO SN DN  50                                           00461JUNCAO SIMPLES ESGOTO SN DN  50         T1700000000000000
P212808484000189001JUNCAO SIMPLES RED ESGOTO SN DN  75X50                                    00462JUNCAO SIMPLES RED ESGOTO SN DN  75X50  T1700000000000000
P212808484000189001JUNCAO SIMPLES RED ESGOTO SN DN 100X50                                    00463JUNCAO SIMPLES RED ESGOTO SN DN 100X50  T1700000000000000
P212808484000189001JUNCAO SIMPLES ESGOTO SN DN 100                                           00464JUNCAO SIMPLES ESGOTO SN DN 100         T1700000000000000
P212808484000189001UNIAO SOLDAVEL 25MM                                                       00465UNIAO SOLDAVEL 25MM                     T1700000000000000
P212808484000189001UNIAO SOLDAVEL 32MM                                                       00466UNIAO SOLDAVEL 32MM                     T1700000000000000
P212808484000189001UNIAO SOLDAVEL 20MM                                                       00467UNIAO SOLDAVEL 20MM                     T1700000000000000
P212808484000189001CURVA 90 SOLDAVEL 20MM                                                    00468CURVA 90 SOLDAVEL 20MM                  T1700000000000000
P212808484000189001CURVA 90 SOLDAVEL 25MM                                                    00469CURVA 90 SOLDAVEL 25MM                  T1700000000000000
P212808484000189001CX SIFONADA N64 BR P GR RED 100X100X50                                    00470CX SIFONADA N64 BR P GR RED 100X100X50  T1700000000000000
P212808484000189001ADESIVO BISNAGA 17G                                                       00471ADESIVO BISNAGA 17G                     T1700000000000000
P212808484000189001TE ESGOTO SN DN  75                                                       00472TE ESGOTO SN DN  75                     T1700000000000000
P212808484000189001RALO SIFONADO RED GR BR 100 X 38 X DN 40                                  00473RALO SIFONADO RED GR BR 100 X 38 X DN 40T1700000000000000
P212808484000189001REDUCAO EXC ESGOTO SN DN  75 X 50                                         00474REDUCAO EXC ESGOTO SN DN  75 X 50       T1700000000000000
P212808484000189001REDUCAO EXC ESGOTO SN DN 100 X 50                                         00475REDUCAO EXC ESGOTO SN DN 100 X 50       T1700000000000000
P212808484000189001REDUCAO EXC ESGOTO SN DN 100 X 75                                         00476REDUCAO EXC ESGOTO SN DN 100 X 75       T1700000000000000
P212808484000189001TE REDUZIDO SOLDAVEL 32X25 MM                                             00477TE REDUZIDO SOLDAVEL 32X25 MM           T1700000000000000
P212808484000189001TE REDUZIDO ESGOTO SN DN 100X50                                           00478TE REDUZIDO ESGOTO SN DN 100X50         T1700000000000000
P212808484000189001TE REDUZIDO ESGOTO SN DN 100X75                                           00479TE REDUZIDO ESGOTO SN DN 100X75         T1700000000000000
P212808484000189001CARRO MAO CAMPEAO 3.25X8 ARO E CAC. ACO                                   00480CARRO MAO CAMPEAO 3.25X8 ARO E CAC. ACO T1700000000000000
P212808484000189001FITA VEDA ROSCA 12MM X 10M                                                00481FITA VEDA ROSCA 12MM X 10M              T1700000000000000
P212808484000189001FITA VEDA ROSCA 12MM X 25M                                                00482FITA VEDA ROSCA 12MM X 25M              T1700000000000000
P212808484000189001FITA VEDA ROSCA 18MM X 10M                                                00483FITA VEDA ROSCA 18MM X 10M              T1700000000000000
P212808484000189001FITA VEDA ROSCA 18MM X 25M                                                00484FITA VEDA ROSCA 18MM X 25M              T1700000000000000
P212808484000189001FITA VEDA ROSCA 18MM X 50M                                                00485FITA VEDA ROSCA 18MM X 50M              T1700000000000000
P212808484000189001TORNEIRA BOIA CX DAGUA 1/2                                                00486TORNEIRA BOIA CX DAGUA 1/2              T1700000000000000
P212808484000189001TORNEIRA BOIA CX DAGUA 3/4                                                00487TORNEIRA BOIA CX DAGUA 3/4              T1700000000000000
P212808484000189001SIFAO COPO N3 PIA/LAVAT. 1 X 1.1/2                                        00488SIFAO COPO N3 PIA/LAVAT. 1 X 1.1/2      T1700000000000000
P212808484000189001SIFAO COPO N4 PIA AMER 1.1/2 X 1.1/2                                      00489SIFAO COPO N4 PIA AMER 1.1/2 X 1.1/2    T1700000000000000
P212808484000189001VALVULA N2 PIA 1                                                          00490VALVULA N2 PIA 1                        T1700000000000000
P212808484000189001VALVULA N8 LAV/TANQUE 1                                                   00491VALVULA N8 LAV/TANQUE 1                 T1700000000000000
P212808484000189001BOLSA LIGACAO P/ VASO SANITARIO 1.1/2                                     00492BOLSA LIGACAO P/ VASO SANITARIO 1.1/2   T1700000000000000
P212808484000189001CHUVEIRO 1/2                                                              00493CHUVEIRO 1/2                            T1700000000000000
P212808484000189001KIT CHUVEIRO 1/2                                                          00494KIT CHUVEIRO 1/2                        T1700000000000000
P212808484000189001ENGATE PLASTICO 1/2 X 30CM                                                00496ENGATE PLASTICO 1/2 X 30CM              T1700000000000000
P212808484000189001ENGATE PLASTICO 1/2 X 40CM                                                00497ENGATE PLASTICO 1/2 X 40CM              T1700000000000000
P212808484000189001ENGATE PLASTICO 1/2 X 50CM                                                00498ENGATE PLASTICO 1/2 X 50CM              T1700000000000000
P212808484000189001ADESIVO BISNAGA 75G                                                       00499ADESIVO BISNAGA 75G                     T1700000000000000
P212808484000189001FITA ISOLANTE CX MASTER 19MM X  5M                                        00500FITA ISOLANTE CX MASTER 19MM X  5M      T1700000000000000
P212808484000189001FITA ISOLANTE CX MASTER 19MM X 10M                                        00501FITA ISOLANTE CX MASTER 19MM X 10M      T1700000000000000
P212808484000189001FITA ISOLANTE CX MASTER 19MM X 20M                                        00502FITA ISOLANTE CX MASTER 19MM X 20M      T1700000000000000
P212808484000189001TUBO DESCIDA EXT N3 CURTO P/CX DESCARGA                                   00503TUBO DESCIDA EXT N3 CURTO P/CX DESCARGA T1700000000000000
P212808484000189001HASTE P/ CHUVEIRO 1/2                                                     00504HASTE P/ CHUVEIRO 1/2                   T1700000000000000
P212808484000189001PISO CER. 30X30 MONTE CARLO A                                             00505PISO CER. 30X30 MONTE CARLO A           T1700000000000000
P212808484000189001PISO CER. 30X30 CAPRI CHUMBO A                                            00506PISO CER. 30X30 CAPRI CHUMBO A          T1700000000000000
P212808484000189001PISO CER. 30X30 CAPRI ACQUA A                                             00507PISO CER. 30X30 CAPRI ACQUA A           T1700000000000000
P212808484000189001SUPERCAL 05 KG                                                            00508SUPERCAL 05 KG                          T1700000000000000
P212808484000189001PREGO GERDAU 3X9                                                          00509PREGO GERDAU 3X9                        T1700000000000000
P212808484000189001ESMALTE HIDRALAR 6X900 ML VERDE FOLHA                                     00510ESMALTE HIDRALAR 6X900 ML VERDE FOLHA   T1700000000000000
P212808484000189001ESMALTE HIDRALAR 6X900 ML VERMELHO                                        00511ESMALTE HIDRALAR 6X900 ML VERMELHO      T1700000000000000
P212808484000189001ESMALTE HIDRALAR 6X900 ML VERMELHO GOYA                                   00512ESMALTE HIDRALAR 6X900 ML VERMELHO GOYA T1700000000000000
P212808484000189001ESMALTE HIDRALAR 6X900 ML AZUL MAR                                        00513ESMALTE HIDRALAR 6X900 ML AZUL MAR      T1700000000000000
P212808484000189001ESMALTE HIDRALAR 6X900 ML AZUL FRANCA                                     00514ESMALTE HIDRALAR 6X900 ML AZUL FRANCA   T1700000000000000
P212808484000189001ESMALTE HIDRALAR 6X900 ML AZUL DEL REY                                    00515ESMALTE HIDRALAR 6X900 ML AZUL DEL REY  T1700000000000000
P212808484000189001ESMALTE HIDRALAR 4X3,6 ML BRANCO                                          00516ESMALTE HIDRALAR 4X3,6 ML BRANCO        T1700000000000000
P212808484000189001ESMALTE HIDRALAR 4X3,6 ML BRANCO GELO                                     00517ESMALTE HIDRALAR 4X3,6 ML BRANCO GELO   T1700000000000000
P212808484000189001ESMALTE HIDRALAR 4X3,6 ML PLATINA                                         00518ESMALTE HIDRALAR 4X3,6 ML PLATINA       T1700000000000000
P212808484000189001ESMALTE HIDRALAR 4X3,6 ML CINZA MEDIO                                     00519ESMALTE HIDRALAR 4X3,6 ML CINZA MEDIO   T1700000000000000
P212808484000189001ESMALTE HIDRALAR 4X3,6 ML PRETO                                           00520ESMALTE HIDRALAR 4X3,6 ML PRETO         T1700000000000000
P212808484000189001ESMALTE HIDRALAR 4X3,6 ML MARFIM                                          00521ESMALTE HIDRALAR 4X3,6 ML MARFIM        T1700000000000000
P212808484000189001ESMALTE HIDRALAR 4X3,6 ML CONHAQUE                                        00522ESMALTE HIDRALAR 4X3,6 ML CONHAQUE      T1700000000000000
P212808484000189001ESMALTE HIDRALAR 4X3,6 ML TABACO                                          00523ESMALTE HIDRALAR 4X3,6 ML TABACO        T1700000000000000
P212808484000189001ESMALTE HIDRALAR 4X3,6 ML CREME                                           00524ESMALTE HIDRALAR 4X3,6 ML CREME         T1700000000000000
P212808484000189001ESMALTE HIDRALAR 4X3,6 ML AMARELO                                         00525ESMALTE HIDRALAR 4X3,6 ML AMARELO       T1700000000000000
P212808484000189001ESMALTE HIDRALAR 4X3,6 ML VERDE FOLHA                                     00526ESMALTE HIDRALAR 4X3,6 ML VERDE FOLHA   T1700000000000000
P212808484000189001ESMALTE HIDRALAR 4X3,6 ML VERMELHO                                        00527ESMALTE HIDRALAR 4X3,6 ML VERMELHO      T1700000000000000
P212808484000189001ESMALTE HIDRALAR 4X3,6 ML VERMELHO GOYA                                   00528ESMALTE HIDRALAR 4X3,6 ML VERMELHO GOYA T1700000000000000
P212808484000189001ESMALTE HIDRALAR 4X3,6 ML AZUL MAR                                        00529ESMALTE HIDRALAR 4X3,6 ML AZUL MAR      T1700000000000000
P212808484000189001ESMALTE HIDRALAR 4X3,6 ML AZUL FRANCA                                     00530ESMALTE HIDRALAR 4X3,6 ML AZUL FRANCA   T1700000000000000
P212808484000189001ESMALTE HIDRALAR 4X3,6 ML AZUL DEL REY                                    00531ESMALTE HIDRALAR 4X3,6 ML AZUL DEL REY  T1700000000000000
P212808484000189001AGUARRAS 20X900 ML                                                        00532AGUARRAS 20X900 ML                      T1700000000000000
P212808484000189001AGUARRAS 4X5 LT                                                           00533AGUARRAS 4X5 LT                         T1700000000000000
P212808484000189001ESMALTE HIDRALAR 6X900 ML BRANCO                                          00534ESMALTE HIDRALAR 6X900 ML BRANCO        T1700000000000000
P212808484000189001ESMALTE HIDRALAR 6X900 ML BRANCO GELO                                     00535ESMALTE HIDRALAR 6X900 ML BRANCO GELO   T1700000000000000
P212808484000189001ESMALTE HIDRALAR 6X900 ML PLATINA                                         00536ESMALTE HIDRALAR 6X900 ML PLATINA       T1700000000000000
P212808484000189001ESMALTE HIDRALAR 6X900 ML CINZA MEDIO                                     00537ESMALTE HIDRALAR 6X900 ML CINZA MEDIO   T1700000000000000
P212808484000189001ESMALTE HIDRALAR 6X900 ML PRETO                                           00538ESMALTE HIDRALAR 6X900 ML PRETO         T1700000000000000
P212808484000189001ESMALTE HIDRALAR 6X900 ML MARFIM                                          00539ESMALTE HIDRALAR 6X900 ML MARFIM        T1700000000000000
P212808484000189001ESMALTE HIDRALAR 6X900 ML CONHAQUE                                        00540ESMALTE HIDRALAR 6X900 ML CONHAQUE      T1700000000000000
P212808484000189001ESMALTE HIDRALAR 6X900 ML TABACO                                          00541ESMALTE HIDRALAR 6X900 ML TABACO        T1700000000000000
P212808484000189001ESMALTE HIDRALAR 6X900 ML CREME                                           00542ESMALTE HIDRALAR 6X900 ML CREME         T1700000000000000
P212808484000189001ESMALTE HIDRALAR 6X900 ML AMARELO                                         00543ESMALTE HIDRALAR 6X900 ML AMARELO       T1700000000000000
P212808484000189001ESPUDE P/ VASO SANITARIO                                                  00544ESPUDE P/ VASO SANITARIO                T1700000000000000
P212808484000189001MALHA POP MEDIA PAINEL 2,00X3,00 M                                        00545MALHA POP MEDIA PAINEL 2,00X3,00 M      T1700000000000000
P212808484000189001CAMARA DE AR 3.25X8                                                       00546CAMARA DE AR 3.25X8                     T1700000000000000
P212808484000189001ESMALTE HIDRALAR 1/16 AZUL FRANCA                                         00547ESMALTE HIDRALAR 1/16 AZUL FRANCA       T1700000000000000
P212808484000189001ESMALTE HIDRALAR 1/16 AZUL DEL REY                                        00548ESMALTE HIDRALAR 1/16 AZUL DEL REY      T1700000000000000
P212808484000189001ESMALTE HIDRALAR 1/16 CREME                                               00549ESMALTE HIDRALAR 1/16 CREME             T1700000000000000
P212808484000189001ESMALTE HIDRALAR 1/16 BRANCO GELO                                         00550ESMALTE HIDRALAR 1/16 BRANCO GELO       T1700000000000000
P212808484000189001ESMALTE HIDRALAR 1/16 PLATINA                                             00551ESMALTE HIDRALAR 1/16 PLATINA           T1700000000000000
P212808484000189001ESMALTE HIDRALAR 1/16 CINZA MEDIO                                         00552ESMALTE HIDRALAR 1/16 CINZA MEDIO       T1700000000000000
P212808484000189001ESMALTE HIDRALAR 1/16 PRETO                                               00553ESMALTE HIDRALAR 1/16 PRETO             T1700000000000000
P212808484000189001ESMALTE HIDRALAR 1/16 MARFIM                                              00554ESMALTE HIDRALAR 1/16 MARFIM            T1700000000000000
P212808484000189001ESMALTE HIDRALAR 1/16 CONHAQUE                                            00555ESMALTE HIDRALAR 1/16 CONHAQUE          T1700000000000000
P212808484000189001ESMALTE HIDRALAR 1/16 TABACO                                              00556ESMALTE HIDRALAR 1/16 TABACO            T1700000000000000
P212808484000189001ESMALTE HIDRALAR 1/16 AMARELO                                             00558ESMALTE HIDRALAR 1/16 AMARELO           T1700000000000000
P212808484000189001ESMALTE HIDRALAR 1/16 VERDE FOLHA                                         00559ESMALTE HIDRALAR 1/16 VERDE FOLHA       T1700000000000000
P212808484000189001ESMALTE HIDRALAR 1/16 VERMELHO                                            00560ESMALTE HIDRALAR 1/16 VERMELHO          T1700000000000000
P212808484000189001ESMALTE HIDRALAR 1/16 VERMELHO GOYA                                       00561ESMALTE HIDRALAR 1/16 VERMELHO GOYA     T1700000000000000
P212808484000189001ESMALTE HIDRALAR 1/16 AZUL MAR                                            00562ESMALTE HIDRALAR 1/16 AZUL MAR          T1700000000000000
P212808484000189001ESMALTE HIDRALAR 1/32 BRANCO                                              00563ESMALTE HIDRALAR 1/32 BRANCO            T1700000000000000
P212808484000189001ESMALTE HIDRALAR 1/32 BRANCO GELO                                         00564ESMALTE HIDRALAR 1/32 BRANCO GELO       T1700000000000000
P212808484000189001ESMALTE HIDRALAR 1/32 PLATINA                                             00565ESMALTE HIDRALAR 1/32 PLATINA           T1700000000000000
P212808484000189001ESMALTE HIDRALAR 1/32 CINZA MEDIO                                         00566ESMALTE HIDRALAR 1/32 CINZA MEDIO       T1700000000000000
P212808484000189001ESMALTE HIDRALAR 1/32 PRETO                                               00567ESMALTE HIDRALAR 1/32 PRETO             T1700000000000000
P212808484000189001ESMALTE HIDRALAR 1/32 MARFIM                                              00568ESMALTE HIDRALAR 1/32 MARFIM            T1700000000000000
P212808484000189001ESMALTE HIDRALAR 1/32 CONHAQUE                                            00569ESMALTE HIDRALAR 1/32 CONHAQUE          T1700000000000000
P212808484000189001ESMALTE HIDRALAR 1/32 TABACO                                              00570ESMALTE HIDRALAR 1/32 TABACO            T1700000000000000
P212808484000189001ESMALTE HIDRALAR 1/32 CREME                                               00571ESMALTE HIDRALAR 1/32 CREME             T1700000000000000
P212808484000189001ESMALTE HIDRALAR 1/32 AMARELO                                             00572ESMALTE HIDRALAR 1/32 AMARELO           T1700000000000000
P212808484000189001ESMALTE HIDRALAR 1/32 VERMELHO                                            00573ESMALTE HIDRALAR 1/32 VERMELHO          T1700000000000000
P212808484000189001ESMALTE HIDRALAR 1/32 VERMELHO GOYA                                       00574ESMALTE HIDRALAR 1/32 VERMELHO GOYA     T1700000000000000
P212808484000189001ESMALTE HIDRALAR 1/32 AZUL MAR                                            00575ESMALTE HIDRALAR 1/32 AZUL MAR          T1700000000000000
P212808484000189001ESMALTE HIDRALAR 1/32 AZUL FRANCA                                         00576ESMALTE HIDRALAR 1/32 AZUL FRANCA       T1700000000000000
P212808484000189001ESMALTE HIDRALAR 1/32 AZUL DEL REY                                        00577ESMALTE HIDRALAR 1/32 AZUL DEL REY      T1700000000000000
P212808484000189001ESMALTE HIDRALAR 1/16 BRANCO                                              00578ESMALTE HIDRALAR 1/16 BRANCO            T1700000000000000
P212808484000189001COLUNA POP 6M GG 5/16 X 7X14                                              00580COLUNA POP 6M GG 5/16 X 7X14            T1700000000000000
P212808484000189001ASDFGSAFGS                                                                00139ASDFGSAFGS                              T1700000000000000
P212808484000189001ZSDLCJKSDFJGDKLFGSKLDFKLGS                                                00146ZSDLBJKSDFJGDKLFGSKLDFKLGS              T1700000000000000
P212808484000189001COLUNA POP 6M GG 3/8  X 7X17                                              00581COLUNA POP 6M GG 3/8  X 7X17            T1700000000000000
P212808484000189001ESMALTE HIDRALAR 1/32 VERDE FOLHA                                         00582ESMALTE HIDRALAR 1/32 VERDE FOLHA       T1700000000000000
P212808484000189001ESMALTE HIDRALAR 1/32 LARANJA                                             00583ESMALTE HIDRALAR 1/32 LARANJA           T1700000000000000
P212808484000189001ESMALTE HIDRALAR 1/16 LARANJA                                             00584ESMALTE HIDRALAR 1/16 LARANJA           T1700000000000000
P212808484000189001ESMALTE HIDRALAR 4X3,6 ML LARANJA                                         00585ESMALTE HIDRALAR 4X3,6 ML LARANJA       T1700000000000000
P212808484000189001ESMALTE HIDRALAR 6X900 ML LARANJA                                         00586ESMALTE HIDRALAR 6X900 ML LARANJA       T1700000000000000
P212808484000189001HIDRACOR CINZA FRD 10/2                                                   00587HIDRACOR CINZA FRD 10/2                 T1700000000000000
P212808484000189001TUBO PVC AMANCO SOLDAVEL 110 X 6M                                         00589TUBO PVC AMANCO SOLDAVEL 110 X 6M       T1700000000000000
P212808484000189001PISO CER. 10X10 DANUBIO A                                                 00593PISO CER. 10X10 DANUBIO A               T1700000000000000
P212808484000189001LATEX EXT ACRILICO H 4X3,6 BRANCO                                         00595LATEX EXT ACRILICO H 4X3,6 BRANCO       T1700000000000000
P212808484000189001TEXTURAX PALHA 18 L                                                       00596TEXTURAX PALHA 18 L                     T1700000000000000
P212808484000189001TUBO SL AMANCO DN 200 X 6M                                                00598TUBO SL AMANCO DN 200 X 6M              T1700000000000000
P212808484000189001TUBO SL AMANCO DN 300 X 6M                                                00599TUBO SL AMANCO DN 300 X 6M              T1700000000000000
P212808484000189001TUBO CELFORT JERI DN 150                                                  00600TUBO CELFORT JERI DN 150                T1700000000000000
P212808484000189001TELHA MAXIPLAC 6MM 3.00X1.06                                              00601TELHA MAXIPLAC 6MM 3.00X1.06            T1700000000000000
P212808484000189001TELHA MAXIPLAC 6MM 3.70X1.06                                              00602TELHA MAXIPLAC 6MM 3.70X1.06            T1700000000000000
P212808484000189001TELHA MAXIPLAC 6MM 4.10X1.06                                              00603TELHA MAXIPLAC 6MM 4.10X1.06            T1700000000000000
P212808484000189001CUMEEIRA NORMAL TMX 10 G  (MAXIPLAC)                                      00604CUMEEIRA NORMAL TMX 10 G  (MAXIPLAC)    T1700000000000000
P212808484000189001PISO CER. 20X20 ALBANY CINZA A                                            00605PISO CER. 20X20 ALBANY CINZA A          T1700000000000000
P212808484000189001ANEL VED ESG DN  50                                                       00606ANEL VED ESG DN  50                     T1700000000000000
P212808484000189001ANEL VED ESG DN  75                                                       00607ANEL VED ESG DN  75                     T1700000000000000
P21280848400018900145454546                                                                  0104045454546                                T1700000000000000
P212808484000189001BUCHA REDUZIDA SOLDAVEL CURTA 50X40MM                                     00609BUCHA REDUZIDA SOLDAVEL CURTA 50X40MM   T1700000000000000
P212808484000189001JOELHO 45 ESGOTO SN DN  40                                                00610JOELHO 45 ESGOTO SN DN  40              T1700000000000000
P212808484000189001JOELHO 45 ESGOTO SN DN  50                                                00611JOELHO 45 ESGOTO SN DN  50              T1700000000000000
P212808484000189001JOELHO 45 ESGOTO SN DN  75                                                00612JOELHO 45 ESGOTO SN DN  75              T1700000000000000
P212808484000189001JOELHO 45 ESGOTO SN DN 100                                                00613JOELHO 45 ESGOTO SN DN 100              T1700000000000000
P212808484000189001TE SOLD BUCHA LT 20MMX1/2                                                 00614TE SOLD BUCHA LT 20MMX1/2               T1700000000000000
P212808484000189001TE SOLD BUCHA LT 25MMX3/4                                                 00615TE SOLD BUCHA LT 25MMX3/4               T1700000000000000
P212808484000189001TE SOLD BUCHA LT 25MMX1/2                                                 00616TE SOLD BUCHA LT 25MMX1/2               T1700000000000000
P212808484000189001ARMADOR 200 - SACO PLASTICO                                               00617ARMADOR 200 - SACO PLASTICO             T1700000000000000
P212808484000189001DOBRADICA 780 X 4" POLIDO                                                 00618DOBRADICA 780 X 4" POLIDO               T1700000000000000
P212808484000189001DOBRADICA 780 X 4" ZINCADO                                                00619DOBRADICA 780 X 4" ZINCADO              T1700000000000000
P212808484000189001DOBRADICA 650 X 2.1/2" POLIDO                                             00620DOBRADICA 650 X 2.1/2" POLIDO           T1700000000000000
P212808484000189001DOBRADICA 650 X 3" POLIDO                                                 00621DOBRADICA 650 X 3" POLIDO               T1700000000000000
P212808484000189001DOBRADICA 650 X 3.1/2" POLIDO                                             00622DOBRADICA 650 X 3.1/2" POLIDO           T1700000000000000
P212808484000189001DOBRADICA 650 X 2.1/2" ZINCADO                                            00623DOBRADICA 650 X 2.1/2" ZINCADO          T1700000000000000
P212808484000189001DOBRADICA 650 X 3" ZINCADO                                                00624DOBRADICA 650 X 3" ZINCADO              T1700000000000000
P212808484000189001DOBRADICA 650 X 3.1/2" ZINCADO                                            00625DOBRADICA 650 X 3.1/2" ZINCADO          T1700000000000000
P212808484000189001DOBRADICA 850 X 2.1/2" ZINCADO                                            00626DOBRADICA 850 X 2.1/2" ZINCADO          T1700000000000000
P212808484000189001DOBRADICA 850 X 3" ZINCADO                                                00627DOBRADICA 850 X 3" ZINCADO              T1700000000000000
P212808484000189001DOBRADICA 850 X 3.1/2" ZINCADO                                            00628DOBRADICA 850 X 3.1/2" ZINCADO          T1700000000000000
P212808484000189001FERROLHO 450 X 3" ZINCADO                                                 00629FERROLHO 450 X 3" ZINCADO               T1700000000000000
P212808484000189001FERROLHO 450 X 4" ZINCADO                                                 00630FERROLHO 450 X 4" ZINCADO               T1700000000000000
P212808484000189001FERROLHO 450 X 5" ZINCADO                                                 00631FERROLHO 450 X 5" ZINCADO               T1700000000000000
P212808484000189001FERROLHO 700 X 4"                                                         00632FERROLHO 700 X 4"                       T1700000000000000
P212808484000189001FERROLHO 700 X 5"                                                         00633FERROLHO 700 X 5"                       T1700000000000000
P212808484000189001FERROLHO 600 X 4" ZINCADO                                                 00634FERROLHO 600 X 4" ZINCADO               T1700000000000000
P212808484000189001FERROLHO 600 X 5" ZINCADO                                                 00635FERROLHO 600 X 5" ZINCADO               T1700000000000000
P212808484000189001FERROLHO 500 X 4" NIQUELADO                                               00636FERROLHO 500 X 4" NIQUELADO             T1700000000000000
P212808484000189001FERROLHO 500 X 5" NIQUELADO                                               00637FERROLHO 500 X 5" NIQUELADO             T1700000000000000
P212808484000189001TARJETA 1.1/2" ZINCADO                                                    00638TARJETA 1.1/2" ZINCADO                  T1700000000000000
P212808484000189001TARJETA 2" ZINCADO                                                        00639TARJETA 2" ZINCADO                      T1700000000000000
P212808484000189001CLSAKDLFKALSCDLCFC                                                        00148CLSAKDLFKALSCDLCFC                      T1700000000000000
P212808484000189001TARJETA 2.1/2" ZINCADO                                                    00640TARJETA 2.1/2" ZINCADO                  T1700000000000000
P212808484000189001TARJETA 3" ZINCADO                                                        00641TARJETA 3" ZINCADO                      T1700000000000000
P212808484000189001FECHADURA 930 X 2 PINTADO                                                 00642FECHADURA 930 X 2 PINTADO               T1700000000000000
P212808484000189001FECHADURA 930 X 2 - CX. INDIVIDUAL                                        00643FECHADURA 930 X 2 - CX. INDIVIDUAL      T1700000000000000
P212808484000189001FECHADURA EXT. MACICA ALAV. RETA 9501/03                                  00644FECHADURA EXT. MACICA ALAV. RETA 9501/03T1700000000000000
P212808484000189001FECHADURA INT. MACICA ALAV. RETA 9510/03                                  00645FECHADURA INT. MACICA ALAV. RETA 9510/03T1700000000000000
P212808484000189001FECHADURA BAN. MACICA ALAV. RETA 9520/03                                  00646FECHADURA BAN. MACICA ALAV. RETA 9520/03T1700000000000000
P212808484000189001CARTELAO DUPLA FACE DIVERSOS                                              00647CARTELAO DUPLA FACE DIVERSOS            T1700000000000000
P212808484000189001DOBRADICA 850 X 2" ZINCADO                                                00648DOBRADICA 850 X 2" ZINCADO              T1700000000000000
P212808484000189001PISO CER. 30X30 ATLANTA A                                                 00650PISO CER. 30X30 ATLANTA A               T1700000000000000
P212808484000189001PARAFUSO SEXTAVADO 5/16X110M                                              00651PARAFUSO SEXTAVADO 5/16X110M            T1700000000000000
P212808484000189001ARMADOR TIPO BATOM                                                        00652ARMADOR TIPO BATOM                      T1700000000000000
P212808484000189001PISO CER. 20X20 VENUS CINZA A                                             00653PISO CER. 20X20 VENUS CINZA A           T1700000000000000
P212808484000189001PISO CER. 20X20 VENUS BEGE A                                              00654PISO CER. 20X20 VENUS BEGE A            T1700000000000000
P212808484000189001PISO CER. 30X30 MALLORCA ESMERALDA A                                      00655PISO CER. 30X30 MALLORCA ESMERALDA A    T1700000000000000
P212808484000189001COLUNA POP 6M GG 1/4  X 7X14                                              00656COLUNA POP 6M GG 1/4  X 7X14            T1700000000000000
P212808484000189001PISO CER. 30X30 DALLAS BEGE A                                             00657PISO CER. 30X30 DALLAS BEGE A           T1700000000000000
P212808484000189001TELHA KALHETAO 8MM 7.40M                                                  00663TELHA KALHETAO 8MM 7.40M                T1700000000000000
P212808484000189001HIDRALATEX AMARELO VANILA 4X3,6                                           00665HIDRALATEX AMARELO VANILA 4X3,6         T1700000000000000
P212808484000189001HIDRALATEX BRANCO 4X3,6                                                   00666HIDRALATEX BRANCO 4X3,6                 T1700000000000000
P212808484000189001HIDRALATEX BRANCO GELO 4X3,6                                              00667HIDRALATEX BRANCO GELO 4X3,6            T1700000000000000
P212808484000189001HIDRALATEX AREIA 4X3,6                                                    00668HIDRALATEX AREIA 4X3,6                  T1700000000000000
P212808484000189001HIDRALATEX CAMURCA 4X3,6                                                  00669HIDRALATEX CAMURCA 4X3,6                T1700000000000000
P212808484000189001HIDRALATEX MARFIM 4X3,6                                                   00670HIDRALATEX MARFIM 4X3,6                 T1700000000000000
P212808484000189001HIDRALATEX VERDE AMAZONAS 4X3,6                                           00671HIDRALATEX VERDE AMAZONAS 4X3,6         T1700000000000000
P212808484000189001HIDRALATEX VERDE KIWI 4X3,6                                               00672HIDRALATEX VERDE KIWI 4X3,6             T1700000000000000
P212808484000189001HIDRALATEX PALHA 4X3,6                                                    00673HIDRALATEX PALHA 4X3,6                  T1700000000000000
P212808484000189001HIDRALATEX CROMO SUAVE 4X3,6                                              00675HIDRALATEX CROMO SUAVE 4X3,6            T1700000000000000
P212808484000189001HIDRALATEX PEROLA 4X3,6                                                   00676HIDRALATEX PEROLA 4X3,6                 T1700000000000000
P212808484000189001HIDRALATEX PESSEGO 4X3,6                                                  00677HIDRALATEX PESSEGO 4X3,6                T1700000000000000
P212808484000189001HIDRALATEX FLAMINGO 4X3,6                                                 00678HIDRALATEX FLAMINGO 4X3,6               T1700000000000000
P212808484000189001HIDRALATEX TERRACOTA 4X3,6                                                00679HIDRALATEX TERRACOTA 4X3,6              T1700000000000000
P212808484000189001HIDRALATEX AZUL MIRAGE 4X3,6                                              00680HIDRALATEX AZUL MIRAGE 4X3,6            T1700000000000000
P212808484000189001HIDRALATEX CONCRETO 4X3,6                                                 00681HIDRALATEX CONCRETO 4X3,6               T1700000000000000
P212808484000189001HIDRALATEX BRANCO 18L                                                     00682HIDRALATEX BRANCO 18L                   T1700000000000000
P212808484000189001HIDRALATEX BRANCO GELO 18L                                                00683HIDRALATEX BRANCO GELO 18L              T1700000000000000
P212808484000189001HIDRALATEX AREIA 18L                                                      00684HIDRALATEX AREIA 18L                    T1700000000000000
P212808484000189001HIDRALATEX CAMURCA 18L                                                    00685HIDRALATEX CAMURCA 18L                  T1700000000000000
P212808484000189001HIDRALATEX MARFIM 18L                                                     00686HIDRALATEX MARFIM 18L                   T1700000000000000
P212808484000189001HIDRALATEX AMARELO VANILA 18L                                             00687HIDRALATEX AMARELO VANILA 18L           T1700000000000000
P212808484000189001HIDRALATEX VERDE AMAZONAS 18L                                             00688HIDRALATEX VERDE AMAZONAS 18L           T1700000000000000
P212808484000189001HIDRALATEX VERDE KIWI 18L                                                 00689HIDRALATEX VERDE KIWI 18L               T1700000000000000
P212808484000189001HIDRALATEX PALHA 18L                                                      00690HIDRALATEX PALHA 18L                    T1700000000000000
P212808484000189001HIDRALATEX CROMO SUAVE 18L                                                00691HIDRALATEX CROMO SUAVE 18L              T1700000000000000
P212808484000189001HIDRALATEX PEROLA 18L                                                     00692HIDRALATEX PEROLA 18L                   T1700000000000000
P212808484000189001HIDRALATEX PESSEGO 18L                                                    00693HIDRALATEX PESSEGO 18L                  T1700000000000000
P212808484000189001HIDRALATEX TERRACOTA 18L                                                  00694HIDRALATEX TERRACOTA 18L                T1700000000000000
P212808484000189001HIDRALATEX AZUL MIRAGE 18L                                                00695HIDRALATEX AZUL MIRAGE 18L              T1700000000000000
P212808484000189001HIDRALATEX CONCRETO 18L                                                   00696HIDRALATEX CONCRETO 18L                 T1700000000000000
P212808484000189001MASSA PVA HIDRACOR 6X900                                                  00697MASSA PVA HIDRACOR 6X900                T1700000000000000
P212808484000189001VERNIZ COPAL 900                                                          00698VERNIZ COPAL 900                        T1700000000000000
P212808484000189001LATEX RENDMAIS 4X3,6 BRANCO                                               00699LATEX RENDMAIS 4X3,6 BRANCO             T1700000000000000
P212808484000189001LATEX RENDMAIS 4X3,6 BRANCO GELO                                          00700LATEX RENDMAIS 4X3,6 BRANCO GELO        T1700000000000000
P212808484000189001LATEX RENDMAIS 4X3,6 MARFIM                                               00701LATEX RENDMAIS 4X3,6 MARFIM             T1700000000000000
P212808484000189001LATEX RENDMAIS 4X3,6 AREIA                                                00702LATEX RENDMAIS 4X3,6 AREIA              T1700000000000000
P212808484000189001LATEX RENDMAIS 4X3,6 PESSEGO                                              00703LATEX RENDMAIS 4X3,6 PESSEGO            T1700000000000000
P212808484000189001LATEX RENDMAIS 4X3,6 CAMURCA                                              00704LATEX RENDMAIS 4X3,6 CAMURCA            T1700000000000000
P212808484000189001LATEX RENDMAIS 4X3,6 AZUL PAVAO                                           00705LATEX RENDMAIS 4X3,6 AZUL PAVAO         T1700000000000000
P212808484000189001LATEX RENDMAIS 4X3,6 PALHA                                                00706LATEX RENDMAIS 4X3,6 PALHA              T1700000000000000
P212808484000189001LATEX RENDMAIS 18L BRANCO                                                 00707LATEX RENDMAIS 18L BRANCO               T1700000000000000
P212808484000189001LATEX RENDMAIS 18L BRANCO GELO                                            00708LATEX RENDMAIS 18L BRANCO GELO          T1700000000000000
P212808484000189001LATEX RENDMAIS 18L AREIA                                                  00709LATEX RENDMAIS 18L AREIA                T1700000000000000
P212808484000189001LATEX RENDMAIS 18L CAMURCA                                                00710LATEX RENDMAIS 18L CAMURCA              T1700000000000000
P212808484000189001LATEX RENDMAIS 18L FLAMINGO                                               00711LATEX RENDMAIS 18L FLAMINGO             T1700000000000000
P212808484000189001LATEX RENDMAIS 18L PEROLA                                                 00712LATEX RENDMAIS 18L PEROLA               T1700000000000000
P212808484000189001LATEX RENDMAIS 18L MARFIM                                                 00713LATEX RENDMAIS 18L MARFIM               T1700000000000000
P212808484000189001LATEX RENDMAIS 18L PESSEGO                                                00714LATEX RENDMAIS 18L PESSEGO              T1700000000000000
P212808484000189001LATEX RENDMAIS 18L AZUL PAVAO                                             00715LATEX RENDMAIS 18L AZUL PAVAO           T1700000000000000
P212808484000189001LATEX RENDMAIS 18L PALHA                                                  00716LATEX RENDMAIS 18L PALHA                T1700000000000000
P212808484000189001HIDRALATEX FLAMINGO 18L                                                   00717HIDRALATEX FLAMINGO 18L                 T1700000000000000
P212808484000189001LATEX RENDMAIS 4X3,6 PEROLA                                               00718LATEX RENDMAIS 4X3,6 PEROLA             T1700000000000000
P212808484000189001LATEX RENDMAIS 4X3,6 FLAMINGO                                             00719LATEX RENDMAIS 4X3,6 FLAMINGO           T1700000000000000
P212808484000189001ASSENTO SANIT.FOFINHO PLUS CARAMELO                                       00720ASSENTO SANIT.FOFINHO PLUS CARAMELO     T1700000000000000
P212808484000189001CAIXA DESCARGA PLUS CARAMELO                                              00721CAIXA DESCARGA PLUS CARAMELO            T1700000000000000
P212808484000189001CHAPA FIBROTEX 4MM 2.13X0.50M                                             00722CHAPA FIBROTEX 4MM 2.13X0.50M           T1700000000000000
P212808484000189001JUNCAO SIMPLES RED ESGOTO SN DN 100X75                                    00723JUNCAO SIMPLES RED ESGOTO SN DN 100X75  T1700000000000000
P212808484000189001LUVA SIMPLES ESGOTO SN DN  75                                             00724LUVA SIMPLES ESGOTO SN DN  75           T1700000000000000
P212808484000189001REJUNTE PISO COLA CREME FRD 40X1                                          00725REJUNTE PISO COLA CREME FRD 40X1        T1700000000000000
P212808484000189001REJUNTE PISO COLA BEGE FRD 40X1                                           00726REJUNTE PISO COLA BEGE FRD 40X1         T1700000000000000
P212808484000189001GESSO PISO COLA FRD 30X1                                                  00727GESSO PISO COLA FRD 30X1                T1700000000000000
P212808484000189001TELHA KALHETAO 8MM 9.20M                                                  00728TELHA KALHETAO 8MM 9.20M                T1700000000000000
P212808484000189001TELHA KALHETAO 8MM 8.20M                                                  00729TELHA KALHETAO 8MM 8.20M                T1700000000000000
P212808484000189001TUBO PVC AMANCO SOLDAVEL  40 X 6M                                         00730TUBO PVC AMANCO SOLDAVEL  40 X 6M       T1700000000000000
P212808484000189001TUBO SL AMANCO DN 250 X 6M                                                00731TUBO SL AMANCO DN 250 X 6M              T1700000000000000
P212808484000189001CORPO CX SIF 100X100X50/40                                                00732CORPO CX SIF 100X100X50/40              T1700000000000000
P212808484000189001CORPO CX SIF 150X185X75                                                   00733CORPO CX SIF 150X185X75                 T1700000000000000
P212808484000189001GRELHA N1 RED BR P/RL E CX SIF 100                                        00734GRELHA N1 RED BR P/RL E CX SIF 100      T1700000000000000
P212808484000189001PORTA GRELHA N1 RED BR CX SIF 100                                         00735PORTA GRELHA N1 RED BR CX SIF 100       T1700000000000000
P212808484000189001CORPO CX SIF 100X150X50                                                   00736CORPO CX SIF 100X150X50                 T1700000000000000
P212808484000189001CAP SOLDAVEL 32MM                                                         00737CAP SOLDAVEL 32MM                       T1700000000000000
P212808484000189001CAP ESGOTO SN DN  50                                                      00738CAP ESGOTO SN DN  50                    T1700000000000000
P212808484000189001TE REDUZIDO ESGOTO SN DN 150X100                                          00739TE REDUZIDO ESGOTO SN DN 150X100        T1700000000000000
P212808484000189001JOELHO 90 ESGOTO SN DN 150                                                00740JOELHO 90 ESGOTO SN DN 150              T1700000000000000
P212808484000189001REDUCAO EXC ESGOTO SN DN 150 X 100                                        00741REDUCAO EXC ESGOTO SN DN 150 X 100      T1700000000000000
P212808484000189001JOELHO 45 ESGOTO SN DN 150                                                00742JOELHO 45 ESGOTO SN DN 150              T1700000000000000
P212808484000189001LUVA SIMPLES ESGOTO SN DN 150                                             00743LUVA SIMPLES ESGOTO SN DN 150           T1700000000000000
P212808484000189001TE ESGOTO SN DN 150                                                       00744TE ESGOTO SN DN 150                     T1700000000000000
P212808484000189001JUNCAO SIMPLES ESGOTO SN DN 150                                           00745JUNCAO SIMPLES ESGOTO SN DN 150         T1700000000000000
P212808484000189001JUNCAO SIMPLES RED ESGOTO SN DN 150X100                                   00746JUNCAO SIMPLES RED ESGOTO SN DN 150X100 T1700000000000000
P212808484000189001BUCHA REDUZIDA SOLDAVEL CURTA 75X60MM                                     00747BUCHA REDUZIDA SOLDAVEL CURTA 75X60MM   T1700000000000000
P212808484000189001BUCHA REDUZIDA ROSCA   1X3/4                                              00748BUCHA REDUZIDA ROSCA   1X3/4            T1700000000000000
P212808484000189001ADAPTADOR SOLD CURTO 40MM X 1.1/4                                         00749ADAPTADOR SOLD CURTO 40MM X 1.1/4       T1700000000000000
P212808484000189001ADAPTADOR SOLD CURTO 50MM X 1.1/2                                         00750ADAPTADOR SOLD CURTO 50MM X 1.1/2       T1700000000000000
P212808484000189001                                                                          00751ADAPTADOR SOLD CURTO 60MM X 2           T3200000000000000
P212808484000189001BUCHA REDUZIDA SOLDAVEL CURTA 40X32MM                                     00752BUCHA REDUZIDA SOLDAVEL CURTA 40X32MM   T1700000000000000
P212808484000189001BUCHA REDUZIDA SOLDAVEL CURTA 60X50MM                                     00753BUCHA REDUZIDA SOLDAVEL CURTA 60X50MM   T1700000000000000
P212808484000189001BUCHA REDUZIDA SOLDAVEL LONGA 50X32MM                                     00754BUCHA REDUZIDA SOLDAVEL LONGA 50X32MM   T1700000000000000
P212808484000189001CAP SOLDAVEL 40MM                                                         00755CAP SOLDAVEL 40MM                       T1700000000000000
P212808484000189001CAP SOLDAVEL 50MM                                                         00756CAP SOLDAVEL 50MM                       T1700000000000000
P212808484000189001JOELHO 45 SOLDAVEL 32 MM                                                  00757JOELHO 45 SOLDAVEL 32 MM                T1700000000000000
P212808484000189001JOELHO 45 SOLDAVEL 40 MM                                                  00758JOELHO 45 SOLDAVEL 40 MM                T1700000000000000
P212808484000189001JOELHO 45 SOLDAVEL 50 MM                                                  00759JOELHO 45 SOLDAVEL 50 MM                T1700000000000000
P212808484000189001TE REDUZIDO SOLDAVEL 50X25 MM                                             00760TE REDUZIDO SOLDAVEL 50X25 MM           T1700000000000000
P212808484000189001UNIAO SOLDAVEL 40MM                                                       00761UNIAO SOLDAVEL 40MM                     T1700000000000000
P212808484000189001UNIAO SOLDAVEL 50MM                                                       00762UNIAO SOLDAVEL 50MM                     T1700000000000000
P212808484000189001JOELHO 90 BR C/ ANEL LABIAL DN 40X38                                      00763JOELHO 90 BR C/ ANEL LABIAL DN 40X38    T1700000000000000
P212808484000189001CAP ESGOTO SN DN  75                                                      00764CAP ESGOTO SN DN  75                    T1700000000000000
P212808484000189001JUNCAO SIMPLES ESGOTO SN DN  75                                           00765JUNCAO SIMPLES ESGOTO SN DN  75         T1700000000000000
P212808484000189001REGISTRO ESF SOLDAVEL 20MM                                                00766REGISTRO ESF SOLDAVEL 20MM              T1700000000000000
P212808484000189001REGISTRO ESF SOLDAVEL 25MM                                                00767REGISTRO ESF SOLDAVEL 25MM              T1700000000000000
P212808484000189001REGISTRO ESF SOLDAVEL 40MM                                                00768REGISTRO ESF SOLDAVEL 40MM              T1700000000000000
P212808484000189001REGISTRO ESF SOLDAVEL 50MM                                                00769REGISTRO ESF SOLDAVEL 50MM              T1700000000000000
P212808484000189001TE ISNP ESG SN DN 100X75                                                  00771TE ISNP ESG SN DN 100X75                T1700000000000000
P212808484000189001CURVA 90 LONGA ESG SN DN 40                                               00773CURVA 90 LONGA ESG SN DN 40             T1700000000000000
P212808484000189001CURVA 90 LONGA ESG PRIM DN  50 SN                                         00774CURVA 90 LONGA ESG PRIM DN  50 SN       T1700000000000000
P212808484000189001CURVA 90 LONGA ESG PRIM DN  75 SN                                         00775CURVA 90 LONGA ESG PRIM DN  75 SN       T1700000000000000
P212808484000189001CURVA 90 LONGA ESG PRIM DN 100 SN                                         00776CURVA 90 LONGA ESG PRIM DN 100 SN       T1700000000000000
P212808484000189001ANEL VED ESG DN 150                                                       00777ANEL VED ESG DN 150                     T1700000000000000
P212808484000189001ADESIVO FRASCO 850G                                                       00778ADESIVO FRASCO 850G                     T1700000000000000
P212808484000189001SOLUCAO LIMPADORA FRASCO 1000 CC                                          00779SOLUCAO LIMPADORA FRASCO 1000 CC        T1700000000000000
P212808484000189001ARAME RECOZIDO 12 ROLO 150 KG                                             00780ARAME RECOZIDO 12 ROLO 150 KG           T1700000000000000
P212808484000189001TUBO ESGOTO PETFORTE  40X6M                                               00781TUBO ESGOTO PETFORTE  40X6M             T1700000000000000
P212808484000189001TUBO ESGOTO PETFORTE  50X6M                                               00782TUBO ESGOTO PETFORTE  50X6M             T1700000000000000
P212808484000189001TUBO ESGOTO PETFORTE  75X6M                                               00783TUBO ESGOTO PETFORTE  75X6M             T1700000000000000
P212808484000189001TUBO ESGOTO PETFORTE 100X6M                                               00784TUBO ESGOTO PETFORTE 100X6M             T1700000000000000
P212808484000189001REGISTRO ESF ROSC 1/2                                                     00785REGISTRO ESF ROSC 1/2                   T1700000000000000
P212808484000189001REGISTRO ESF ROSC 3/4                                                     00786REGISTRO ESF ROSC 3/4                   T1700000000000000
P212808484000189001REGISTRO ESF ROSC 1                                                       00787REGISTRO ESF ROSC 1                     T1700000000000000
P212808484000189001JOELHO 45 ESGOTO S REFORCADA DN 100                                       00788JOELHO 45 ESGOTO S REFORCADA DN 100     T1700000000000000
P212808484000189001JOELHO 45 ESGOTO S REFORCADA DN  75                                       00789JOELHO 45 ESGOTO S REFORCADA DN  75     T1700000000000000
P212808484000189001JOELHO 90 ESGOTO S REFORCADA DN 100                                       00790JOELHO 90 ESGOTO S REFORCADA DN 100     T1700000000000000
P212808484000189001JOELHO 90 ESGOTO S REFORCADA DN  75                                       00791JOELHO 90 ESGOTO S REFORCADA DN  75     T1700000000000000
P212808484000189001JUNCAO SIMPLES ESGOTO S REFORCADA DN 100                                  00792JUNCAO SIMPLES ESGOTO S REFORCADA DN 100T1700000000000000
P212808484000189001JUNCAO SIMPLES ESGOTO S REFORCADA DN  75                                  00793JUNCAO SIMPLES ESGOTO S REFORCADA DN  75T1700000000000000
P212808484000189001LUVA SIMPLES ESGOTO S REFORCADA DN 100                                    00794LUVA SIMPLES ESGOTO S REFORCADA DN 100  T1700000000000000
P212808484000189001LUVA SIMPLES ESGOTO S REFORCADA DN  75                                    00795LUVA SIMPLES ESGOTO S REFORCADA DN  75  T1700000000000000
P212808484000189001REDUCAO EXC ESGOTO S REFORCADA DN 100X75                                  00796REDUCAO EXC ESGOTO S REFORCADA DN 100X75T1700000000000000
P212808484000189001TE ESGOTO S REFORCADA DN 100                                              00797TE ESGOTO S REFORCADA DN 100            T1700000000000000
P212808484000189001TE ESGOTO S REFORCADA DN  75                                              00798TE ESGOTO S REFORCADA DN  75            T1700000000000000
P212808484000189001JOELHO 45 ESGOTO S REFORCADA DN  50                                       00799JOELHO 45 ESGOTO S REFORCADA DN  50     T1700000000000000
P212808484000189001JOELHO 90 ESGOTO S REFORCADA DN  50                                       00800JOELHO 90 ESGOTO S REFORCADA DN  50     T1700000000000000
P212808484000189001JUNCAO SIMPLES ESGOTO S REFORCADA DN  50                                  00801JUNCAO SIMPLES ESGOTO S REFORCADA DN  50T1700000000000000
P212808484000189001LUVA SIMPLES ESGOTO S REFORCADA DN  50                                    00802LUVA SIMPLES ESGOTO S REFORCADA DN  50  T1700000000000000
P212808484000189001TELHA MAXILUX 2.44X0.50M CRISTAL                                          00803TELHA MAXILUX 2.44X0.50M CRISTAL        T1700000000000000
P212808484000189001GRELHA N75 RED RAD P/ CX SIF/RL BR 100                                    00804GRELHA N75 RED RAD P/ CX SIF/RL BR 100  T1700000000000000
P212808484000189001SIFAO FLEX N1 PIA/LAVAT 3/4X1.1/2                                         00805SIFAO FLEX N1 PIA/LAVAT 3/4X1.1/2       T1700000000000000
P212808484000189001SIFAO FLEX N4 PIA AMER 1.1/2X1.1/2                                        00806SIFAO FLEX N4 PIA AMER 1.1/2X1.1/2      T1700000000000000
P212808484000189001CAIXA DESCARGA PLUS AREIA                                                 00807CAIXA DESCARGA PLUS AREIA               T1700000000000000
P212808484000189001ASSENTO SANIT.FOFINHO PLUS AREIA                                          00808ASSENTO SANIT.FOFINHO PLUS AREIA        T1700000000000000
P212808484000189001MASSA PVA HIDRACOR SC 15 KG                                               00809MASSA PVA HIDRACOR SC 15 KG             T1700000000000000
P212808484000189001CHAPA MAXILUX 2.44X0.50M VERDE                                            00810CHAPA MAXILUX 2.44X0.50M VERDE          T1700000000000000
P212808484000189001TELHA ONDULADA 8MM 1,53X1,10M                                             00811TELHA ONDULADA 8MM 1,53X1,10M           T1700000000000000
P212808484000189001TELHA ONDULADA 8MM 1,83X1,10M                                             00812TELHA ONDULADA 8MM 1,83X1,10M           T1700000000000000
P212808484000189001HTELHA 4X3,6 CERAMICA                                                     00813HTELHA 4X3,6 CERAMICA                   T1700000000000000
P212808484000189001TEXTURAX BRANCO 18L                                                       00814TEXTURAX BRANCO 18L                     T1700000000000000
P212808484000189001TEXTURAX FLAMINGO 18L                                                     00815TEXTURAX FLAMINGO 18L                   T1700000000000000
P212808484000189001TEXTURAX OCRE COLONIAL 18L                                                00816TEXTURAX OCRE COLONIAL 18L              T1700000000000000
P212808484000189001TEXTURAX AMARELO FLORAL 18L                                               00817TEXTURAX AMARELO FLORAL 18L             T1700000000000000
P212808484000189001TEXTURAX GERANIO 18L                                                      00818TEXTURAX GERANIO 18L                    T1700000000000000
P212808484000189001TEXTURAX VERDE KIWI 18L                                                   00819TEXTURAX VERDE KIWI 18L                 T1700000000000000
P212808484000189001REJUNTE DO MESTRE BRANCO FRD 40X1                                         00820REJUNTE DO MESTRE BRANCO FRD 40X1       T1700000000000000
P212808484000189001REJUNTE DO MESTRE PRETO FRD 40X1                                          00821REJUNTE DO MESTRE PRETO FRD 40X1        T1700000000000000
P212808484000189001REJUNTE DO MESTRE CINZA 40X1                                              00822REJUNTE DO MESTRE CINZA 40X1            T1700000000000000
P212808484000189001REJUNTE DO MESTRE GRAFITE 40X1                                            00823REJUNTE DO MESTRE GRAFITE 40X1          T1700000000000000
P212808484000189001CAIXA PLASTICA AGUAFLEX  500 L C/TP                                       00824CAIXA PLASTICA AGUAFLEX  500 L C/TP     T1700000000000000
P212808484000189001TUBO SOLDAVEL MAX 20MM                                                    00825TUBO SOLDAVEL MAX 20MM                  T1700000000000000
P212808484000189001TUBO SOLDAVEL MAX 32MM                                                    00826TUBO SOLDAVEL MAX 32MM                  T1700000000000000
P212808484000189001TUBO SOLDAVEL MAX 25MM                                                    00827TUBO SOLDAVEL MAX 25MM                  T1700000000000000
P212808484000189001TELA ALAMBRADO 2.7MM 15X05CM 1.2X25M                                      00828TELA ALAMBRADO 2.7MM 15X05CM 1.2X25M    T1700000000000000
P212808484000189001PISO CER. 30X30 TURIN CINZA A                                             00829PISO CER. 30X30 TURIN CINZA A           T1700000000000000
P212808484000189001PISO CER. 30X30 TURIN CORAL A                                             00830PISO CER. 30X30 TURIN CORAL A           T1700000000000000
P212808484000189001HIDRAFORT SALMAO                                                          00831HIDRAFORT SALMAO                        T1700000000000000
