00100000         2070682380001060032762340014       0023210000000700002 TREVO DISTRIBUIDORA DE MATERIABANCO DO BRASIL                         22910202101221800031003000000031393860PROCESSAMEN                                                 
00100011T0100020 20070682380001060032762340014       0023210000000700002 TREVO DISTRIBUIDORA DE MATERIA                                                                                000000002910202100000000  000000000                      
0010001300001T 020023210000000700002 32762340005195723   75195723        091120210000000001582020010241395195723                  0900000000000010000000000000000000000000000000000000000   0000000000000000000000000A9        170193276234     
0010001300002U 020000000000000000000000000000000000000000000000000000000000000000000000000000000000000000000000000000000000000000000000002910202100000000            000000000000000                              000                           
0010001300003T 020023210000000700002 32762340052348001   752348001       2811202100000000014122500100673452348001                 0900000000000010000000000000000000000000000000000000000   0000000000000000000000000A9        170193276234     
0010001300004U 020000000000000000000000000000000000000000000000000000000000000000000000000000000000000000000000000000000000000000000000002910202100000000            000000000000000                              000                           
0010001300005T 020023210000000700002 32762340052348002   752348002       1312202100000000014122500100673452348002                 0900000000000010000000000000000000000000000000000000000   0000000000000000000000000A9        170193276234     
0010001300006U 020000000000000000000000000000000000000000000000000000000000000000000000000000000000000000000000000000000000000000000000002910202100000000            000000000000000                              000                           
0010001300007T 020023210000000700002 32762340052348003   752348003       2812202100000000014122500100673452348003                 0900000000000010000000000000000000000000000000000000000   0000000000000000000000000A9        170193276234     
0010001300008U 020000000000000000000000000000000000000000000000000000000000000000000000000000000000000000000000000000000000000000000000002910202100000000            000000000000000                              000                           
0010001300009T 020023210000000700002 32762340052348101   752348101       2811202100000000008150000102369852348101                 0900000000000010000000000000000000000000000000000000000   0000000000000000000000000A9        170193276234     
0010001300010U 020000000000000000000000000000000000000000000000000000000000000000000000000000000000000000000000000000000000000000000000002910202100000000            000000000000000                              000                           
0010001300011T 020023210000000700002 32762340052348102   752348102       1312202100000000008150000102369852348102                 0900000000000010000000000000000000000000000000000000000   0000000000000000000000000A9        170193276234     
0010001300012U 020000000000000000000000000000000000000000000000000000000000000000000000000000000000000000000000000000000000000000000000002910202100000000            000000000000000                              000                           
0010001300013T 020023210000000700002 32762340052348103   752348103       2812202100000000008150000102369852348103                 0900000000000010000000000000000000000000000000000000000   0000000000000000000000000A9        170193276234     
0010001300014U 020000000000000000000000000000000000000000000000000000000000000000000000000000000000000000000000000000000000000000000000002910202100000000            000000000000000                              000                           
0010001300015T 020023210000000700002 32762340052348601   752348601       1811202100000000008861500102369852348601                 0900000000000010000000000000000000000000000000000000000   0000000000000000000000000A9        170193276234     
0010001300016U 020000000000000000000000000000000000000000000000000000000000000000000000000000000000000000000000000000000000000000000000002910202100000000            000000000000000                              000                           
0010001300017T 020023210000000700002 32762340052348602   752348602       0812202100000000008861500102369852348602                 0900000000000010000000000000000000000000000000000000000   0000000000000000000000000A9        170193276234     
0010001300018U 020000000000000000000000000000000000000000000000000000000000000000000000000000000000000000000000000000000000000000000000002910202100000000            000000000000000                              000                           
0010001300019T 020023210000000700002 32762340052348901   752348901       1311202100000000067200000100582752348901                 0900000000000010000000000000000000000000000000000000000   0000000000000000000000000A9        170193276234     
0010001300020U 020000000000000000000000000000000000000000000000000000000000000000000000000000000000000000000000000000000000000000000000002910202100000000            000000000000000                              000                           
0010001300021T 020023210000000700002 32762340052349101   752349101       2811202100000000008669000101153352349101                 0900000000000010000000000000000000000000000000000000000   0000000000000000000000000A9        170193276234     
0010001300022U 020000000000000000000000000000000000000000000000000000000000000000000000000000000000000000000000000000000000000000000000002910202100000000            000000000000000                              000                           
0010001300023T 020023210000000700002 32762340052349201   752349201       2811202100000000053811700100711052349201                 0900000000000010000000000000000000000000000000000000000   0000000000000000000000000A9        170193276234     
0010001300024U 020000000000000000000000000000000000000000000000000000000000000000000000000000000000000000000000000000000000000000000000002910202100000000            000000000000000                              000                           
0010001300025T 020023210000000700002 32762340052349202   752349202       1312202100000000053811700100711052349202                 0900000000000010000000000000000000000000000000000000000   0000000000000000000000000A9        170193276234     
0010001300026U 020000000000000000000000000000000000000000000000000000000000000000000000000000000000000000000000000000000000000000000000002910202100000000            000000000000000                              000                           
0010001300027T 020023210000000700002 32762340052349203   752349203       2812202100000000053811700100711052349203                 0900000000000010000000000000000000000000000000000000000   0000000000000000000000000A9        170193276234     
0010001300028U 020000000000000000000000000000000000000000000000000000000000000000000000000000000000000000000000000000000000000000000000002910202100000000            000000000000000                              000                           
0010001300029T 020023210000000700002 32762340052349401   752349401       2811202100000000008180000100711052349401                 0900000000000010000000000000000000000000000000000000000   0000000000000000000000000A9        170193276234     
0010001300030U 020000000000000000000000000000000000000000000000000000000000000000000000000000000000000000000000000000000000000000000000002910202100000000            000000000000000                              000                           
0010001300031T 020023210000000700002 32762340052349402   752349402       1312202100000000008180000100711052349402                 0900000000000010000000000000000000000000000000000000000   0000000000000000000000000A9        170193276234     
0010001300032U 020000000000000000000000000000000000000000000000000000000000000000000000000000000000000000000000000000000000000000000000002910202100000000            000000000000000                              000                           
0010001300033T 020023210000000700002 32762340052349403   752349403       2812202100000000008180000100711052349403                 0900000000000010000000000000000000000000000000000000000   0000000000000000000000000A9        170193276234     
0010001300034U 020000000000000000000000000000000000000000000000000000000000000000000000000000000000000000000000000000000000000000000000002910202100000000            000000000000000                              000                           
0010001300035T 020023210000000700002 32762340052349701   752349701       2811202100000000013063300100711052349701                 0900000000000010000000000000000000000000000000000000000   0000000000000000000000000A9        170193276234     
0010001300036U 020000000000000000000000000000000000000000000000000000000000000000000000000000000000000000000000000000000000000000000000002910202100000000            000000000000000                              000                           
0010001300037T 020023210000000700002 32762340052349702   752349702       1312202100000000013063300100711052349702                 0900000000000010000000000000000000000000000000000000000   0000000000000000000000000A9        170193276234     
0010001300038U 020000000000000000000000000000000000000000000000000000000000000000000000000000000000000000000000000000000000000000000000002910202100000000            000000000000000                              000                           
0010001300039T 020023210000000700002 32762340052349703   752349703       2812202100000000013063300100711052349703                 0900000000000010000000000000000000000000000000000000000   0000000000000000000000000A9        170193276234     
0010001300040U 020000000000000000000000000000000000000000000000000000000000000000000000000000000000000000000000000000000000000000000000002910202100000000            000000000000000                              000                           
0010001300041T 020023210000000700002 32762340052349801   752349801       1311202100000000024000000100711052349801                 0900000000000010000000000000000000000000000000000000000   0000000000000000000000000A9        170193276234     
0010001300042U 020000000000000000000000000000000000000000000000000000000000000000000000000000000000000000000000000000000000000000000000002910202100000000            000000000000000                              000                           
0010001300043T 020023210000000700002 32762340052349901   752349901       0111202100000000037120000100821452349901                 0900000000000010000000000000000000000000000000000000000   0000000000000000000000000A9        170193276234     
0010001300044U 020000000000000000000000000000000000000000000000000000000000000000000000000000000000000000000000000000000000000000000000002910202100000000            000000000000000                              000                           
0010001300045T 020023210000000700002 32762340052350001   752350001       0111202100000000026313000100711052350001                 0900000000000010000000000000000000000000000000000000000   0000000000000000000000000A9        170193276234     
0010001300046U 020000000000000000000000000000000000000000000000000000000000000000000000000000000000000000000000000000000000000000000000002910202100000000            000000000000000                              000                           
0010001300047T 020023210000000700002 32762340052350101   752350101       1811202100000000010850000100821452350101                 0900000000000010000000000000000000000000000000000000000   0000000000000000000000000A9        170193276234     
0010001300048U 020000000000000000000000000000000000000000000000000000000000000000000000000000000000000000000000000000000000000000000000002910202100000000            000000000000000                              000                           
0010001300049T 020023210000000700002 32762340052350102   752350102       0812202100000000010850000100821452350102                 0900000000000010000000000000000000000000000000000000000   0000000000000000000000000A9        170193276234     
0010001300050U 020000000000000000000000000000000000000000000000000000000000000000000000000000000000000000000000000000000000000000000000002910202100000000            000000000000000                              000                           
0010001300051T 020023210000000700002 32762340052350201   752350201       1811202100000000004870000101153352350201                 0900000000000010000000000000000000000000000000000000000   0000000000000000000000000A9        170193276234     
0010001300052U 020000000000000000000000000000000000000000000000000000000000000000000000000000000000000000000000000000000000000000000000002910202100000000            000000000000000                              000                           
0010001300053T 020023210000000700002 32762340052350202   752350202       0812202100000000004870000101153352350202                 0900000000000010000000000000000000000000000000000000000   0000000000000000000000000A9        170193276234     
0010001300054U 020000000000000000000000000000000000000000000000000000000000000000000000000000000000000000000000000000000000000000000000002910202100000000            000000000000000                              000                           
0010001300055T 020023210000000700002 32762340052350401   752350401       2811202100000000016049000100821452350401                 0900000000000010000000000000000000000000000000000000000   0000000000000000000000000A9        170193276234     
0010001300056U 020000000000000000000000000000000000000000000000000000000000000000000000000000000000000000000000000000000000000000000000002910202100000000            000000000000000                              000                           
0010001300057T 020023210000000700002 32762340052350501   752350501       1811202100000000006500000100711052350501                 0900000000000010000000000000000000000000000000000000000   0000000000000000000000000A9        170193276234     
0010001300058U 020000000000000000000000000000000000000000000000000000000000000000000000000000000000000000000000000000000000000000000000002910202100000000            000000000000000                              000                           
0010001300059T 020023210000000700002 32762340052350502   752350502       0812202100000000006500000100711052350502                 0900000000000010000000000000000000000000000000000000000   0000000000000000000000000A9        170193276234     
0010001300060U 020000000000000000000000000000000000000000000000000000000000000000000000000000000000000000000000000000000000000000000000002910202100000000            000000000000000                              000                           
0010001300061T 020023210000000700002 32762340052350601   752350601       2811202100000000015985300100821452350601                 0900000000000010500000000000000000000000000000000000000   0000000000000000000000000A9A4      170193276234     
0010001300062U 020000000000000000000000000000000000000000000000000000000000000000000000000000000000000000000000000000000000000000000000002910202100000000            000000000000000                              000                           
0010001300063T 020023210000000700002 32762340052350602   752350602       1312202100000000015985300100821452350602                 0900000000000010500000000000000000000000000000000000000   0000000000000000000000000A9A4      170193276234     
0010001300064U 020000000000000000000000000000000000000000000000000000000000000000000000000000000000000000000000000000000000000000000000002910202100000000            000000000000000                              000                           
0010001300065T 020023210000000700002 32762340052350603   752350603       2812202100000000015985300100821452350603                 0900000000000010500000000000000000000000000000000000000   0000000000000000000000000A9A4      170193276234     
0010001300066U 020000000000000000000000000000000000000000000000000000000000000000000000000000000000000000000000000000000000000000000000002910202100000000            000000000000000                              000                           
0010001300067T 020023210000000700002 32762340052350701   752350701       1811202100000000006660000104637X52350701                 0900000000000010500000000000000000000000000000000000000   0000000000000000000000000A9A4      170193276234     
0010001300068U 020000000000000000000000000000000000000000000000000000000000000000000000000000000000000000000000000000000000000000000000002910202100000000            000000000000000                              000                           
0010001300069T 020023210000000700002 32762340052350702   752350702       0812202100000000006660000104637X52350702                 0900000000000010500000000000000000000000000000000000000   0000000000000000000000000A9A4      170193276234     
0010001300070U 020000000000000000000000000000000000000000000000000000000000000000000000000000000000000000000000000000000000000000000000002910202100000000            000000000000000                              000                           
0010001300071T 020023210000000700002 32762340052350801   752350801       2811202100000000011900200101666752350801                 0900000000000010000000000000000000000000000000000000000   0000000000000000000000000A9        170193276234     
0010001300072U 020000000000000000000000000000000000000000000000000000000000000000000000000000000000000000000000000000000000000000000000002910202100000000            000000000000000                              000                           
0010001300073T 020023210000000700002 32762340052350802   752350802       1312202100000000011900200101666752350802                 0900000000000010000000000000000000000000000000000000000   0000000000000000000000000A9        170193276234     
0010001300074U 020000000000000000000000000000000000000000000000000000000000000000000000000000000000000000000000000000000000000000000000002910202100000000            000000000000000                              000                           
0010001300075T 020023210000000700002 32762340052350803   752350803       2812202100000000011900200101666752350803                 0900000000000010000000000000000000000000000000000000000   0000000000000000000000000A9        170193276234     
0010001300076U 020000000000000000000000000000000000000000000000000000000000000000000000000000000000000000000000000000000000000000000000002910202100000000            000000000000000                              000                           
0010001300077T 020023210000000700002 32762340052350901   752350901       2811202100000000007116700100821452350901                 0900000000000010000000000000000000000000000000000000000   0000000000000000000000000A9        170193276234     
0010001300078U 020000000000000000000000000000000000000000000000000000000000000000000000000000000000000000000000000000000000000000000000002910202100000000            000000000000000                              000                           
0010001300079T 020023210000000700002 32762340052350902   752350902       1312202100000000007116700100821452350902                 0900000000000010000000000000000000000000000000000000000   0000000000000000000000000A9        170193276234     
0010001300080U 020000000000000000000000000000000000000000000000000000000000000000000000000000000000000000000000000000000000000000000000002910202100000000            000000000000000                              000                           
0010001300081T 020023210000000700002 32762340052350903   752350903       2812202100000000007116700100821452350903                 0900000000000010000000000000000000000000000000000000000   0000000000000000000000000A9        170193276234     
0010001300082U 020000000000000000000000000000000000000000000000000000000000000000000000000000000000000000000000000000000000000000000000002910202100000000            000000000000000                              000                           
0010001300083T 020023210000000700002 32762340052351101   752351101       1811202100000000009300000100711052351101                 0900000000000010500000000000000000000000000000000000000   0000000000000000000000000A9A4      170193276234     
0010001300084U 020000000000000000000000000000000000000000000000000000000000000000000000000000000000000000000000000000000000000000000000002910202100000000            000000000000000                              000                           
0010001300085T 020023210000000700002 32762340052351102   752351102       0812202100000000009300000100711052351102                 0900000000000010500000000000000000000000000000000000000   0000000000000000000000000A9A4      170193276234     
0010001300086U 020000000000000000000000000000000000000000000000000000000000000000000000000000000000000000000000000000000000000000000000002910202100000000            000000000000000                              000                           
0010001300087T 020023210000000700002 32762340052351201   752351201       2811202100000000034115000101361752351201                 0900000000000010000000000000000000000000000000000000000   0000000000000000000000000A9        170193276234     
0010001300088U 020000000000000000000000000000000000000000000000000000000000000000000000000000000000000000000000000000000000000000000000002910202100000000            000000000000000                              000                           
0010001300089T 020023210000000700002 32762340052351202   752351202       1312202100000000034115000101361752351202                 0900000000000010000000000000000000000000000000000000000   0000000000000000000000000A9        170193276234     
0010001300090U 020000000000000000000000000000000000000000000000000000000000000000000000000000000000000000000000000000000000000000000000002910202100000000            000000000000000                              000                           
0010001300091T 020023210000000700002 32762340052351203   752351203       2812202100000000034115000101361752351203                 0900000000000010000000000000000000000000000000000000000   0000000000000000000000000A9        170193276234     
0010001300092U 020000000000000000000000000000000000000000000000000000000000000000000000000000000000000000000000000000000000000000000000002910202100000000            000000000000000                              000                           
0010001300093T 020023210000000700002 32762340052351301   752351301       2811202100000000011109000100711052351301                 0900000000000010000000000000000000000000000000000000000   0000000000000000000000000A9        170193276234     
0010001300094U 020000000000000000000000000000000000000000000000000000000000000000000000000000000000000000000000000000000000000000000000002910202100000000            000000000000000                              000                           
0010001300095T 020023210000000700002 32762340052351302   752351302       1312202100000000011109000100711052351302                 0900000000000010000000000000000000000000000000000000000   0000000000000000000000000A9        170193276234     
0010001300096U 020000000000000000000000000000000000000000000000000000000000000000000000000000000000000000000000000000000000000000000000002910202100000000            000000000000000                              000                           
0010001300097T 020023210000000700002 32762340052351303   752351303       2812202100000000011109000100711052351303                 0900000000000010000000000000000000000000000000000000000   0000000000000000000000000A9        170193276234     
0010001300098U 020000000000000000000000000000000000000000000000000000000000000000000000000000000000000000000000000000000000000000000000002910202100000000            000000000000000                              000                           
0010001300099T 020023210000000700002 32762340052351901   752351901       2811202100000000007233300100710252351901                 0900000000000010500000000000000000000000000000000000000   0000000000000000000000000A9A4      170193276234     
0010001300100U 020000000000000000000000000000000000000000000000000000000000000000000000000000000000000000000000000000000000000000000000002910202100000000            000000000000000                              000                           
0010001300101T 020023210000000700002 32762340052351902   752351902       1312202100000000007233300100710252351902                 0900000000000010500000000000000000000000000000000000000   0000000000000000000000000A9A4      170193276234     
0010001300102U 020000000000000000000000000000000000000000000000000000000000000000000000000000000000000000000000000000000000000000000000002910202100000000            000000000000000                              000                           
0010001300103T 020023210000000700002 32762340052351903   752351903       2812202100000000007233300100710252351903                 0900000000000010500000000000000000000000000000000000000   0000000000000000000000000A9A4      170193276234     
0010001300104U 020000000000000000000000000000000000000000000000000000000000000000000000000000000000000000000000000000000000000000000000002910202100000000            000000000000000                              000                           
0010001300105T 020023210000000700002 32762340052352001   752352001       0111202100000000007938000100710252352001                 0900000000000010500000000000000000000000000000000000000   0000000000000000000000000A9A4      170193276234     
0010001300106U 020000000000000000000000000000000000000000000000000000000000000000000000000000000000000000000000000000000000000000000000002910202100000000            000000000000000                              000                           
0010001300107T 020023210000000700002 32762340052352301   752352301       2811202100000000008920000100710252352301                 0900000000000010000000000000000000000000000000000000000   0000000000000000000000000A9        170193276234     
0010001300108U 020000000000000000000000000000000000000000000000000000000000000000000000000000000000000000000000000000000000000000000000002910202100000000            000000000000000                              000                           
0010001300109T 020023210000000700002 32762340052352302   752352302       1312202100000000008920000100710252352302                 0900000000000010000000000000000000000000000000000000000   0000000000000000000000000A9        170193276234     
0010001300110U 020000000000000000000000000000000000000000000000000000000000000000000000000000000000000000000000000000000000000000000000002910202100000000            000000000000000                              000                           
0010001300111T 020023210000000700002 32762340052352303   752352303       2812202100000000008920000100710252352303                 0900000000000010000000000000000000000000000000000000000   0000000000000000000000000A9        170193276234     
0010001300112U 020000000000000000000000000000000000000000000000000000000000000000000000000000000000000000000000000000000000000000000000002910202100000000            000000000000000                              000                           
0010001300113T 020023210000000700002 32762340052352401   752352401       2811202100000000007233300103924152352401                 0900000000000010000000000000000000000000000000000000000   0000000000000000000000000A9        170193276234     
0010001300114U 020000000000000000000000000000000000000000000000000000000000000000000000000000000000000000000000000000000000000000000000002910202100000000            000000000000000                              000                           
0010001300115T 020023210000000700002 32762340052352402   752352402       1312202100000000007233300103924152352402                 0900000000000010000000000000000000000000000000000000000   0000000000000000000000000A9        170193276234     
0010001300116U 020000000000000000000000000000000000000000000000000000000000000000000000000000000000000000000000000000000000000000000000002910202100000000            000000000000000                              000                           
0010001300117T 020023210000000700002 32762340052352403   752352403       2812202100000000007233300103924152352403                 0900000000000010000000000000000000000000000000000000000   0000000000000000000000000A9        170193276234     
0010001300118U 020000000000000000000000000000000000000000000000000000000000000000000000000000000000000000000000000000000000000000000000002910202100000000            000000000000000                              000                           
0010001300119T 020023210000000700002 32762340052352501   752352501       2811202100000000007100000100710252352501                 0900000000000010000000000000000000000000000000000000000   0000000000000000000000000A9        170193276234     
0010001300120U 020000000000000000000000000000000000000000000000000000000000000000000000000000000000000000000000000000000000000000000000002910202100000000            000000000000000                              000                           
0010001300121T 020023210000000700002 32762340052352502   752352502       1312202100000000007100000100710252352502                 0900000000000010000000000000000000000000000000000000000   0000000000000000000000000A9        170193276234     
0010001300122U 020000000000000000000000000000000000000000000000000000000000000000000000000000000000000000000000000000000000000000000000002910202100000000            000000000000000                              000                           
0010001300123T 020023210000000700002 32762340052352503   752352503       2812202100000000007100000100710252352503                 0900000000000010000000000000000000000000000000000000000   0000000000000000000000000A9        170193276234     
0010001300124U 020000000000000000000000000000000000000000000000000000000000000000000000000000000000000000000000000000000000000000000000002910202100000000            000000000000000                              000                           
0010001300125T 020023210000000700002 32762340052352601   752352601       2811202100000000010401000100710252352601                 0900000000000010500000000000000000000000000000000000000   0000000000000000000000000A9A4      170193276234     
0010001300126U 020000000000000000000000000000000000000000000000000000000000000000000000000000000000000000000000000000000000000000000000002910202100000000            000000000000000                              000                           
0010001300127T 020023210000000700002 32762340052352602   752352602       1312202100000000010401000100710252352602                 0900000000000010500000000000000000000000000000000000000   0000000000000000000000000A9A4      170193276234     
0010001300128U 020000000000000000000000000000000000000000000000000000000000000000000000000000000000000000000000000000000000000000000000002910202100000000            000000000000000                              000                           
0010001300129T 020023210000000700002 32762340052352603   752352603       2812202100000000010401000100710252352603                 0900000000000010500000000000000000000000000000000000000   0000000000000000000000000A9A4      170193276234     
0010001300130U 020000000000000000000000000000000000000000000000000000000000000000000000000000000000000000000000000000000000000000000000002910202100000000            000000000000000                              000                           
0010001300131T 020023210000000700002 32762340052353101   752353101       2811202100000000012895000101643852353101                 0900000000000010000000000000000000000000000000000000000   0000000000000000000000000A9        170193276234     
0010001300132U 020000000000000000000000000000000000000000000000000000000000000000000000000000000000000000000000000000000000000000000000002910202100000000            000000000000000                              000                           
0010001300133T 020023210000000700002 32762340052353201   752353201       1811202100000000007526500100159752353201                 0900000000000010500000000000000000000000000000000000000   0000000000000000000000000A9A4      170193276234     
0010001300134U 020000000000000000000000000000000000000000000000000000000000000000000000000000000000000000000000000000000000000000000000002910202100000000            000000000000000                              000                           
0010001300135T 020023210000000700002 32762340052353202   752353202       0812202100000000007526500100159752353202                 0900000000000010500000000000000000000000000000000000000   0000000000000000000000000A9A4      170193276234     
0010001300136U 020000000000000000000000000000000000000000000000000000000000000000000000000000000000000000000000000000000000000000000000002910202100000000            000000000000000                              000                           
0010001300137T 020023210000000700002 32762340052353301   752353301       2811202100000000007335000100710252353301                 0900000000000010000000000000000000000000000000000000000   0000000000000000000000000A9        170193276234     
0010001300138U 020000000000000000000000000000000000000000000000000000000000000000000000000000000000000000000000000000000000000000000000002910202100000000            000000000000000                              000                           
0010001300139T 020023210000000700002 32762340052353302   752353302       2812202100000000007335000100710252353302                 0900000000000010000000000000000000000000000000000000000   0000000000000000000000000A9        170193276234     
0010001300140U 020000000000000000000000000000000000000000000000000000000000000000000000000000000000000000000000000000000000000000000000002910202100000000            000000000000000                              000                           
0010001300141T 020023210000000700002 32762340052353401   752353401       2811202100000000038696700100159752353401                 0900000000000010000000000000000000000000000000000000000   0000000000000000000000000A9        170193276234     
0010001300142U 020000000000000000000000000000000000000000000000000000000000000000000000000000000000000000000000000000000000000000000000002910202100000000            000000000000000                              000                           
0010001300143T 020023210000000700002 32762340052353402   752353402       1312202100000000038696700100159752353402                 0900000000000010000000000000000000000000000000000000000   0000000000000000000000000A9        170193276234     
0010001300144U 020000000000000000000000000000000000000000000000000000000000000000000000000000000000000000000000000000000000000000000000002910202100000000            000000000000000                              000                           
0010001300145T 020023210000000700002 32762340052353403   752353403       2812202100000000038696700100159752353403                 0900000000000010000000000000000000000000000000000000000   0000000000000000000000000A9        170193276234     
0010001300146U 020000000000000000000000000000000000000000000000000000000000000000000000000000000000000000000000000000000000000000000000002910202100000000            000000000000000                              000                           
0010001300147T 020023210000000700002 32762340052353501   752353501       2811202100000000006590800101650052353501                 0900000000000010000000000000000000000000000000000000000   0000000000000000000000000A9        170193276234     
0010001300148U 020000000000000000000000000000000000000000000000000000000000000000000000000000000000000000000000000000000000000000000000002910202100000000            000000000000000                              000                           
0010001300149T 020023210000000700002 32762340052353502   752353502       1312202100000000006590800101650052353502                 0900000000000010000000000000000000000000000000000000000   0000000000000000000000000A9        170193276234     
0010001300150U 020000000000000000000000000000000000000000000000000000000000000000000000000000000000000000000000000000000000000000000000002910202100000000            000000000000000                              000                           
0010001300151T 020023210000000700002 32762340052353503   752353503       2812202100000000006590800101650052353503                 0900000000000010000000000000000000000000000000000000000   0000000000000000000000000A9        170193276234     
0010001300152U 020000000000000000000000000000000000000000000000000000000000000000000000000000000000000000000000000000000000000000000000002910202100000000            000000000000000                              000                           
0010001300153T 020023210000000700002 32762340052353601   752353601       2811202100000000009795700101650052353601                 0900000000000010000000000000000000000000000000000000000   0000000000000000000000000A9        170193276234     
0010001300154U 020000000000000000000000000000000000000000000000000000000000000000000000000000000000000000000000000000000000000000000000002910202100000000            000000000000000                              000                           
0010001300155T 020023210000000700002 32762340052353602   752353602       1312202100000000009795700101650052353602                 0900000000000010000000000000000000000000000000000000000   0000000000000000000000000A9        170193276234     
0010001300156U 020000000000000000000000000000000000000000000000000000000000000000000000000000000000000000000000000000000000000000000000002910202100000000            000000000000000                              000                           
0010001300157T 020023210000000700002 32762340052353603   752353603       2812202100000000009795700101650052353603                 0900000000000010000000000000000000000000000000000000000   0000000000000000000000000A9        170193276234     
0010001300158U 020000000000000000000000000000000000000000000000000000000000000000000000000000000000000000000000000000000000000000000000002910202100000000            000000000000000                              000                           
0010001300159T 020023210000000700002 32762340052353801   752353801       2811202100000000005400000102669752353801                 0900000000000010000000000000000000000000000000000000000   0000000000000000000000000A9        170193276234     
0010001300160U 020000000000000000000000000000000000000000000000000000000000000000000000000000000000000000000000000000000000000000000000002910202100000000            000000000000000                              000                           
0010001300161T 020023210000000700002 32762340052354501   752354501       1311202100000000012000000102413952354501                 0900000000000010000000000000000000000000000000000000000   0000000000000000000000000A9        170193276234     
0010001300162U 020000000000000000000000000000000000000000000000000000000000000000000000000000000000000000000000000000000000000000000000002910202100000000            000000000000000                              000                           
0010001300163T 020023210000000700002 32762340052354701   752354701       1811202100000000008656000102257852354701                 0900000000000010000000000000000000000000000000000000000   0000000000000000000000000A9        170193276234     
0010001300164U 020000000000000000000000000000000000000000000000000000000000000000000000000000000000000000000000000000000000000000000000002910202100000000            000000000000000                              000                           
0010001300165T 020023210000000700002 32762340052354702   752354702       0812202100000000008656000102257852354702                 0900000000000010000000000000000000000000000000000000000   0000000000000000000000000A9        170193276234     
0010001300166U 020000000000000000000000000000000000000000000000000000000000000000000000000000000000000000000000000000000000000000000000002910202100000000            000000000000000                              000                           
0010001300167T 020023210000000700002 32762340052354801   752354801       1311202100000000024000000102257852354801                 0900000000000010000000000000000000000000000000000000000   0000000000000000000000000A9        170193276234     
0010001300168U 020000000000000000000000000000000000000000000000000000000000000000000000000000000000000000000000000000000000000000000000002910202100000000            000000000000000                              000                           
0010001300169T 020023210000000700002 32762340052355201   752355201       2811202100000000015894200100446452355201                 0900000000000010000000000000000000000000000000000000000   0000000000000000000000000A9        170193276234     
0010001300170U 020000000000000000000000000000000000000000000000000000000000000000000000000000000000000000000000000000000000000000000000002910202100000000            000000000000000                              000                           
0010001300171T 020023210000000700002 32762340052355202   752355202       1312202100000000015894200100446452355202                 0900000000000010000000000000000000000000000000000000000   0000000000000000000000000A9        170193276234     
0010001300172U 020000000000000000000000000000000000000000000000000000000000000000000000000000000000000000000000000000000000000000000000002910202100000000            000000000000000                              000                           
0010001300173T 020023210000000700002 32762340052355203   752355203       2812202100000000015894200100446452355203                 0900000000000010000000000000000000000000000000000000000   0000000000000000000000000A9        170193276234     
0010001300174U 020000000000000000000000000000000000000000000000000000000000000000000000000000000000000000000000000000000000000000000000002910202100000000            000000000000000                              000                           
0010001300175T 020023210000000700002 32762340052355301   752355301       2811202100000000005325000102413952355301                 0900000000000010000000000000000000000000000000000000000   0000000000000000000000000A9        170193276234     
0010001300176U 020000000000000000000000000000000000000000000000000000000000000000000000000000000000000000000000000000000000000000000000002910202100000000            000000000000000                              000                           
0010001300177T 020023210000000700002 32762340052355501   752355501       2811202100000000005908000100232152355501                 0900000000000010000000000000000000000000000000000000000   0000000000000000000000000A9        170193276234     
0010001300178U 020000000000000000000000000000000000000000000000000000000000000000000000000000000000000000000000000000000000000000000000002910202100000000            000000000000000                              000                           
0010001300179T 020023210000000700002 32762340052355601   752355601       2811202100000000003353000102802952355601                 0900000000000010000000000000000000000000000000000000000   0000000000000000000000000A9        170193276234     
0010001300180U 020000000000000000000000000000000000000000000000000000000000000000000000000000000000000000000000000000000000000000000000002910202100000000            000000000000000                              000                           
0010001300181T 020023210000000700002 32762340052356701   752356701       1311202100000000003600000102413952356701                 0900000000000010000000000000000000000000000000000000000   0000000000000000000000000A9        170193276234     
0010001300182U 020000000000000000000000000000000000000000000000000000000000000000000000000000000000000000000000000000000000000000000000002910202100000000            000000000000000                              000                           
0010001300183T 020023210000000700002 32762340052357013   752357013       2611202100000000007592000102388452357013                 0900000000000010000000000000000000000000000000000000000   0000000000000000000000000A9        170193276234     
0010001300184U 020000000000000000000000000000000000000000000000000000000000000000000000000000000000000000000000000000000000000000000000002910202100000000            000000000000000                              000                           
0010001300185T 020023210000000700002 32762340052357023   752357023       1112202100000000007592000102388452357023                 0900000000000010000000000000000000000000000000000000000   0000000000000000000000000A9        170193276234     
0010001300186U 020000000000000000000000000000000000000000000000000000000000000000000000000000000000000000000000000000000000000000000000002910202100000000            000000000000000                              000                           
0010001300187T 020023210000000700002 32762340052357033   752357033       2612202100000000007592000102388452357033                 0900000000000010000000000000000000000000000000000000000   0000000000000000000000000A9        170193276234     
0010001300188U 020000000000000000000000000000000000000000000000000000000000000000000000000000000000000000000000000000000000000000000000002910202100000000            000000000000000                              000                           
0010001300189T 020023210000000700002 32762340052358401   752358401       2811202100000000012247500101650052358401                 0900000000000010000000000000000000000000000000000000000   0000000000000000000000000A9        170193276234     
0010001300190U 020000000000000000000000000000000000000000000000000000000000000000000000000000000000000000000000000000000000000000000000002910202100000000            000000000000000                              000                           
0010001300191T 020023210000000700002 32762340052358402   752358402       2812202100000000012247500101650052358402                 0900000000000010000000000000000000000000000000000000000   0000000000000000000000000A9        170193276234     
0010001300192U 020000000000000000000000000000000000000000000000000000000000000000000000000000000000000000000000000000000000000000000000002910202100000000            000000000000000                              000                           
0010001300193T 020023210000000700002 32762340052358701   752358701       2811202100000000008950000100232152358701                 0900000000000010000000000000000000000000000000000000000   0000000000000000000000000A9        170193276234     
0010001300194U 020000000000000000000000000000000000000000000000000000000000000000000000000000000000000000000000000000000000000000000000002910202100000000            000000000000000                              000                           
0010001300195T 020023210000000700002 32762340052359701   752359701       2811202100000000010008000101650052359701                 0900000000000010000000000000000000000000000000000000000   0000000000000000000000000A9        170193276234     
0010001300196U 020000000000000000000000000000000000000000000000000000000000000000000000000000000000000000000000000000000000000000000000002910202100000000            000000000000000                              000                           
0010001300197T 060023210000000700002 32762340051856203   751856203       2510202100000000009455300101264551856203                 0900000000000010070000000000000000000000000000000000000   000000000000000000000008031        170193276234     
0010001300198U 060000000000005680000000000000000000000000000000000000000000000000000000951210000000000951210000000000000000000000000000002910202101112021            000000000000000                              000                           
0010001300199T 060023210000000700002 32762340051868103   751868103       2610202100000000004580000101120751868103                 0900000000000010060000000000000000000000000000000000000   000000000000000000000008033        170193276234     
0010001300200U 060000000000002070000000000000000000000000000000000000000000000000000000460070000000000460070000000000000000000000000000002910202101112021            000000000000000                              000                           
0010001300201T 060023210000000700002 32762340051873103   751873103       2910202100000000007886734109324051873103                 0900000000000010100000000000000000000000000000000000000   000000000000000000000008004        170193276234     
0010001300202U 060000000000000000000000000000000000000000000000000000000000000000000000788670000000000788670000000000000000000000000000002910202101112021            000000000000000                              000                           
0010001300203T 060023210000000700002 32762340051873603   751873603       2910202100000000014597310400049051873603                 0900000000000010100000000000000000000000000000000000000   000000000000000000000008004        170193276234     
0010001300204U 060000000000000000000000000000000000000000000000000000000000000000000001459730000000001459730000000000000000000000000000002910202101112021            000000000000000                              000                           
0010001300205T 060023210000000700002 32762340051874203   751874203       2910202100000000012026723702295051874203                 0900000000000010100000000000000000000000000000000000000   000000000000000000000008004        170193276234     
0010001300206U 060000000000000000000000000000000000000000000000000000000000000000000001202670000000001202670000000000000000000000000000002910202101112021            000000000000000                              000                           
0010001300207T 060023210000000700002 32762340051875303   751875303       2910202100000000008881010401038051875303                 0900000000000010100000000000000000000000000000000000000   000000000000000000000008004        170193276234     
0010001300208U 060000000000000000000000000000000000000000000000000000000000000000000000888100000000000888100000000000000000000000000000002910202101112021            000000000000000                              000                           
0010001300209T 060023210000000700002 32762340051875603   751875603       2910202100000000006998010401038051875603                 0900000000000010100000000000000000000000000000000000000   000000000000000000000008004        170193276234     
0010001300210U 060000000000000000000000000000000000000000000000000000000000000000000000699800000000000699800000000000000000000000000000002910202101112021            000000000000000                              000                           
0010001300211T 060023210000000700002 32762340051878203   751878203       2910202100000000006806723700659051878203                 0900000000000010100000000000000000000000000000000000000   000000000000000000000008004        170193276234     
0010001300212U 060000000000000000000000000000000000000000000000000000000000000000000000680670000000000680670000000000000000000000000000002910202101112021            000000000000000                              000                           
0010001300213T 060023210000000700002 32762340051878303   751878303       2910202100000000007433300100710251878303                 0900000000000010040000000000000000000000000000000000000   000000000000000000000008034        170193276234     
0010001300214U 060000000000000000000000000000000000000000000000000000000000000000000000743330000000000743330000000000000000000000000000002910202101112021            000000000000000                              000                           
0010001300215T 060023210000000700002 32762340051887103   751887103       3010202100000000008820010400923051887103                 0900000000000010100000000000000000000000000000000000000   000000000000000000000008004        170193276234     
0010001300216U 060000000000000000000000000000000000000000000000000000000000000000000000882000000000000882000000000000000000000000000000002910202101112021            000000000000000                              000                           
0010001300217T 060023210000000700002 32762340051889303   751889303       3010202100000000006750010400052051889303                 0900000000000010100000000000000000000000000000000000000   000000000000000000000008004        170193276234     
0010001300218U 060000000000000000000000000000000000000000000000000000000000000000000000675000000000000675000000000000000000000000000000002910202101112021            000000000000000                              000                           
0010001300219T 060023210000000700002 32762340051889903   751889903       3010202100000000006680000102529151889903                 0900000000000010080000000000000000000000000000000000000   000000000000000000000008003        170193276234     
0010001300220U 060000000000000000000000000000000000000000000000000000000000000000000000668000000000000668000000000000000000000000000000002910202101112021            000000000000000                              000                           
0010001300221T 060023210000000700002 32762340051945102   751945102       2310202100000000028118310402446051945102                 0900000000000010100000000000000000000000000000000000000   000000000000000000000008004        170193276234     
0010001300222U 060000000000025320000000000000000000000000000000000000000000000000000002837150000000002837150000000000000000000000000000002910202101112021            000000000000000                              000                           
0010001300223T 060023210000000700002 32762340051950402   751950402       2410202100000000007070010400876051950402                 0900000000000010100000000000000000000000000000000000000   000000000000000000000008004        170193276234     
0010001300224U 060000000000005300000000000000000000000000000000000000000000000000000000712300000000000712300000000000000000000000000000002910202101112021            000000000000000                              000                           
0010001300225T 060023210000000700002 32762340051972402   751972402       2510202100000000008668203304067051972402                 0900000000000010100000000000000000000000000000000000000   000000000000000000000008004        170193276234     
0010001300226U 060000000000005200000000000000000000000000000000000000000000000000000000872020000000000872020000000000000000000000000000002910202101112021            000000000000000                              000                           
0010001300227T 060023210000000700002 32762340051977502   751977502       2810202100000000007665734106515051977502                 0900000000000010100000000000000000000000000000000000000   000000000000000000000008004        170193276234     
0010001300228U 060000000000001150000000000000000000000000000000000000000000000000000000767720000000000767720000000000000000000000000000002910202101112021            000000000000000                              000                           
0010001300229T 060023210000000700002 32762340051984802   751984802       2910202100000000017504700400272051984802                 0900000000000010100000000000000000000000000000000000000   000000000000000000000008004        170193276234     
0010001300230U 060000000000000000000000000000000000000000000000000000000000000000000001750470000000001750470000000000000000000000000000002910202101112021            000000000000000                              000                           
0010001300231T 060023210000000700002 32762340051985102   751985102       2910202100000000008066710403536051985102                 0900000000000010100000000000000000000000000000000000000   000000000000000000000008004        170193276234     
0010001300232U 060000000000000000000000000000000000000000000000000000000000000000000000806670000000000806670000000000000000000000000000002910202101112021            000000000000000                              000                           
0010001300233T 060023210000000700002 32762340051986002   751986002       2910202100000000007072023702530051986002                 0900000000000010100000000000000000000000000000000000000   000000000000000000000008004        170193276234     
0010001300234U 060000000000000000000000000000000000000000000000000000000000000000000000707200000000000707200000000000000000000000000000002910202101112021            000000000000000                              000                           
0010001300235T 060023210000000700002 32762340051986402   751986402       2910202100000000018876710400559051986402                 0900000000000010100000000000000000000000000000000000000   000000000000000000000008004        170193276234     
0010001300236U 060000000000000000000000000000000000000000000000000000000000000000000001887670000000001887670000000000000000000000000000002910202101112021            000000000000000                              000                           
0010001300237T 060023210000000700002 32762340051986502   751986502       2910202100000000007433310403017051986502                 0900000000000010100000000000000000000000000000000000000   000000000000000000000008004        170193276234     
0010001300238U 060000000000000000000000000000000000000000000000000000000000000000000000743330000000000743330000000000000000000000000000002910202101112021            000000000000000                              000                           
0010001300239T 060023210000000700002 32762340051987002   751987002       2910202100000000007433300102039751987002                 0900000000000010060000000000000000000000000000000000000   000000000000000000000008033        170193276234     
0010001300240U 060000000000000000000000000000000000000000000000000000000000000000000000743330000000000743330000000000000000000000000000002910202101112021            000000000000000                              000                           
0010001300241T 060023210000000700002 32762340051987702   751987702       2910202100000000004200000102257851987702                 0900000000000010040000000000000000000000000000000000000   000000000000000000000008034        170193276234     
0010001300242U 060000000000000000000000000000000000000000000000000000000000000000000000420000000000000420000000000000000000000000000000002910202101112021            000000000000000                              000                           
0010001300243T 060023210000000700002 32762340051988402   751988402       2910202100000000007433323701260051988402                 0900000000000010100000000000000000000000000000000000000   000000000000000000000008004        170193276234     
0010001300244U 060000000000000000000000000000000000000000000000000000000000000000000000743330000000000743330000000000000000000000000000002910202101112021            000000000000000                              000                           
0010001300245T 060023210000000700002 32762340051989102   751989102       2910202100000000006829323700882051989102                 0900000000000010100000000000000000000000000000000000000   000000000000000000000008004        170193276234     
0010001300246U 060000000000000000000000000000000000000000000000000000000000000000000000682930000000000682930000000000000000000000000000002910202101112021            000000000000000                              000                           
0010001300247T 060023210000000700002 32762340051990902   751990902       2910202100000000007831700100232151990902                 0900000000000010060000000000000000000000000000000000000   000000000000000000000008033        170193276234     
0010001300248U 060000000000000000000000000000000000000000000000000000000000000000000000783170000000000783170000000000000000000000000000002910202101112021            000000000000000                              000                           
0010001300249T 060023210000000700002 32762340051998102   751998102       3010202100000000033520700102388451998102                 0900000000000010060000000000000000000000000000000000000   000000000000000000000008033        170193276234     
0010001300250U 060000000000000000000000000000000000000000000000000000000000000000000003352070000000003352070000000000000000000000000000002910202101112021            000000000000000                              000                           
0010001300251T 060023210000000700002 32762340052000502   752000502       3010202100000000007053326000001052000502                 0900000000000010100000000000000000000000000000000000000   000000000000000000000008004        170193276234     
0010001300252U 060000000000000000000000000000000000000000000000000000000000000000000000705330000000000705330000000000000000000000000000002910202101112021            000000000000000                              000                           
0010001300253T 060023210000000700002 32762340052002302   752002302       3010202100000000013901300400050052002302                 0900000000000010100000000000000000000000000000000000000   000000000000000000000008004        170193276234     
0010001300254U 060000000000000000000000000000000000000000000000000000000000000000000001390130000000001390130000000000000000000000000000002910202101112021            000000000000000                              000                           
0010001300255T 060023210000000700002 32762340052007502   752007502       3110202100000000009996775604327052007502                 0900000000000010100000000000000000000000000000000000000   000000000000000000000008004        170193276234     
0010001300256U 060000000000000000000000000000000000000000000000000000000000000000000000999670000000000999670000000000000000000000000000002910202101112021            000000000000000                              000                           
0010001300257T 060023210000000700002 32762340052032902   752032902       3010202100000000007794010400916052032902                 0900000000000010100000000000000000000000000000000000000   000000000000000000000008004        170193276234     
0010001300258U 060000000000000000000000000000000000000000000000000000000000000000000000779400000000000779400000000000000000000000000000002910202101112021            000000000000000                              000                           
0010001300259T 060023210000000700002 32762340052034402   752034402       3010202100000000006225010400648052034402                 0900000000000010100000000000000000000000000000000000000   000000000000000000000008004        170193276234     
0010001300260U 060000000000000000000000000000000000000000000000000000000000000000000000622500000000000622500000000000000000000000000000002910202101112021            000000000000000                              000                           
0010001300261T 060023210000000700002 32762340052034502   752034502       0411202100000000032743334108322052034502                 0900000000000010100000000000000000000000000000000000000   000000000000000000000008004        170193276234     
0010001300262U 060000000000000000000000000000000000000000000000000000000000000000000003274330000000003274330000000000000000000000000000002910202101112021            000000000000000                              000                           
0010001300263T 060023210000000700002 32762340052039602   752039602       3010202100000000006844510402192052039602                 0900000000000010100000000000000000000000000000000000000   000000000000000000000008004        170193276234     
0010001300264U 060000000000000000000000000000000000000000000000000000000000000000000000684450000000000684450000000000000000000000000000002910202101112021            000000000000000                              000                           
0010001300265T 060023210000000700002 32762340052064901   752064901       2310202100000000015910010402446052064901                 0900000000000010100000000000000000000000000000000000000   000000000000000000000008004        170193276234     
0010001300266U 060000000000014340000000000000000000000000000000000000000000000000000001605340000000001605340000000000000000000000000000002910202101112021            000000000000000                              000                           
0010001300267T 060023210000000700002 32762340052078801   752078801       2410202100000000011675334107728052078801                 0900000000000010100000000000000000000000000000000000000   000000000000000000000008004        170193276234     
0010001300268U 060000000000008750000000000000000000000000000000000000000000000000000001176280000000001176280000000000000000000000000000002910202101112021            000000000000000                              000                           
0010001300269T 060023210000000700002 32762340052089801   752089801       2710202100000000009265010400049052089801                 0900000000000010100000000000000000000000000000000000000   000000000000000000000008004        170193276234     
0010001300270U 060000000000002780000000000000000000000000000000000000000000000000000000929280000000000929280000000000000000000000000000002910202101112021            000000000000000                              000                           
0010001300271T 060023210000000700002 32762340052090301   752090301       2710202100000000007072075600375052090301                 0900000000000010100000000000000000000000000000000000000   000000000000000000000008004        170193276234     
0010001300272U 060000000000002120000000000000000000000000000000000000000000000000000000709320000000000709320000000000000000000000000000002910202101112021            000000000000000                              000                           
0010001300273T 060023210000000700002 32762340052095701   752095701       2910202100000000013916800101358752095701                 0900000000000010070000000000000000000000000000000000000   000000000000000000000008031        170193276234     
0010001300274U 060000000000000000000000000000000000000000000000000000000000000000000001391680000000001391680000000000000000000000000000002910202101112021            000000000000000                              000                           
0010001300275T 060023210000000700002 32762340052102201   752102201       2810202100000000029990003301601052102201                 0900000000000010100000000000000000000000000000000000000   000000000000000000000008004        170193276234     
0010001300276U 060000000000004500000000000000000000000000000000000000000000000000000003003500000000003003500000000000000000000000000000002910202101112021            000000000000000                              000                           
0010001300277T 060023210000000700002 32762340052111601   752111601       2910202100000000004740003304066052111601                 0900000000000010100000000000000000000000000000000000000   000000000000000000000008004        170193276234     
0010001300278U 060000000000000000000000000000000000000000000000000000000000000000000000474000000000000474000000000000000000000000000000002910202101112021            000000000000000                              000                           
0010001300279T 060023210000000700002 32762340052112001   752112001       2910202100000000036518500102437652112001                 0900000000000010060000000000000000000000000000000000000   000000000000000000000008033        170193276234     
0010001300280U 060000000000000000000000000000000000000000000000000000000000000000000003651850000000003651850000000000000000000000000000002910202101112021            000000000000000                              000                           
0010001300281T 060023210000000700002 32762340052112301   752112301       2910202100000000013901303304066052112301                 0900000000000010100000000000000000000000000000000000000   000000000000000000000008004        170193276234     
0010001300282U 060000000000000000000000000000000000000000000000000000000000000000000001390130000000001390130000000000000000000000000000002910202101112021            000000000000000                              000                           
0010001300283T 060023210000000700002 32762340052112401   752112401       2910202100000000007600000101146052112401                 0900000000000010060000000000000000000000000000000000000   000000000000000000000008033        170193276234     
0010001300284U 060000000000000000000000000000000000000000000000000000000000000000000000760000000000000760000000000000000000000000000000002910202101112021            000000000000000                              000                           
0010001300285T 060023210000000700002 32762340052114301   752114301       2910202100000000008300003304030052114301                 0900000000000010100000000000000000000000000000000000000   000000000000000000000008004        170193276234     
0010001300286U 060000000000000000000000000000000000000000000000000000000000000000000000830000000000000830000000000000000000000000000000002910202101112021            000000000000000                              000                           
0010001300287T 060023210000000700002 32762340052115601   752115601       2910202100000000007072000101792252115601                 0900000000000010060000000000000000000000000000000000000   000000000000000000000008033        170193276234     
0010001300288U 060000000000000000000000000000000000000000000000000000000000000000000000707200000000000707200000000000000000000000000000002910202101112021            000000000000000                              000                           
0010001300289T 060023210000000700002 32762340052116701   752116701       2910202100000000006829303304024052116701                 0900000000000010100000000000000000000000000000000000000   000000000000000000000008004        170193276234     
0010001300290U 060000000000000000000000000000000000000000000000000000000000000000000000682930000000000682930000000000000000000000000000002910202101112021            000000000000000                              000                           
0010001300291T 060023210000000700002 32762340052116801   752116801       2910202100000000003924010400876052116801                 0900000000000010100000000000000000000000000000000000000   000000000000000000000008004        170193276234     
0010001300292U 060000000000000000000000000000000000000000000000000000000000000000000000392400000000000392400000000000000000000000000000002910202101112021            000000000000000                              000                           
0010001300293T 060023210000000700002 32762340052117401   752117401       2910202100000000008411808100001052117401                 0900000000000010100000000000000000000000000000000000000   000000000000000000000008004        170193276234     
0010001300294U 060000000000000000000000000000000000000000000000000000000000000000000000841180000000000841180000000000000000000000000000002910202101112021            000000000000000                              000                           
0010001300295T 060023210000000700002 32762340052118001   752118001       2910202100000000016425008100001052118001                 0900000000000010100000000000000000000000000000000000000   000000000000000000000008004        170193276234     
0010001300296U 060000000000000000000000000000000000000000000000000000000000000000000001642500000000001642500000000000000000000000000000002910202101112021            000000000000000                              000                           
0010001300297T 060023210000000700002 32762340052118801   752118801       2910202100000000007359500100232152118801                 0900000000000010010000000000000000000000000000000000000   000000000000000000000008032        170193276234     
0010001300298U 060000000000000000000000000000000000000000000000000000000000000000000000735950000000000735950000000000000000000000000000002910202101112021            000000000000000                              000                           
0010001300299T 060023210000000700002 32762340052121201   752121201       2910202100000000008192008100001052121201                 0900000000000010100000000000000000000000000000000000000   000000000000000000000008004        170193276234     
0010001300300U 060000000000000000000000000000000000000000000000000000000000000000000000819200000000000819200000000000000000000000000000002910202101112021            000000000000000                              000                           
0010001300301T 060023210000000700002 32762340052127001   752127001       2910202100000000011750008100001052127001                 0900000000000010100000000000000000000000000000000000000   000000000000000000000008004        170193276234     
0010001300302U 060000000000000000000000000000000000000000000000000000000000000000000001175000000000001175000000000000000000000000000000002910202101112021            000000000000000                              000                           
0010001300303T 060023210000000700002 32762340052127901   752127901       3010202100000000014345000102422852127901                 0900000000000010070000000000000000000000000000000000000   000000000000000000000008031        170193276234     
0010001300304U 060000000000000000000000000000000000000000000000000000000000000000000001434500000000001434500000000000000000000000000000002910202101112021            000000000000000                              000                           
0010001300305T 060023210000000700002 32762340052128201   752128201       3010202100000000022800023702592052128201                 0900000000000010100000000000000000000000000000000000000   000000000000000000000008004        170193276234     
0010001300306U 060000000000000000000000000000000000000000000000000000000000000000000002280000000000002280000000000000000000000000000000002910202101112021            000000000000000                              000                           
0010001300307T 060023210000000700002 32762340052129101   752129101       3010202100000000019390010400923052129101                 0900000000000010100000000000000000000000000000000000000   000000000000000000000008004        170193276234     
0010001300308U 060000000000000000000000000000000000000000000000000000000000000000000001939000000000001939000000000000000000000000000000002910202101112021            000000000000000                              000                           
0010001300309T 060023210000000700002 32762340052129401   752129401       3010202100000000009875010401583052129401                 0900000000000010100000000000000000000000000000000000000   000000000000000000000008004        170193276234     
0010001300310U 060000000000000000000000000000000000000000000000000000000000000000000000987500000000000987500000000000000000000000000000002910202101112021            000000000000000                              000                           
0010001300311T 060023210000000700002 32762340052145701   752145701       0311202100000000003800010402446052145701                 0900000000000010100000000000000000000000000000000000000   000000000000000000000008004        170193276234     
0010001300312U 060000000000000000000000000000000000000000000000000000000000000000000000380000000000000380000000000000000000000000000000002910202101112021            000000000000000                              000                           
0010001300313T 060023210000000700002 32762340052174802   752174802       2011202100000000010234010400916052174802                 0900000000000010100000000000000000000000000000000000000   000000000000000000000008004        170193276234     
0010001300314U 060000000000000000000000000000000000000000000000000000000000000000000001023400000000001023400000000000000000000000000000002910202101112021            000000000000000                              000                           
0010001300315T 060023210000000700002 32762340052213401   752213401       2810202100000000013944007700001052213401                 0900000000000010100000000000000000000000000000000000000   000000000000000000000008004        170193276234     
0010001300316U 060000000000002090000000000000000000000000000000000000000000000000000001396490000000001396490000000000000000000000000000002910202101112021            000000000000000                              000                           
0010001300317T 060023210000000700002 32762340052223001   752223001       2810202100000000019200008100001052223001                 0900000000000010100000000000000000000000000000000000000   000000000000000000000008004        170193276234     
0010001300318U 060000000000002880000000000000000000000000000000000000000000000000000001922880000000001922880000000000000000000000000000002910202101112021            000000000000000                              000                           
0010001300319T 060023210000000700002 32762340052225501   752225501       2910202100000000024000075600375052225501                 0900000000000010100000000000000000000000000000000000000   000000000000000000000008004        170193276234     
0010001300320U 060000000000000000000000000000000000000000000000000000000000000000000002400000000000002400000000000000000000000000000000002910202101112021            000000000000000                              000                           
0010001300321T 060023210000000700002 32762340052226901   752226901       2910202100000000002900000100068X52226901                 0900000000000010040000000000000000000000000000000000000   000000000000000000000008034        170193276234     
0010001300322U 060000000000000000000000000000000000000000000000000000000000000000000000290000000000000290000000000000000000000000000000002910202101112021            000000000000000                              000                           
0010001300323T 060023210000000700002 32762340052236901   752236901       2910202100000000012000008100001052236901                 0900000000000010100000000000000000000000000000000000000   000000000000000000000008004        170193276234     
0010001300324U 060000000000000000000000000000000000000000000000000000000000000000000001200000000000001200000000000000000000000000000000002910202101112021            000000000000000                              000                           
0010001300325T 060023210000000700002 32762340052238501   752238501       3010202100000000002400000400307052238501                 0900000000000010100000000000000000000000000000000000000   000000000000000000000008004        170193276234     
0010001300326U 060000000000000000000000000000000000000000000000000000000000000000000000240000000000000240000000000000000000000000000000002910202101112021            000000000000000                              000                           
0010001300327T 060023210000000700002 32762340052281201   752281201       0511202100000000002520010400053052281201                 0900000000000010100000000000000000000000000000000000000   000000000000000000000008004        170193276234     
0010001300328U 060000000000000000000000000000000000000000000000000000000000000000000000252000000000000252000000000000000000000000000000002910202101112021            000000000000000                              000                           
0010001300329T 060023210000000700002 32762340052325201   752325201       2511202100000000004250410401242052325201                 0900000000000010100000000000000000000000000000000000000   000000000000000000000008004        170193276234     
0010001300330U 060000000000000000000000000000000000000000000000000000000000000000000000425040000000000425040000000000000000000000000000002910202101112021            000000000000000                              000                           
0010001300331T 060023210000000700002 32762340052327501   752327501       3010202100000000017610010401038052327501                 0900000000000010100000000000000000000000000000000000000   000000000000000000000008004        170193276234     
0010001300332U 060000000000000000000000000000000000000000000000000000000000000000000001761000000000001761000000000000000000000000000000002910202101112021            000000000000000                              000                           
0010001300333T 140023210000000700002 32762340052082211   752082211       2910202100000000007350000102802952082211                 0900000000000000000000000000000000000000000000000000000   000000000000000000000000000        170193276234     
0010001300334U 140000000000000000000000000000000000000000000000000000000000000000000000000000000000000000000000000000000000000000000000002910202100000000            000000000000000                              000                           
0010001300335T 030023210000000700002 32762340052348001   752348001       2811202100000000014122500100000 52348001                 0900000000000000000000000000000000000000000000000000000   000000000000000000000000063        170193276234     
0010001300336U 030000000000000000000000000000000000000000000000000000000000000000000000000000000000000000000000000000000000000000000000002910202100000000            000000000000000                              000                           
0010001300337T 030023210000000700002 32762340052348001   752348001       2811202100000000014122500100000 52348001                 0900000000000000000000000000000000000000000000000000000   000000000000000000000000063        170193276234     
0010001300338U 030000000000000000000000000000000000000000000000000000000000000000000000000000000000000000000000000000000000000000000000002910202100000000            000000000000000                              000                           
0010001300339T 030023210000000700002 32762340052348002   752348002       1312202100000000014122500100000 52348002                 0900000000000000000000000000000000000000000000000000000   000000000000000000000000063        170193276234     
0010001300340U 030000000000000000000000000000000000000000000000000000000000000000000000000000000000000000000000000000000000000000000000002910202100000000            000000000000000                              000                           
0010001300341T 030023210000000700002 32762340052348101   752348101       2811202100000000008150000100000 52348101                 0900000000000000000000000000000000000000000000000000000   000000000000000000000000063        170193276234     
0010001300342U 030000000000000000000000000000000000000000000000000000000000000000000000000000000000000000000000000000000000000000000000002910202100000000            000000000000000                              000                           
0010001300343T 030023210000000700002 32762340052348101   752348101       2811202100000000008150000100000 52348101                 0900000000000000000000000000000000000000000000000000000   000000000000000000000000063        170193276234     
0010001300344U 030000000000000000000000000000000000000000000000000000000000000000000000000000000000000000000000000000000000000000000000002910202100000000            000000000000000                              000                           
0010001300345T 030023210000000700002 32762340052348102   752348102       1312202100000000008150000100000 52348102                 0900000000000000000000000000000000000000000000000000000   000000000000000000000000063        170193276234     
0010001300346U 030000000000000000000000000000000000000000000000000000000000000000000000000000000000000000000000000000000000000000000000002910202100000000            000000000000000                              000                           
0010001300347T 030023210000000700002 32762340052348601   752348601       1811202100000000008861500100000 52348601                 0900000000000000000000000000000000000000000000000000000   000000000000000000000000063        170193276234     
0010001300348U 030000000000000000000000000000000000000000000000000000000000000000000000000000000000000000000000000000000000000000000000002910202100000000            000000000000000                              000                           
0010001300349T 030023210000000700002 32762340052349201   752349201       2811202100000000053811700100000 52349201                 0900000000000000000000000000000000000000000000000000000   000000000000000000000000063        170193276234     
0010001300350U 030000000000000000000000000000000000000000000000000000000000000000000000000000000000000000000000000000000000000000000000002910202100000000            000000000000000                              000                           
0010001300351T 030023210000000700002 32762340052349201   752349201       2811202100000000053811700100000 52349201                 0900000000000000000000000000000000000000000000000000000   000000000000000000000000063        170193276234     
0010001300352U 030000000000000000000000000000000000000000000000000000000000000000000000000000000000000000000000000000000000000000000000002910202100000000            000000000000000                              000                           
0010001300353T 030023210000000700002 32762340052349202   752349202       1312202100000000053811700100000 52349202                 0900000000000000000000000000000000000000000000000000000   000000000000000000000000063        170193276234     
0010001300354U 030000000000000000000000000000000000000000000000000000000000000000000000000000000000000000000000000000000000000000000000002910202100000000            000000000000000                              000                           
0010001300355T 030023210000000700002 32762340052349401   752349401       2811202100000000008180000100000 52349401                 0900000000000000000000000000000000000000000000000000000   000000000000000000000000063        170193276234     
0010001300356U 030000000000000000000000000000000000000000000000000000000000000000000000000000000000000000000000000000000000000000000000002910202100000000            000000000000000                              000                           
0010001300357T 030023210000000700002 32762340052349401   752349401       2811202100000000008180000100000 52349401                 0900000000000000000000000000000000000000000000000000000   000000000000000000000000063        170193276234     
0010001300358U 030000000000000000000000000000000000000000000000000000000000000000000000000000000000000000000000000000000000000000000000002910202100000000            000000000000000                              000                           
0010001300359T 030023210000000700002 32762340052349402   752349402       1312202100000000008180000100000 52349402                 0900000000000000000000000000000000000000000000000000000   000000000000000000000000063        170193276234     
0010001300360U 030000000000000000000000000000000000000000000000000000000000000000000000000000000000000000000000000000000000000000000000002910202100000000            000000000000000                              000                           
0010001300361T 030023210000000700002 32762340052349701   752349701       2811202100000000013063300100000 52349701                 0900000000000000000000000000000000000000000000000000000   000000000000000000000000063        170193276234     
0010001300362U 030000000000000000000000000000000000000000000000000000000000000000000000000000000000000000000000000000000000000000000000002910202100000000            000000000000000                              000                           
0010001300363T 030023210000000700002 32762340052349701   752349701       2811202100000000013063300100000 52349701                 0900000000000000000000000000000000000000000000000000000   000000000000000000000000063        170193276234     
0010001300364U 030000000000000000000000000000000000000000000000000000000000000000000000000000000000000000000000000000000000000000000000002910202100000000            000000000000000                              000                           
0010001300365T 030023210000000700002 32762340052349702   752349702       1312202100000000013063300100000 52349702                 0900000000000000000000000000000000000000000000000000000   000000000000000000000000063        170193276234     
0010001300366U 030000000000000000000000000000000000000000000000000000000000000000000000000000000000000000000000000000000000000000000000002910202100000000            000000000000000                              000                           
0010001300367T 030023210000000700002 32762340052350101   752350101       1811202100000000010850000100000 52350101                 0900000000000000000000000000000000000000000000000000000   000000000000000000000000063        170193276234     
0010001300368U 030000000000000000000000000000000000000000000000000000000000000000000000000000000000000000000000000000000000000000000000002910202100000000            000000000000000                              000                           
0010001300369T 030023210000000700002 32762340052350201   752350201       1811202100000000004870000100000 52350201                 0900000000000000000000000000000000000000000000000000000   000000000000000000000000063        170193276234     
0010001300370U 030000000000000000000000000000000000000000000000000000000000000000000000000000000000000000000000000000000000000000000000002910202100000000            000000000000000                              000                           
0010001300371T 030023210000000700002 32762340052350501   752350501       1811202100000000006500000100000 52350501                 0900000000000000000000000000000000000000000000000000000   000000000000000000000000063        170193276234     
0010001300372U 030000000000000000000000000000000000000000000000000000000000000000000000000000000000000000000000000000000000000000000000002910202100000000            000000000000000                              000                           
0010001300373T 030023210000000700002 32762340052350601   752350601       2811202100000000015985300100000 52350601                 0900000000000000000000000000000000000000000000000000000   000000000000000000000000063        170193276234     
0010001300374U 030000000000000000000000000000000000000000000000000000000000000000000000000000000000000000000000000000000000000000000000002910202100000000            000000000000000                              000                           
0010001300375T 030023210000000700002 32762340052350601   752350601       2811202100000000015985300100000 52350601                 0900000000000000000000000000000000000000000000000000000   000000000000000000000000063        170193276234     
0010001300376U 030000000000000000000000000000000000000000000000000000000000000000000000000000000000000000000000000000000000000000000000002910202100000000            000000000000000                              000                           
0010001300377T 030023210000000700002 32762340052350602   752350602       1312202100000000015985300100000 52350602                 0900000000000000000000000000000000000000000000000000000   000000000000000000000000063        170193276234     
0010001300378U 030000000000000000000000000000000000000000000000000000000000000000000000000000000000000000000000000000000000000000000000002910202100000000            000000000000000                              000                           
0010001300379T 030023210000000700002 32762340052350701   752350701       1811202100000000006660000100000 52350701                 0900000000000000000000000000000000000000000000000000000   000000000000000000000000063        170193276234     
0010001300380U 030000000000000000000000000000000000000000000000000000000000000000000000000000000000000000000000000000000000000000000000002910202100000000            000000000000000                              000                           
0010001300381T 030023210000000700002 32762340052350801   752350801       2811202100000000011900200100000 52350801                 0900000000000000000000000000000000000000000000000000000   000000000000000000000000063        170193276234     
0010001300382U 030000000000000000000000000000000000000000000000000000000000000000000000000000000000000000000000000000000000000000000000002910202100000000            000000000000000                              000                           
0010001300383T 030023210000000700002 32762340052350801   752350801       2811202100000000011900200100000 52350801                 0900000000000000000000000000000000000000000000000000000   000000000000000000000000063        170193276234     
0010001300384U 030000000000000000000000000000000000000000000000000000000000000000000000000000000000000000000000000000000000000000000000002910202100000000            000000000000000                              000                           
0010001300385T 030023210000000700002 32762340052350802   752350802       1312202100000000011900200100000 52350802                 0900000000000000000000000000000000000000000000000000000   000000000000000000000000063        170193276234     
0010001300386U 030000000000000000000000000000000000000000000000000000000000000000000000000000000000000000000000000000000000000000000000002910202100000000            000000000000000                              000                           
0010001300387T 030023210000000700002 32762340052350901   752350901       2811202100000000007116700100000 52350901                 0900000000000000000000000000000000000000000000000000000   000000000000000000000000063        170193276234     
0010001300388U 030000000000000000000000000000000000000000000000000000000000000000000000000000000000000000000000000000000000000000000000002910202100000000            000000000000000                              000                           
0010001300389T 030023210000000700002 32762340052350901   752350901       2811202100000000007116700100000 52350901                 0900000000000000000000000000000000000000000000000000000   000000000000000000000000063        170193276234     
0010001300390U 030000000000000000000000000000000000000000000000000000000000000000000000000000000000000000000000000000000000000000000000002910202100000000            000000000000000                              000                           
0010001300391T 030023210000000700002 32762340052350902   752350902       1312202100000000007116700100000 52350902                 0900000000000000000000000000000000000000000000000000000   000000000000000000000000063        170193276234     
0010001300392U 030000000000000000000000000000000000000000000000000000000000000000000000000000000000000000000000000000000000000000000000002910202100000000            000000000000000                              000                           
0010001300393T 030023210000000700002 32762340052351101   752351101       1811202100000000009300000100000 52351101                 0900000000000000000000000000000000000000000000000000000   000000000000000000000000063        170193276234     
0010001300394U 030000000000000000000000000000000000000000000000000000000000000000000000000000000000000000000000000000000000000000000000002910202100000000            000000000000000                              000                           
0010001300395T 030023210000000700002 32762340052351201   752351201       2811202100000000034115000100000 52351201                 0900000000000000000000000000000000000000000000000000000   000000000000000000000000063        170193276234     
0010001300396U 030000000000000000000000000000000000000000000000000000000000000000000000000000000000000000000000000000000000000000000000002910202100000000            000000000000000                              000                           
0010001300397T 030023210000000700002 32762340052351201   752351201       2811202100000000034115000100000 52351201                 0900000000000000000000000000000000000000000000000000000   000000000000000000000000063        170193276234     
0010001300398U 030000000000000000000000000000000000000000000000000000000000000000000000000000000000000000000000000000000000000000000000002910202100000000            000000000000000                              000                           
0010001300399T 030023210000000700002 32762340052351202   752351202       1312202100000000034115000100000 52351202                 0900000000000000000000000000000000000000000000000000000   000000000000000000000000063        170193276234     
0010001300400U 030000000000000000000000000000000000000000000000000000000000000000000000000000000000000000000000000000000000000000000000002910202100000000            000000000000000                              000                           
0010001300401T 030023210000000700002 32762340052351301   752351301       2811202100000000011109000100000 52351301                 0900000000000000000000000000000000000000000000000000000   000000000000000000000000063        170193276234     
0010001300402U 030000000000000000000000000000000000000000000000000000000000000000000000000000000000000000000000000000000000000000000000002910202100000000            000000000000000                              000                           
0010001300403T 030023210000000700002 32762340052351301   752351301       2811202100000000011109000100000 52351301                 0900000000000000000000000000000000000000000000000000000   000000000000000000000000063        170193276234     
0010001300404U 030000000000000000000000000000000000000000000000000000000000000000000000000000000000000000000000000000000000000000000000002910202100000000            000000000000000                              000                           
0010001300405T 030023210000000700002 32762340052351302   752351302       1312202100000000011109000100000 52351302                 0900000000000000000000000000000000000000000000000000000   000000000000000000000000063        170193276234     
0010001300406U 030000000000000000000000000000000000000000000000000000000000000000000000000000000000000000000000000000000000000000000000002910202100000000            000000000000000                              000                           
0010001300407T 030023210000000700002 32762340052351901   752351901       2811202100000000007233300100000 52351901                 0900000000000000000000000000000000000000000000000000000   000000000000000000000000063        170193276234     
0010001300408U 030000000000000000000000000000000000000000000000000000000000000000000000000000000000000000000000000000000000000000000000002910202100000000            000000000000000                              000                           
0010001300409T 030023210000000700002 32762340052351901   752351901       2811202100000000007233300100000 52351901                 0900000000000000000000000000000000000000000000000000000   000000000000000000000000063        170193276234     
0010001300410U 030000000000000000000000000000000000000000000000000000000000000000000000000000000000000000000000000000000000000000000000002910202100000000            000000000000000                              000                           
0010001300411T 030023210000000700002 32762340052351902   752351902       1312202100000000007233300100000 52351902                 0900000000000000000000000000000000000000000000000000000   000000000000000000000000063        170193276234     
0010001300412U 030000000000000000000000000000000000000000000000000000000000000000000000000000000000000000000000000000000000000000000000002910202100000000            000000000000000                              000                           
