00100000         2070682380001060032762340014       0023210000000700002 TREVO DISTRIBUIDORA DE MATERIABANCO DO BRASIL                         22107202101281200024003000000031393860PROCESSAMEN                                                 
00100011T0100020 20070682380001060032762340014       0023210000000700002 TREVO DISTRIBUIDORA DE MATERIA                                                                                000000002107202100000000  000000000                      
0010001300001T 020023210000000700002 32762340051573801   751573801       0908202100000000008025800102335351573801                 0900000000000010500000000000000000000000000000000000000   0000000000000000000000000A9A4      170193276234     
0010001300002U 020000000000000000000000000000000000000000000000000000000000000000000000000000000000000000000000000000000000000000000000002107202100000000            000000000000000                              000                           
0010001300003T 020023210000000700002 32762340051573802   751573802       2908202100000000008025800102335351573802                 0900000000000010500000000000000000000000000000000000000   0000000000000000000000000A9A4      170193276234     
0010001300004U 020000000000000000000000000000000000000000000000000000000000000000000000000000000000000000000000000000000000000000000000002107202100000000            000000000000000                              000                           
0010001300005T 020023210000000700002 32762340051574201   751574201       2008202100000000014113300102473251574201                 0900000000000010000000000000000000000000000000000000000   0000000000000000000000000A9        170193276234     
0010001300006U 020000000000000000000000000000000000000000000000000000000000000000000000000000000000000000000000000000000000000000000000002107202100000000            000000000000000                              000                           
0010001300007T 020023210000000700002 32762340051574202   751574202       0409202100000000014113300102473251574202                 0900000000000010000000000000000000000000000000000000000   0000000000000000000000000A9        170193276234     
0010001300008U 020000000000000000000000000000000000000000000000000000000000000000000000000000000000000000000000000000000000000000000000002107202100000000            000000000000000                              000                           
0010001300009T 020023210000000700002 32762340051574203   751574203       1909202100000000014113300102473251574203                 0900000000000010000000000000000000000000000000000000000   0000000000000000000000000A9        170193276234     
0010001300010U 020000000000000000000000000000000000000000000000000000000000000000000000000000000000000000000000000000000000000000000000002107202100000000            000000000000000                              000                           
0010001300011T 020023210000000700002 32762340051574501   751574501       2008202100000000006901700100922951574501                 0900000000000010000000000000000000000000000000000000000   0000000000000000000000000A9        170193276234     
0010001300012U 020000000000000000000000000000000000000000000000000000000000000000000000000000000000000000000000000000000000000000000000002107202100000000            000000000000000                              000                           
0010001300013T 020023210000000700002 32762340051574502   751574502       0409202100000000006901700100922951574502                 0900000000000010000000000000000000000000000000000000000   0000000000000000000000000A9        170193276234     
0010001300014U 020000000000000000000000000000000000000000000000000000000000000000000000000000000000000000000000000000000000000000000000002107202100000000            000000000000000                              000                           
0010001300015T 020023210000000700002 32762340051574503   751574503       1909202100000000006901700100922951574503                 0900000000000010000000000000000000000000000000000000000   0000000000000000000000000A9        170193276234     
0010001300016U 020000000000000000000000000000000000000000000000000000000000000000000000000000000000000000000000000000000000000000000000002107202100000000            000000000000000                              000                           
0010001300017T 020023210000000700002 32762340051575001   751575001       2008202100000000019150000101837651575001                 0900000000000010000000000000000000000000000000000000000   0000000000000000000000000A9        170193276234     
0010001300018U 020000000000000000000000000000000000000000000000000000000000000000000000000000000000000000000000000000000000000000000000002107202100000000            000000000000000                              000                           
0010001300019T 020023210000000700002 32762340051575002   751575002       0409202100000000019150000101837651575002                 0900000000000010000000000000000000000000000000000000000   0000000000000000000000000A9        170193276234     
0010001300020U 020000000000000000000000000000000000000000000000000000000000000000000000000000000000000000000000000000000000000000000000002107202100000000            000000000000000                              000                           
0010001300021T 020023210000000700002 32762340051575003   751575003       1909202100000000019150000101837651575003                 0900000000000010000000000000000000000000000000000000000   0000000000000000000000000A9        170193276234     
0010001300022U 020000000000000000000000000000000000000000000000000000000000000000000000000000000000000000000000000000000000000000000000002107202100000000            000000000000000                              000                           
0010001300023T 020023210000000700002 32762340051575301   751575301       2008202100000000024093300100714551575301                 0900000000000010000000000000000000000000000000000000000   0000000000000000000000000A9        170193276234     
0010001300024U 020000000000000000000000000000000000000000000000000000000000000000000000000000000000000000000000000000000000000000000000002107202100000000            000000000000000                              000                           
0010001300025T 020023210000000700002 32762340051575302   751575302       0409202100000000024093300100714551575302                 0900000000000010000000000000000000000000000000000000000   0000000000000000000000000A9        170193276234     
0010001300026U 020000000000000000000000000000000000000000000000000000000000000000000000000000000000000000000000000000000000000000000000002107202100000000            000000000000000                              000                           
0010001300027T 020023210000000700002 32762340051575303   751575303       1909202100000000024093300100714551575303                 0900000000000010000000000000000000000000000000000000000   0000000000000000000000000A9        170193276234     
0010001300028U 020000000000000000000000000000000000000000000000000000000000000000000000000000000000000000000000000000000000000000000000002107202100000000            000000000000000                              000                           
0010001300029T 020023210000000700002 32762340051575401   751575401       1008202100000000005565000101710851575401                 0900000000000010000000000000000000000000000000000000000   0000000000000000000000000A9        170193276234     
0010001300030U 020000000000000000000000000000000000000000000000000000000000000000000000000000000000000000000000000000000000000000000000002107202100000000            000000000000000                              000                           
0010001300031T 020023210000000700002 32762340051575402   751575402       3008202100000000005565000101710851575402                 0900000000000010000000000000000000000000000000000000000   0000000000000000000000000A9        170193276234     
0010001300032U 020000000000000000000000000000000000000000000000000000000000000000000000000000000000000000000000000000000000000000000000002107202100000000            000000000000000                              000                           
0010001300033T 020023210000000700002 32762340051575601   751575601       1008202100000000007132500100714551575601                 0900000000000010000000000000000000000000000000000000000   0000000000000000000000000A9        170193276234     
0010001300034U 020000000000000000000000000000000000000000000000000000000000000000000000000000000000000000000000000000000000000000000000002107202100000000            000000000000000                              000                           
0010001300035T 020023210000000700002 32762340051575602   751575602       3008202100000000007132500100714551575602                 0900000000000010000000000000000000000000000000000000000   0000000000000000000000000A9        170193276234     
0010001300036U 020000000000000000000000000000000000000000000000000000000000000000000000000000000000000000000000000000000000000000000000002107202100000000            000000000000000                              000                           
0010001300037T 020023210000000700002 32762340051575701   751575701       1908202100000000009706700101643851575701                 0900000000000010500000000000000000000000000000000000000   0000000000000000000000000A9A4      170193276234     
0010001300038U 020000000000000000000000000000000000000000000000000000000000000000000000000000000000000000000000000000000000000000000000002107202100000000            000000000000000                              000                           
0010001300039T 020023210000000700002 32762340051575702   751575702       0309202100000000009706700101643851575702                 0900000000000010500000000000000000000000000000000000000   0000000000000000000000000A9A4      170193276234     
0010001300040U 020000000000000000000000000000000000000000000000000000000000000000000000000000000000000000000000000000000000000000000000002107202100000000            000000000000000                              000                           
0010001300041T 020023210000000700002 32762340051575703   751575703       1809202100000000009706700101643851575703                 0900000000000010500000000000000000000000000000000000000   0000000000000000000000000A9A4      170193276234     
0010001300042U 020000000000000000000000000000000000000000000000000000000000000000000000000000000000000000000000000000000000000000000000002107202100000000            000000000000000                              000                           
0010001300043T 020023210000000700002 32762340051575801   751575801       2008202100000000010473300100714551575801                 0900000000000010500000000000000000000000000000000000000   0000000000000000000000000A9A4      170193276234     
0010001300044U 020000000000000000000000000000000000000000000000000000000000000000000000000000000000000000000000000000000000000000000000002107202100000000            000000000000000                              000                           
0010001300045T 020023210000000700002 32762340051575802   751575802       0409202100000000010473300100714551575802                 0900000000000010500000000000000000000000000000000000000   0000000000000000000000000A9A4      170193276234     
0010001300046U 020000000000000000000000000000000000000000000000000000000000000000000000000000000000000000000000000000000000000000000000002107202100000000            000000000000000                              000                           
0010001300047T 020023210000000700002 32762340051575803   751575803       1909202100000000010473300100714551575803                 0900000000000010500000000000000000000000000000000000000   0000000000000000000000000A9A4      170193276234     
0010001300048U 020000000000000000000000000000000000000000000000000000000000000000000000000000000000000000000000000000000000000000000000002107202100000000            000000000000000                              000                           
0010001300049T 020023210000000700002 32762340051576001   751576001       2407202100000000012800000101666751576001                 0900000000000010500000000000000000000000000000000000000   0000000000000000000000000A9A4      170193276234     
0010001300050U 020000000000000000000000000000000000000000000000000000000000000000000000000000000000000000000000000000000000000000000000002107202100000000            000000000000000                              000                           
0010001300051T 020023210000000700002 32762340051576201   751576201       2008202100000000007626700102802951576201                 0900000000000010000000000000000000000000000000000000000   0000000000000000000000000A9        170193276234     
0010001300052U 020000000000000000000000000000000000000000000000000000000000000000000000000000000000000000000000000000000000000000000000002107202100000000            000000000000000                              000                           
0010001300053T 020023210000000700002 32762340051576202   751576202       0409202100000000007626700102802951576202                 0900000000000010000000000000000000000000000000000000000   0000000000000000000000000A9        170193276234     
0010001300054U 020000000000000000000000000000000000000000000000000000000000000000000000000000000000000000000000000000000000000000000000002107202100000000            000000000000000                              000                           
0010001300055T 020023210000000700002 32762340051576203   751576203       1909202100000000007626700102802951576203                 0900000000000010000000000000000000000000000000000000000   0000000000000000000000000A9        170193276234     
0010001300056U 020000000000000000000000000000000000000000000000000000000000000000000000000000000000000000000000000000000000000000000000002107202100000000            000000000000000                              000                           
0010001300057T 020023210000000700002 32762340051576401   751576401       2008202100000000013250000102802951576401                 0900000000000010000000000000000000000000000000000000000   0000000000000000000000000A9        170193276234     
0010001300058U 020000000000000000000000000000000000000000000000000000000000000000000000000000000000000000000000000000000000000000000000002107202100000000            000000000000000                              000                           
0010001300059T 020023210000000700002 32762340051576402   751576402       0409202100000000013250000102802951576402                 0900000000000010000000000000000000000000000000000000000   0000000000000000000000000A9        170193276234     
0010001300060U 020000000000000000000000000000000000000000000000000000000000000000000000000000000000000000000000000000000000000000000000002107202100000000            000000000000000                              000                           
0010001300061T 020023210000000700002 32762340051576403   751576403       1909202100000000013250000102802951576403                 0900000000000010000000000000000000000000000000000000000   0000000000000000000000000A9        170193276234     
0010001300062U 020000000000000000000000000000000000000000000000000000000000000000000000000000000000000000000000000000000000000000000000002107202100000000            000000000000000                              000                           
0010001300063T 020023210000000700002 32762340051576501   751576501       1008202100000000004570000102365551576501                 0900000000000010000000000000000000000000000000000000000   0000000000000000000000000A9        170193276234     
0010001300064U 020000000000000000000000000000000000000000000000000000000000000000000000000000000000000000000000000000000000000000000000002107202100000000            000000000000000                              000                           
0010001300065T 020023210000000700002 32762340051576502   751576502       3008202100000000004570000102365551576502                 0900000000000010000000000000000000000000000000000000000   0000000000000000000000000A9        170193276234     
0010001300066U 020000000000000000000000000000000000000000000000000000000000000000000000000000000000000000000000000000000000000000000000002107202100000000            000000000000000                              000                           
0010001300067T 020023210000000700002 32762340051576601   751576601       1008202100000000014865000102365551576601                 0900000000000010000000000000000000000000000000000000000   0000000000000000000000000A9        170193276234     
0010001300068U 020000000000000000000000000000000000000000000000000000000000000000000000000000000000000000000000000000000000000000000000002107202100000000            000000000000000                              000                           
0010001300069T 020023210000000700002 32762340051576602   751576602       3008202100000000014865000102365551576602                 0900000000000010000000000000000000000000000000000000000   0000000000000000000000000A9        170193276234     
0010001300070U 020000000000000000000000000000000000000000000000000000000000000000000000000000000000000000000000000000000000000000000000002107202100000000            000000000000000                              000                           
0010001300071T 020023210000000700002 32762340051576801   751576801       2008202100000000008706700102365551576801                 0900000000000010000000000000000000000000000000000000000   0000000000000000000000000A9        170193276234     
0010001300072U 020000000000000000000000000000000000000000000000000000000000000000000000000000000000000000000000000000000000000000000000002107202100000000            000000000000000                              000                           
0010001300073T 020023210000000700002 32762340051576802   751576802       0409202100000000008706700102365551576802                 0900000000000010000000000000000000000000000000000000000   0000000000000000000000000A9        170193276234     
0010001300074U 020000000000000000000000000000000000000000000000000000000000000000000000000000000000000000000000000000000000000000000000002107202100000000            000000000000000                              000                           
0010001300075T 020023210000000700002 32762340051576803   751576803       1909202100000000008706700102365551576803                 0900000000000010000000000000000000000000000000000000000   0000000000000000000000000A9        170193276234     
0010001300076U 020000000000000000000000000000000000000000000000000000000000000000000000000000000000000000000000000000000000000000000000002107202100000000            000000000000000                              000                           
0010001300077T 020023210000000700002 32762340051577001   751577001       1008202100000000003780000100821451577001                 0900000000000010000000000000000000000000000000000000000   0000000000000000000000000A9        170193276234     
0010001300078U 020000000000000000000000000000000000000000000000000000000000000000000000000000000000000000000000000000000000000000000000002107202100000000            000000000000000                              000                           
0010001300079T 020023210000000700002 32762340051577002   751577002       3008202100000000003780000100821451577002                 0900000000000010000000000000000000000000000000000000000   0000000000000000000000000A9        170193276234     
0010001300080U 020000000000000000000000000000000000000000000000000000000000000000000000000000000000000000000000000000000000000000000000002107202100000000            000000000000000                              000                           
0010001300081T 020023210000000700002 32762340051577201   751577201       2008202100000000028420000100821451577201                 0900000000000010500000000000000000000000000000000000000   0000000000000000000000000A9A4      170193276234     
0010001300082U 020000000000000000000000000000000000000000000000000000000000000000000000000000000000000000000000000000000000000000000000002107202100000000            000000000000000                              000                           
0010001300083T 020023210000000700002 32762340051577202   751577202       0409202100000000028420000100821451577202                 0900000000000010500000000000000000000000000000000000000   0000000000000000000000000A9A4      170193276234     
0010001300084U 020000000000000000000000000000000000000000000000000000000000000000000000000000000000000000000000000000000000000000000000002107202100000000            000000000000000                              000                           
0010001300085T 020023210000000700002 32762340051577203   751577203       1909202100000000028420000100821451577203                 0900000000000010500000000000000000000000000000000000000   0000000000000000000000000A9A4      170193276234     
0010001300086U 020000000000000000000000000000000000000000000000000000000000000000000000000000000000000000000000000000000000000000000000002107202100000000            000000000000000                              000                           
0010001300087T 020023210000000700002 32762340051577601   751577601       1008202100000000004725000101361751577601                 0900000000000010000000000000000000000000000000000000000   0000000000000000000000000A9        170193276234     
0010001300088U 020000000000000000000000000000000000000000000000000000000000000000000000000000000000000000000000000000000000000000000000002107202100000000            000000000000000                              000                           
0010001300089T 020023210000000700002 32762340051577602   751577602       3008202100000000004725000101361751577602                 0900000000000010000000000000000000000000000000000000000   0000000000000000000000000A9        170193276234     
0010001300090U 020000000000000000000000000000000000000000000000000000000000000000000000000000000000000000000000000000000000000000000000002107202100000000            000000000000000                              000                           
0010001300091T 020023210000000700002 32762340051578001   751578001       1008202100000000003881000102125351578001                 0900000000000010000000000000000000000000000000000000000   0000000000000000000000000A9        170193276234     
0010001300092U 020000000000000000000000000000000000000000000000000000000000000000000000000000000000000000000000000000000000000000000000002107202100000000            000000000000000                              000                           
0010001300093T 020023210000000700002 32762340051578002   751578002       3008202100000000003881000102125351578002                 0900000000000010000000000000000000000000000000000000000   0000000000000000000000000A9        170193276234     
0010001300094U 020000000000000000000000000000000000000000000000000000000000000000000000000000000000000000000000000000000000000000000000002107202100000000            000000000000000                              000                           
0010001300095T 020023210000000700002 32762340051578401   751578401       2008202100000000012766700102125351578401                 0900000000000010000000000000000000000000000000000000000   0000000000000000000000000A9        170193276234     
0010001300096U 020000000000000000000000000000000000000000000000000000000000000000000000000000000000000000000000000000000000000000000000002107202100000000            000000000000000                              000                           
0010001300097T 020023210000000700002 32762340051578402   751578402       0409202100000000012766700102125351578402                 0900000000000010000000000000000000000000000000000000000   0000000000000000000000000A9        170193276234     
0010001300098U 020000000000000000000000000000000000000000000000000000000000000000000000000000000000000000000000000000000000000000000000002107202100000000            000000000000000                              000                           
0010001300099T 020023210000000700002 32762340051578403   751578403       1909202100000000012766700102125351578403                 0900000000000010000000000000000000000000000000000000000   0000000000000000000000000A9        170193276234     
0010001300100U 020000000000000000000000000000000000000000000000000000000000000000000000000000000000000000000000000000000000000000000000002107202100000000            000000000000000                              000                           
0010001300101T 020023210000000700002 32762340051578701   751578701       2008202100000000009216700102422851578701                 0900000000000010000000000000000000000000000000000000000   0000000000000000000000000A9        170193276234     
0010001300102U 020000000000000000000000000000000000000000000000000000000000000000000000000000000000000000000000000000000000000000000000002107202100000000            000000000000000                              000                           
0010001300103T 020023210000000700002 32762340051578702   751578702       0409202100000000009216700102422851578702                 0900000000000010000000000000000000000000000000000000000   0000000000000000000000000A9        170193276234     
0010001300104U 020000000000000000000000000000000000000000000000000000000000000000000000000000000000000000000000000000000000000000000000002107202100000000            000000000000000                              000                           
0010001300105T 020023210000000700002 32762340051578703   751578703       1909202100000000009216700102422851578703                 0900000000000010000000000000000000000000000000000000000   0000000000000000000000000A9        170193276234     
0010001300106U 020000000000000000000000000000000000000000000000000000000000000000000000000000000000000000000000000000000000000000000000002107202100000000            000000000000000                              000                           
0010001300107T 020023210000000700002 32762340051578801   751578801       2008202100000000007793300102422851578801                 0900000000000010000000000000000000000000000000000000000   0000000000000000000000000A9        170193276234     
0010001300108U 020000000000000000000000000000000000000000000000000000000000000000000000000000000000000000000000000000000000000000000000002107202100000000            000000000000000                              000                           
0010001300109T 020023210000000700002 32762340051578802   751578802       0409202100000000007793300102422851578802                 0900000000000010000000000000000000000000000000000000000   0000000000000000000000000A9        170193276234     
0010001300110U 020000000000000000000000000000000000000000000000000000000000000000000000000000000000000000000000000000000000000000000000002107202100000000            000000000000000                              000                           
0010001300111T 020023210000000700002 32762340051578803   751578803       1909202100000000007793300102422851578803                 0900000000000010000000000000000000000000000000000000000   0000000000000000000000000A9        170193276234     
0010001300112U 020000000000000000000000000000000000000000000000000000000000000000000000000000000000000000000000000000000000000000000000002107202100000000            000000000000000                              000                           
0010001300113T 020023210000000700002 32762340051579201   751579201       1008202100000000005370000102156351579201                 0900000000000010000000000000000000000000000000000000000   0000000000000000000000000A9        170193276234     
0010001300114U 020000000000000000000000000000000000000000000000000000000000000000000000000000000000000000000000000000000000000000000000002107202100000000            000000000000000                              000                           
0010001300115T 020023210000000700002 32762340051579202   751579202       3008202100000000005370000102156351579202                 0900000000000010000000000000000000000000000000000000000   0000000000000000000000000A9        170193276234     
0010001300116U 020000000000000000000000000000000000000000000000000000000000000000000000000000000000000000000000000000000000000000000000002107202100000000            000000000000000                              000                           
0010001300117T 020023210000000700002 32762340051579401   751579401       2008202100000000013360000102133451579401                 0900000000000010000000000000000000000000000000000000000   0000000000000000000000000A9        170193276234     
0010001300118U 020000000000000000000000000000000000000000000000000000000000000000000000000000000000000000000000000000000000000000000000002107202100000000            000000000000000                              000                           
0010001300119T 020023210000000700002 32762340051579402   751579402       0409202100000000013360000102133451579402                 0900000000000010000000000000000000000000000000000000000   0000000000000000000000000A9        170193276234     
0010001300120U 020000000000000000000000000000000000000000000000000000000000000000000000000000000000000000000000000000000000000000000000002107202100000000            000000000000000                              000                           
0010001300121T 020023210000000700002 32762340051579403   751579403       1909202100000000013360000102133451579403                 0900000000000010000000000000000000000000000000000000000   0000000000000000000000000A9        170193276234     
0010001300122U 020000000000000000000000000000000000000000000000000000000000000000000000000000000000000000000000000000000000000000000000002107202100000000            000000000000000                              000                           
0010001300123T 020023210000000700002 32762340051579601   751579601       2008202100000000011546700102133451579601                 0900000000000010000000000000000000000000000000000000000   0000000000000000000000000A9        170193276234     
0010001300124U 020000000000000000000000000000000000000000000000000000000000000000000000000000000000000000000000000000000000000000000000002107202100000000            000000000000000                              000                           
0010001300125T 020023210000000700002 32762340051579602   751579602       0409202100000000011546700102133451579602                 0900000000000010000000000000000000000000000000000000000   0000000000000000000000000A9        170193276234     
0010001300126U 020000000000000000000000000000000000000000000000000000000000000000000000000000000000000000000000000000000000000000000000002107202100000000            000000000000000                              000                           
0010001300127T 020023210000000700002 32762340051579603   751579603       1909202100000000011546700102133451579603                 0900000000000010000000000000000000000000000000000000000   0000000000000000000000000A9        170193276234     
0010001300128U 020000000000000000000000000000000000000000000000000000000000000000000000000000000000000000000000000000000000000000000000002107202100000000            000000000000000                              000                           
0010001300129T 020023210000000700002 32762340051579701   751579701       1008202100000000008356500101650051579701                 0900000000000010000000000000000000000000000000000000000   0000000000000000000000000A9        170193276234     
0010001300130U 020000000000000000000000000000000000000000000000000000000000000000000000000000000000000000000000000000000000000000000000002107202100000000            000000000000000                              000                           
0010001300131T 020023210000000700002 32762340051579702   751579702       3008202100000000008356500101650051579702                 0900000000000010000000000000000000000000000000000000000   0000000000000000000000000A9        170193276234     
0010001300132U 020000000000000000000000000000000000000000000000000000000000000000000000000000000000000000000000000000000000000000000000002107202100000000            000000000000000                              000                           
0010001300133T 020023210000000700002 32762340051579901   751579901       2008202100000000007186000102257851579901                 0900000000000010000000000000000000000000000000000000000   0000000000000000000000000A9        170193276234     
0010001300134U 020000000000000000000000000000000000000000000000000000000000000000000000000000000000000000000000000000000000000000000000002107202100000000            000000000000000                              000                           
0010001300135T 020023210000000700002 32762340051580301   751580301       2008202100000000002874300102257851580301                 0900000000000010000000000000000000000000000000000000000   0000000000000000000000000A9        170193276234     
0010001300136U 020000000000000000000000000000000000000000000000000000000000000000000000000000000000000000000000000000000000000000000000002107202100000000            000000000000000                              000                           
0010001300137T 020023210000000700002 32762340051580302   751580302       0409202100000000002874300102257851580302                 0900000000000010000000000000000000000000000000000000000   0000000000000000000000000A9        170193276234     
0010001300138U 020000000000000000000000000000000000000000000000000000000000000000000000000000000000000000000000000000000000000000000000002107202100000000            000000000000000                              000                           
0010001300139T 020023210000000700002 32762340051580303   751580303       1909202100000000002874300102257851580303                 0900000000000010000000000000000000000000000000000000000   0000000000000000000000000A9        170193276234     
0010001300140U 020000000000000000000000000000000000000000000000000000000000000000000000000000000000000000000000000000000000000000000000002107202100000000            000000000000000                              000                           
0010001300141T 020023210000000700002 32762340051580901   751580901       2008202100000000009862200101650051580901                 0900000000000010000000000000000000000000000000000000000   0000000000000000000000000A9        170193276234     
0010001300142U 020000000000000000000000000000000000000000000000000000000000000000000000000000000000000000000000000000000000000000000000002107202100000000            000000000000000                              000                           
0010001300143T 020023210000000700002 32762340051580902   751580902       0409202100000000009862200101650051580902                 0900000000000010000000000000000000000000000000000000000   0000000000000000000000000A9        170193276234     
0010001300144U 020000000000000000000000000000000000000000000000000000000000000000000000000000000000000000000000000000000000000000000000002107202100000000            000000000000000                              000                           
0010001300145T 020023210000000700002 32762340051580903   751580903       1909202100000000009862200101650051580903                 0900000000000010000000000000000000000000000000000000000   0000000000000000000000000A9        170193276234     
0010001300146U 020000000000000000000000000000000000000000000000000000000000000000000000000000000000000000000000000000000000000000000000002107202100000000            000000000000000                              000                           
0010001300147T 020023210000000700002 32762340051581501   751581501       2008202100000000002626700100582751581501                 0900000000000010000000000000000000000000000000000000000   0000000000000000000000000A9        170193276234     
0010001300148U 020000000000000000000000000000000000000000000000000000000000000000000000000000000000000000000000000000000000000000000000002107202100000000            000000000000000                              000                           
0010001300149T 020023210000000700002 32762340051581502   751581502       0409202100000000002626700100582751581502                 0900000000000010000000000000000000000000000000000000000   0000000000000000000000000A9        170193276234     
0010001300150U 020000000000000000000000000000000000000000000000000000000000000000000000000000000000000000000000000000000000000000000000002107202100000000            000000000000000                              000                           
0010001300151T 020023210000000700002 32762340051581503   751581503       1909202100000000002626700100582751581503                 0900000000000010000000000000000000000000000000000000000   0000000000000000000000000A9        170193276234     
0010001300152U 020000000000000000000000000000000000000000000000000000000000000000000000000000000000000000000000000000000000000000000000002107202100000000            000000000000000                              000                           
0010001300153T 020023210000000700002 32762340051581801   751581801       1008202100000000010135000101058851581801                 0900000000000010500000000000000000000000000000000000000   0000000000000000000000000A9A4      170193276234     
0010001300154U 020000000000000000000000000000000000000000000000000000000000000000000000000000000000000000000000000000000000000000000000002107202100000000            000000000000000                              000                           
0010001300155T 020023210000000700002 32762340051581802   751581802       3008202100000000010135000101058851581802                 0900000000000010500000000000000000000000000000000000000   0000000000000000000000000A9A4      170193276234     
0010001300156U 020000000000000000000000000000000000000000000000000000000000000000000000000000000000000000000000000000000000000000000000002107202100000000            000000000000000                              000                           
0010001300157T 020023210000000700002 32762340051582201   751582201       2008202100000000008004000102529151582201                 0900000000000010000000000000000000000000000000000000000   0000000000000000000000000A9        170193276234     
0010001300158U 020000000000000000000000000000000000000000000000000000000000000000000000000000000000000000000000000000000000000000000000002107202100000000            000000000000000                              000                           
0010001300159T 020023210000000700002 32762340051582202   751582202       0409202100000000008004000102529151582202                 0900000000000010000000000000000000000000000000000000000   0000000000000000000000000A9        170193276234     
0010001300160U 020000000000000000000000000000000000000000000000000000000000000000000000000000000000000000000000000000000000000000000000002107202100000000            000000000000000                              000                           
0010001300161T 020023210000000700002 32762340051582203   751582203       1909202100000000008004000102529151582203                 0900000000000010000000000000000000000000000000000000000   0000000000000000000000000A9        170193276234     
0010001300162U 020000000000000000000000000000000000000000000000000000000000000000000000000000000000000000000000000000000000000000000000002107202100000000            000000000000000                              000                           
0010001300163T 020023210000000700002 32762340051582301   751582301       2008202100000000007008000102529151582301                 0900000000000010500000000000000000000000000000000000000   0000000000000000000000000A9A4      170193276234     
0010001300164U 020000000000000000000000000000000000000000000000000000000000000000000000000000000000000000000000000000000000000000000000002107202100000000            000000000000000                              000                           
0010001300165T 020023210000000700002 32762340051582302   751582302       0409202100000000007008000102529151582302                 0900000000000010500000000000000000000000000000000000000   0000000000000000000000000A9A4      170193276234     
0010001300166U 020000000000000000000000000000000000000000000000000000000000000000000000000000000000000000000000000000000000000000000000002107202100000000            000000000000000                              000                           
0010001300167T 020023210000000700002 32762340051582303   751582303       1909202100000000007008000102529151582303                 0900000000000010500000000000000000000000000000000000000   0000000000000000000000000A9A4      170193276234     
0010001300168U 020000000000000000000000000000000000000000000000000000000000000000000000000000000000000000000000000000000000000000000000002107202100000000            000000000000000                              000                           
0010001300169T 020023210000000700002 32762340051582501   751582501       2008202100000000002155000102529151582501                 0900000000000010000000000000000000000000000000000000000   0000000000000000000000000A9        170193276234     
0010001300170U 020000000000000000000000000000000000000000000000000000000000000000000000000000000000000000000000000000000000000000000000002107202100000000            000000000000000                              000                           
0010001300171T 020023210000000700002 32762340051582502   751582502       1909202100000000002155000102529151582502                 0900000000000010000000000000000000000000000000000000000   0000000000000000000000000A9        170193276234     
0010001300172U 020000000000000000000000000000000000000000000000000000000000000000000000000000000000000000000000000000000000000000000000002107202100000000            000000000000000                              000                           
0010001300173T 020023210000000700002 32762340051582701   751582701       2008202100000000004353300102529151582701                 0900000000000010000000000000000000000000000000000000000   0000000000000000000000000A9        170193276234     
0010001300174U 020000000000000000000000000000000000000000000000000000000000000000000000000000000000000000000000000000000000000000000000002107202100000000            000000000000000                              000                           
0010001300175T 020023210000000700002 32762340051582702   751582702       0409202100000000004353300102529151582702                 0900000000000010000000000000000000000000000000000000000   0000000000000000000000000A9        170193276234     
0010001300176U 020000000000000000000000000000000000000000000000000000000000000000000000000000000000000000000000000000000000000000000000002107202100000000            000000000000000                              000                           
0010001300177T 020023210000000700002 32762340051582703   751582703       1909202100000000004353300102529151582703                 0900000000000010000000000000000000000000000000000000000   0000000000000000000000000A9        170193276234     
0010001300178U 020000000000000000000000000000000000000000000000000000000000000000000000000000000000000000000000000000000000000000000000002107202100000000            000000000000000                              000                           
0010001300179T 020023210000000700002 32762340051584201   751584201       2008202100000000001923000100232151584201                 0900000000000010000000000000000000000000000000000000000   0000000000000000000000000A9        170193276234     
0010001300180U 020000000000000000000000000000000000000000000000000000000000000000000000000000000000000000000000000000000000000000000000002107202100000000            000000000000000                              000                           
0010001300181T 020023210000000700002 32762340051584901   751584901       2008202100000000000880000100232151584901                 0900000000000010500000000000000000000000000000000000000   0000000000000000000000000A9A4      170193276234     
0010001300182U 020000000000000000000000000000000000000000000000000000000000000000000000000000000000000000000000000000000000000000000000002107202100000000            000000000000000                              000                           
0010001300183T 020023210000000700002 32762340051585601   751585601       2008202100000000017030000100673451585601                 0900000000000010000000000000000000000000000000000000000   0000000000000000000000000A9        170193276234     
0010001300184U 020000000000000000000000000000000000000000000000000000000000000000000000000000000000000000000000000000000000000000000000002107202100000000            000000000000000                              000                           
0010001300185T 020023210000000700002 32762340051586101   751586101       0508202100000000007200000100232151586101                 0900000000000010000000000000000000000000000000000000000   0000000000000000000000000A9        170193276234     
0010001300186U 020000000000000000000000000000000000000000000000000000000000000000000000000000000000000000000000000000000000000000000000002107202100000000            000000000000000                              000                           
0010001300187T 280023210000000700002 32762340000002693   7512772         1107202100000000011826700101981X                         0900000000000000000000000000000000000000000000000000000   000000000000000000000000009        170193276234     
0010001300188U 280000000000000000000000000000000000000000000000000000000000000000000000000000000000000000000000000000216350000000000000002107202100000000            000000000000000                              000                           
0010001300189T 280023210000000700002 32762340000004542   7511114/2       1407202100000000014153000101981X                         0900000000000000000000000000000000000000000000000000000   000000000000000000000000008        170193276234     
0010001300190U 280000000000000000000000000000000000000000000000000000000000000000000000000000000000000000000000000000007800000000000000002107202100000000            000000000000000                              000                           
0010001300191T 230023210000000700002 32762340000004542   7511114/2       14072021000000000141530001010499                         0900000000000000000000000000000000000000000000000000000   000000000000000000000002200        170193276234     
0010001300192U 230000000000000000000000000000000000000000000000000000000000000000000000000000000000000000000000000000000000000000000000002107202100000000            000000000000000                              000                           
0010001300193T 060023210000000700002 32762340000001406   7511318/03      23072021000000000035000104010380                         0900000000000010100000000000000000000000000000000000000   000000000000000000000008004        170193276234     
0010001300194U 060000000000000000000000000000000000000000000000000000000000000000000000350000000000000350000000000000000000000000000000002107202122072021            000000000000000                              000                           
0010001300195T 060023210000000700002 32762340000001927   7511840/02      15072021000000000067438104008760                         0900000000000010100000000000000000000000000000000000000   000000000000000000000008004        170193276234     
0010001300196U 060000000000006060000000000000000000000000000000000000000000000000000000680440000000000680440000000000000000000000000000002107202122072021            000000000000000                              000                           
0010001300197T 060023210000000700002 32762340000001939   7511845/02      15072021000000000338500033031240                         0900000000000010100000000000000000000000000000000000000   000000000000000000000008004        170193276234     
0010001300198U 060000000000030420000000000000000000000000000000000000000000000000000003415420000000003415420000000000000000000000000000002107202122072021            000000000000000                              000                           
0010001300199T 060023210000000700002 32762340000001947   7511825/02      15072021000000000113333237025920                         0900000000000010100000000000000000000000000000000000000   000000000000000000000008004        170193276234     
0010001300200U 060000000000010140000000000000000000000000000000000000000000000000000001143470000000001143470000000000000000000000000000002107202122072021            000000000000000                              000                           
0010001300201T 060023210000000700002 32762340000001965   7511858/02      15072021000000000128875422001440                         0900000000000010100000000000000000000000000000000000000   000000000000000000000008004        170193276234     
0010001300202U 060000000000011580000000000000000000000000000000000000000000000000000001300330000000001300330000000000000000000000000000002107202122072021            000000000000000                              000                           
0010001300203T 060023210000000700002 32762340000002262   7512296/02      22072021000000000039950104021920                         0900000000000010100000000000000000000000000000000000000   000000000000000000000008004        170193276234     
0010001300204U 060000000000000000000000000000000000000000000000000000000000000000000000399500000000000399500000000000000000000000000000002107202122072021            000000000000000                              000                           
0010001300205T 060023210000000700002 32762340000002268   7512295/02      22072021000000000035667104021920                         0900000000000010100000000000000000000000000000000000000   000000000000000000000008004        170193276234     
0010001300206U 060000000000000000000000000000000000000000000000000000000000000000000000356670000000000356670000000000000000000000000000002107202122072021            000000000000000                              000                           
0010001300207T 060023210000000700002 32762340000002299   7512211/02      22072021000000000078700237011160                         0900000000000010100000000000000000000000000000000000000   000000000000000000000008004        170193276234     
0010001300208U 060000000000000000000000000000000000000000000000000000000000000000000000787000000000000787000000000000000000000000000000002107202122072021            000000000000000                              000                           
0010001300209T 060023210000000700002 32762340000002431   7512314/02      21072021000000000066907001012459                         0900000000000010060000000000000000000000000000000000000   000000000000000000000008033        170193276234     
0010001300210U 060000000000000000000000000000000000000000000000000000000000000000000000669070000000000669070000000000000000000000000000002107202122072021            000000000000000                              000                           
0010001300211T 060023210000000700002 32762340000002575   7512703/02      20072021000000000091240001022195                         0900000000000010010000000000000000000000000000000000000   000000000000000000000008032        170193276234     
0010001300212U 060000000000001360000000000000000000000000000000000000000000000000000000913760000000000913760000000000000000000000000000002107202122072021            000000000000000                              000                           
0010001300213T 060023210000000700002 32762340000002648   7512647/02      25072021000000000098667341004910                         0900000000000010100000000000000000000000000000000000000   000000000000000000000008004        170193276234     
0010001300214U 060000000000000000000000000000000000000000000000000000000000000000000000986670000000000986670000000000000000000000000000002107202122072021            000000000000000                              000                           
0010001300215T 060023210000000700002 32762340000002691   7512769/02      21072021000000000025615001031089                         0900000000000010010000000000000000000000000000000000000   000000000000000000000008032        170193276234     
0010001300216U 060000000000000000000000000000000000000000000000000000000000000000000000256150000000000256150000000000000000000000000000002107202122072021            000000000000000                              000                           
0010001300217T 060023210000000700002 32762340000002695   7512767/02      21072021000000000053500001023264                         0900000000000010040000000000000000000000000000000000000   000000000000000000000008034        170193276234     
0010001300218U 060000000000000000000000000000000000000000000000000000000000000000000000535000000000000535000000000000000000000000000000002107202122072021            000000000000000                              000                           
0010001300219T 060023210000000700002 32762340000002697   7512773/02      21072021000000000036250033015980                         0900000000000010100000000000000000000000000000000000000   000000000000000000000008004        170193276234     
0010001300220U 060000000000000000000000000000000000000000000000000000000000000000000000362500000000000362500000000000000000000000000000002107202122072021            000000000000000                              000                           
0010001300221T 060023210000000700002 32762340000002699   7512775/02      21072021000000000066825033015980                         0900000000000010100000000000000000000000000000000000000   000000000000000000000008004        170193276234     
0010001300222U 060000000000000000000000000000000000000000000000000000000000000000000000668250000000000668250000000000000000000000000000002107202122072021            000000000000000                              000                           
0010001300223T 060023210000000700002 32762340000002706   7512783/02      21072021000000000062065001012645                         0900000000000010010000000000000000000000000000000000000   000000000000000000000008032        170193276234     
0010001300224U 060000000000000000000000000000000000000000000000000000000000000000000000620650000000000620650000000000000000000000000000002107202122072021            000000000000000                              000                           
0010001300225T 060023210000000700002 32762340000002713   7512803/02      21072021000000000043285104021700                         0900000000000010100000000000000000000000000000000000000   000000000000000000000008004        170193276234     
0010001300226U 060000000000000000000000000000000000000000000000000000000000000000000000432850000000000432850000000000000000000000000000002107202122072021            000000000000000                              000                           
0010001300227T 060023210000000700002 32762340000002732   7512735/02      21072021000000000041870341071250                         0900000000000010100000000000000000000000000000000000000   000000000000000000000008004        170193276234     
0010001300228U 060000000000000000000000000000000000000000000000000000000000000000000000418700000000000418700000000000000000000000000000002107202122072021            000000000000000                              000                           
0010001300229T 060023210000000700002 32762340000002734   7512823/02      21072021000000000151040004001200                         0900000000000010100000000000000000000000000000000000000   000000000000000000000008004        170193276234     
0010001300230U 060000000000000000000000000000000000000000000000000000000000000000000001510400000000001510400000000000000000000000000000002107202122072021            000000000000000                              000                           
0010001300231T 060023210000000700002 32762340000002754   7512792/02      21072021000000000047250341004910                         0900000000000010100000000000000000000000000000000000000   000000000000000000000008004        170193276234     
0010001300232U 060000000000000000000000000000000000000000000000000000000000000000000000472500000000000472500000000000000000000000000000002107202122072021            000000000000000                              000                           
0010001300233T 060023210000000700002 32762340000002758   7512665/02      21072021000000000066920237012600                         0900000000000010100000000000000000000000000000000000000   000000000000000000000008004        170193276234     
0010001300234U 060000000000000000000000000000000000000000000000000000000000000000000000669200000000000669200000000000000000000000000000002107202122072021            000000000000000                              000                           
0010001300235T 060023210000000700002 32762340000002955   7513115/02      26072021000000000046950237021690                         0900000000000010100000000000000000000000000000000000000   000000000000000000000008004        170193276234     
0010001300236U 060000000000000000000000000000000000000000000000000000000000000000000000469500000000000469500000000000000000000000000000002107202122072021            000000000000000                              000                           
0010001300237T 060023210000000700002 32762340000002958   7513119/01      16072021000000000063148104009150                         0900000000000010100000000000000000000000000000000000000   000000000000000000000008004        170193276234     
0010001300238U 060000000000004700000000000000000000000000000000000000000000000000000000636180000000000636180000000000000000000000000000002107202122072021            000000000000000                              000                           
0010001300239T 060023210000000700002 32762340000003083   7513254/01      17072021000000000129175033015980                         0900000000000010100000000000000000000000000000000000000   000000000000000000000008004        170193276234     
0010001300240U 060000000000007720000000000000000000000000000000000000000000000000000001299470000000001299470000000000000000000000000000002107202122072021            000000000000000                              000                           
0010001300241T 060023210000000700002 32762340000003134   7513290/01      18072021000000000098700104000530                         0900000000000010100000000000000000000000000000000000000   000000000000000000000008004        170193276234     
0010001300242U 060000000000004440000000000000000000000000000000000000000000000000000000991440000000000991440000000000000000000000000000002107202122072021            000000000000000                              000                           
0010001300243T 060023210000000700002 32762340000003171   7513311         18072021000000000059950104012420                         0900000000000010100000000000000000000000000000000000000   000000000000000000000008004        170193276234     
0010001300244U 060000000000002670000000000000000000000000000000000000000000000000000000602170000000000602170000000000000000000000000000002107202122072021            000000000000000                              000                           
0010001300245T 060023210000000700002 32762340000003231   7513444/01      21072021000000000096947033040300                         0900000000000010100000000000000000000000000000000000000   000000000000000000000008004        170193276234     
0010001300246U 060000000000000000000000000000000000000000000000000000000000000000000000969470000000000969470000000000000000000000000000002107202122072021            000000000000000                              000                           
0010001300247T 060023210000000700002 32762340000003247   7513436/01      21072021000000000172058341077280                         0900000000000010100000000000000000000000000000000000000   000000000000000000000008004        170193276234     
0010001300248U 060000000000000000000000000000000000000000000000000000000000000000000001720580000000001720580000000000000000000000000000002107202122072021            000000000000000                              000                           
0010001300249T 060023210000000700002 32762340000003250   7513434/01      21072021000000000073733341069420                         0900000000000010100000000000000000000000000000000000000   000000000000000000000008004        170193276234     
0010001300250U 060000000000000000000000000000000000000000000000000000000000000000000000737330000000000737330000000000000000000000000000002107202122072021            000000000000000                              000                           
0010001300251T 060023210000000700002 32762340000003259   7513417/01      21072021000000000131387033040460                         0900000000000010100000000000000000000000000000000000000   000000000000000000000008004        170193276234     
0010001300252U 060000000000000000000000000000000000000000000000000000000000000000000001313870000000001313870000000000000000000000000000002107202122072021            000000000000000                              000                           
0010001300253T 060023210000000700002 32762340000003262   7513413/01      21072021000000000237133104009150                         0900000000000010100000000000000000000000000000000000000   000000000000000000000008004        170193276234     
0010001300254U 060000000000000000000000000000000000000000000000000000000000000000000002371330000000002371330000000000000000000000000000002107202122072021            000000000000000                              000                           
0010001300255T 060023210000000700002 32762340000003265   7513402/01      21072021000000000079880001021253                         0900000000000010040000000000000000000000000000000000000   000000000000000000000008034        170193276234     
0010001300256U 060000000000000000000000000000000000000000000000000000000000000000000000798800000000000798800000000000000000000000000000002107202122072021            000000000000000                              000                           
0010001300257T 060023210000000700002 32762340000003273   7513430/01      21072021000000000128960001012645                         0900000000000010060000000000000000000000000000000000000   000000000000000000000008033        170193276234     
0010001300258U 060000000000000000000000000000000000000000000000000000000000000000000001289600000000001289600000000000000000000000000000002107202122072021            000000000000000                              000                           
0010001300259T 060023210000000700002 32762340000003277   7513427/02      05082021000000000216333001023353                         0900000000000010060000000000000000000000000000000000000   000000000000000000000008033        170193276234     
0010001300260U 060000000000000000000000000000000000000000000000000000000000000000000002163330000000002163330000000000000000000000000000002107202122072021            000000000000000                              000                           
0010001300261T 060023210000000700002 32762340000003283   7513414/01      21072021000000000094167104047580                         0900000000000010100000000000000000000000000000000000000   000000000000000000000008004        170193276234     
0010001300262U 060000000000000000000000000000000000000000000000000000000000000000000000941670000000000941670000000000000000000000000000002107202122072021            000000000000000                              000                           
0010001300263T 060023210000000700002 32762340000003307   7513496/01      21072021000000000165000104031220                         0900000000000010100000000000000000000000000000000000000   000000000000000000000008004        170193276234     
0010001300264U 060000000000000000000000000000000000000000000000000000000000000000000001650000000000001650000000000000000000000000000000002107202122072021            000000000000000                              000                           
0010001300265T 060023210000000700002 32762340000003310   7513490/01      21072021000000000054720104000530                         0900000000000010100000000000000000000000000000000000000   000000000000000000000008004        170193276234     
0010001300266U 060000000000000000000000000000000000000000000000000000000000000000000000547200000000000547200000000000000000000000000000002107202122072021            000000000000000                              000                           
0010001300267T 060023210000000700002 32762340000003319   7513484/01      21072021000000000049350104007730                         0900000000000010100000000000000000000000000000000000000   000000000000000000000008004        170193276234     
0010001300268U 060000000000000000000000000000000000000000000000000000000000000000000000493500000000000493500000000000000000000000000000002107202122072021            000000000000000                              000                           
0010001300269T 060023210000000700002 32762340000003322   7513485/01      21072021000000000068717104007730                         0900000000000010100000000000000000000000000000000000000   000000000000000000000008004        170193276234     
0010001300270U 060000000000000000000000000000000000000000000000000000000000000000000000687170000000000687170000000000000000000000000000002107202122072021            000000000000000                              000                           
0010001300271T 060023210000000700002 32762340000003325   7513486/01      21072021000000000084400104007730                         0900000000000010100000000000000000000000000000000000000   000000000000000000000008004        170193276234     
0010001300272U 060000000000000000000000000000000000000000000000000000000000000000000000844000000000000844000000000000000000000000000000002107202122072021            000000000000000                              000                           
0010001300273T 060023210000000700002 32762340000003328   7513487/01      21072021000000000114600104007730                         0900000000000010100000000000000000000000000000000000000   000000000000000000000008004        170193276234     
0010001300274U 060000000000000000000000000000000000000000000000000000000000000000000001146000000000001146000000000000000000000000000000002107202122072021            000000000000000                              000                           
0010001300275T 060023210000000700002 32762340000003331   7513488/01      21072021000000000100000104007730                         0900000000000010100000000000000000000000000000000000000   000000000000000000000008004        170193276234     
0010001300276U 060000000000000000000000000000000000000000000000000000000000000000000001000000000000001000000000000000000000000000000000002107202122072021            000000000000000                              000                           
0010001300277T 060023210000000700002 32762340000003334   7513512         21072021000000000091400104000530                         0900000000000010100000000000000000000000000000000000000   000000000000000000000008004        170193276234     
0010001300278U 060000000000000000000000000000000000000000000000000000000000000000000000914000000000000914000000000000000000000000000000002107202122072021            000000000000000                              000                           
0010001300279T 060023210000000700002 32762340000003340   7513568/01      22072021000000000084215104000530                         0900000000000010100000000000000000000000000000000000000   000000000000000000000008004        170193276234     
0010001300280U 060000000000000000000000000000000000000000000000000000000000000000000000842150000000000842150000000000000000000000000000002107202122072021            000000000000000                              000                           
0010001300281T 060023210000000700002 32762340000003524   7513739/01      25072021000000000112170104047520                         0900000000000010100000000000000000000000000000000000000   000000000000000000000008004        170193276234     
0010001300282U 060000000000000000000000000000000000000000000000000000000000000000000001121700000000001121700000000000000000000000000000002107202122072021            000000000000000                              000                           
0010001300283T 060023210000000700002 32762340000003573   7513854         28072021000000000052910001017612                         0900000000000010010000000000000000000000000000000000000   000000000000000000000008032        170193276234     
0010001300284U 060000000000000000000000000000000000000000000000000000000000000000000000529100000000000529100000000000000000000000000000002107202122072021            000000000000000                              000                           
0010001300285T 060023210000000700002 32762340000003763   7514044/01      20072021000000000051740104025510                         0900000000000010100000000000000000000000000000000000000   000000000000000000000008004        170193276234     
0010001300286U 060000000000000770000000000000000000000000000000000000000000000000000000518170000000000518170000000000000000000000000000002107202122072021            000000000000000                              000                           
0010001300287T 060023210000000700002 32762340000003815   7514108/01      21072021000000000093000237012600                         0900000000000010100000000000000000000000000000000000000   000000000000000000000008004        170193276234     
0010001300288U 060000000000000000000000000000000000000000000000000000000000000000000000930000000000000930000000000000000000000000000000002107202122072021            000000000000000                              000                           
0010001300289T 060023210000000700002 32762340000003829   7514099/01      21072021000000000081750341083220                         0900000000000010100000000000000000000000000000000000000   000000000000000000000008004        170193276234     
0010001300290U 060000000000000000000000000000000000000000000000000000000000000000000000817500000000000817500000000000000000000000000000002107202122072021            000000000000000                              000                           
0010001300291T 060023210000000700002 32762340000003856   7514182/01      21072021000000000070925001021253                         0900000000000010040000000000000000000000000000000000000   000000000000000000000008034        170193276234     
0010001300292U 060000000000000000000000000000000000000000000000000000000000000000000000709250000000000709250000000000000000000000000000002107202122072021            000000000000000                              000                           
0010001300293T 060023210000000700002 32762340000003951   7514201/01      31072021000000000050750237021690                         0900000000000010100000000000000000000000000000000000000   000000000000000000000008004        170193276234     
0010001300294U 060000000000000000000000000000000000000000000000000000000000000000000000507500000000000507500000000000000000000000000000002107202122072021            000000000000000                              000                           
0010001300295T 060023210000000700002 32762340000003952   7514201/02      30082021000000000050750237021690                         0900000000000010100000000000000000000000000000000000000   000000000000000000000008004        170193276234     
0010001300296U 060000000000000000000000000000000000000000000000000000000000000000000000507500000000000507500000000000000000000000000000002107202122072021            000000000000000                              000                           
0010001300297T 060023210000000700002 32762340000004284   7514581         21072021000000000024000001002321                         0900000000000010060000000000000000000000000000000000000   000000000000000000000008033        170193276234     
0010001300298U 060000000000000000000000000000000000000000000000000000000000000000000000240000000000000240000000000000000000000000000000002107202122072021            000000000000000                              000                           
0010001300299T 060023210000000700002 32762340000004545   7514502-1/1     21072021000000000352800104049950                         0900000000000010100000000000000000000000000000000000000   000000000000000000000008004        170193276234     
0010001300300U 060000000000000000000000000000000000000000000000000000000000000000000003528000000000003528000000000000000000000000000000002107202122072021            000000000000000                              000                           
0010001300301T 860023210000000700002 32762340000000831   7510567/03      12072021000000000199430001000000                         0900000000000000000000000000000000000000000000000000000   000000000000000000000000009        170193276234     
0010001300302U 860000000000000000000000000000000000000000000000000000000000000000000000000000000000000000000000000000000000101000000000000000000000000000            000000000000000                              000                           
0010001300303T 860023210000000700002 32762340000000831   7510567/03      12072021000000000199430001000000                         0900000000000000000000000000000000000000000000000000000   000000000000000000000000002        170193276234     
0010001300304U 860000000000000000000000000000000000000000000000000000000000000000000000000000000000000000000000000000000000101000000000000000000000000000            000000000000000                              000                           
0010001300305T 030023210000000700002 32762340051573801   751573801       0908202100000000008025800100000 51573801                 0900000000000000000000000000000000000000000000000000000   000000000000000000000000063        170193276234     
0010001300306U 030000000000000000000000000000000000000000000000000000000000000000000000000000000000000000000000000000000000000000000000002107202100000000            000000000000000                              000                           
0010001300307T 030023210000000700002 32762340051574201   751574201       2008202100000000014113300100000 51574201                 0900000000000000000000000000000000000000000000000000000   000000000000000000000000063        170193276234     
0010001300308U 030000000000000000000000000000000000000000000000000000000000000000000000000000000000000000000000000000000000000000000000002107202100000000            000000000000000                              000                           
0010001300309T 030023210000000700002 32762340051574201   751574201       2008202100000000014113300100000 51574201                 0900000000000000000000000000000000000000000000000000000   000000000000000000000000063        170193276234     
0010001300310U 030000000000000000000000000000000000000000000000000000000000000000000000000000000000000000000000000000000000000000000000002107202100000000            000000000000000                              000                           
0010001300311T 030023210000000700002 32762340051574202   751574202       0409202100000000014113300100000 51574202                 0900000000000000000000000000000000000000000000000000000   000000000000000000000000063        170193276234     
0010001300312U 030000000000000000000000000000000000000000000000000000000000000000000000000000000000000000000000000000000000000000000000002107202100000000            000000000000000                              000                           
0010001300313T 030023210000000700002 32762340051574501   751574501       2008202100000000006901700100000 51574501                 0900000000000000000000000000000000000000000000000000000   000000000000000000000000063        170193276234     
0010001300314U 030000000000000000000000000000000000000000000000000000000000000000000000000000000000000000000000000000000000000000000000002107202100000000            000000000000000                              000                           
0010001300315T 030023210000000700002 32762340051574501   751574501       2008202100000000006901700100000 51574501                 0900000000000000000000000000000000000000000000000000000   000000000000000000000000063        170193276234     
0010001300316U 030000000000000000000000000000000000000000000000000000000000000000000000000000000000000000000000000000000000000000000000002107202100000000            000000000000000                              000                           
0010001300317T 030023210000000700002 32762340051574502   751574502       0409202100000000006901700100000 51574502                 0900000000000000000000000000000000000000000000000000000   000000000000000000000000063        170193276234     
0010001300318U 030000000000000000000000000000000000000000000000000000000000000000000000000000000000000000000000000000000000000000000000002107202100000000            000000000000000                              000                           
0010001300319T 030023210000000700002 32762340051575001   751575001       2008202100000000019150000100000 51575001                 0900000000000000000000000000000000000000000000000000000   000000000000000000000000063        170193276234     
0010001300320U 030000000000000000000000000000000000000000000000000000000000000000000000000000000000000000000000000000000000000000000000002107202100000000            000000000000000                              000                           
0010001300321T 030023210000000700002 32762340051575001   751575001       2008202100000000019150000100000 51575001                 0900000000000000000000000000000000000000000000000000000   000000000000000000000000063        170193276234     
0010001300322U 030000000000000000000000000000000000000000000000000000000000000000000000000000000000000000000000000000000000000000000000002107202100000000            000000000000000                              000                           
0010001300323T 030023210000000700002 32762340051575002   751575002       0409202100000000019150000100000 51575002                 0900000000000000000000000000000000000000000000000000000   000000000000000000000000063        170193276234     
0010001300324U 030000000000000000000000000000000000000000000000000000000000000000000000000000000000000000000000000000000000000000000000002107202100000000            000000000000000                              000                           
0010001300325T 030023210000000700002 32762340051575301   751575301       2008202100000000024093300100000 51575301                 0900000000000000000000000000000000000000000000000000000   000000000000000000000000063        170193276234     
0010001300326U 030000000000000000000000000000000000000000000000000000000000000000000000000000000000000000000000000000000000000000000000002107202100000000            000000000000000                              000                           
0010001300327T 030023210000000700002 32762340051575301   751575301       2008202100000000024093300100000 51575301                 0900000000000000000000000000000000000000000000000000000   000000000000000000000000063        170193276234     
0010001300328U 030000000000000000000000000000000000000000000000000000000000000000000000000000000000000000000000000000000000000000000000002107202100000000            000000000000000                              000                           
0010001300329T 030023210000000700002 32762340051575302   751575302       0409202100000000024093300100000 51575302                 0900000000000000000000000000000000000000000000000000000   000000000000000000000000063        170193276234     
0010001300330U 030000000000000000000000000000000000000000000000000000000000000000000000000000000000000000000000000000000000000000000000002107202100000000            000000000000000                              000                           
0010001300331T 030023210000000700002 32762340051575401   751575401       1008202100000000005565000100000 51575401                 0900000000000000000000000000000000000000000000000000000   000000000000000000000000063        170193276234     
0010001300332U 030000000000000000000000000000000000000000000000000000000000000000000000000000000000000000000000000000000000000000000000002107202100000000            000000000000000                              000                           
0010001300333T 030023210000000700002 32762340051575601   751575601       1008202100000000007132500100000 51575601                 0900000000000000000000000000000000000000000000000000000   000000000000000000000000063        170193276234     
0010001300334U 030000000000000000000000000000000000000000000000000000000000000000000000000000000000000000000000000000000000000000000000002107202100000000            000000000000000                              000                           
0010001300335T 030023210000000700002 32762340051575701   751575701       1908202100000000009706700100000 51575701                 0900000000000000000000000000000000000000000000000000000   000000000000000000000000063        170193276234     
0010001300336U 030000000000000000000000000000000000000000000000000000000000000000000000000000000000000000000000000000000000000000000000002107202100000000            000000000000000                              000                           
0010001300337T 030023210000000700002 32762340051575701   751575701       1908202100000000009706700100000 51575701                 0900000000000000000000000000000000000000000000000000000   000000000000000000000000063        170193276234     
0010001300338U 030000000000000000000000000000000000000000000000000000000000000000000000000000000000000000000000000000000000000000000000002107202100000000            000000000000000                              000                           
0010001300339T 030023210000000700002 32762340051575702   751575702       0309202100000000009706700100000 51575702                 0900000000000000000000000000000000000000000000000000000   000000000000000000000000063        170193276234     
0010001300340U 030000000000000000000000000000000000000000000000000000000000000000000000000000000000000000000000000000000000000000000000002107202100000000            000000000000000                              000                           
0010001300341T 030023210000000700002 32762340051575801   751575801       2008202100000000010473300100000 51575801                 0900000000000000000000000000000000000000000000000000000   000000000000000000000000063        170193276234     
0010001300342U 030000000000000000000000000000000000000000000000000000000000000000000000000000000000000000000000000000000000000000000000002107202100000000            000000000000000                              000                           
0010001300343T 030023210000000700002 32762340051575801   751575801       2008202100000000010473300100000 51575801                 0900000000000000000000000000000000000000000000000000000   000000000000000000000000063        170193276234     
0010001300344U 030000000000000000000000000000000000000000000000000000000000000000000000000000000000000000000000000000000000000000000000002107202100000000            000000000000000                              000                           
0010001300345T 030023210000000700002 32762340051575802   751575802       0409202100000000010473300100000 51575802                 0900000000000000000000000000000000000000000000000000000   000000000000000000000000063        170193276234     
0010001300346U 030000000000000000000000000000000000000000000000000000000000000000000000000000000000000000000000000000000000000000000000002107202100000000            000000000000000                              000                           
0010001300347T 030023210000000700002 32762340051576201   751576201       2008202100000000007626700100000 51576201                 0900000000000000000000000000000000000000000000000000000   000000000000000000000000063        170193276234     
0010001300348U 030000000000000000000000000000000000000000000000000000000000000000000000000000000000000000000000000000000000000000000000002107202100000000            000000000000000                              000                           
0010001300349T 030023210000000700002 32762340051576201   751576201       2008202100000000007626700100000 51576201                 0900000000000000000000000000000000000000000000000000000   000000000000000000000000063        170193276234     
0010001300350U 030000000000000000000000000000000000000000000000000000000000000000000000000000000000000000000000000000000000000000000000002107202100000000            000000000000000                              000                           
0010001300351T 030023210000000700002 32762340051576202   751576202       0409202100000000007626700100000 51576202                 0900000000000000000000000000000000000000000000000000000   000000000000000000000000063        170193276234     
0010001300352U 030000000000000000000000000000000000000000000000000000000000000000000000000000000000000000000000000000000000000000000000002107202100000000            000000000000000                              000                           
0010001300353T 030023210000000700002 32762340051576401   751576401       2008202100000000013250000100000 51576401                 0900000000000000000000000000000000000000000000000000000   000000000000000000000000063        170193276234     
0010001300354U 030000000000000000000000000000000000000000000000000000000000000000000000000000000000000000000000000000000000000000000000002107202100000000            000000000000000                              000                           
0010001300355T 030023210000000700002 32762340051576401   751576401       2008202100000000013250000100000 51576401                 0900000000000000000000000000000000000000000000000000000   000000000000000000000000063        170193276234     
0010001300356U 030000000000000000000000000000000000000000000000000000000000000000000000000000000000000000000000000000000000000000000000002107202100000000            000000000000000                              000                           
0010001300357T 030023210000000700002 32762340051576402   751576402       0409202100000000013250000100000 51576402                 0900000000000000000000000000000000000000000000000000000   000000000000000000000000063        170193276234     
0010001300358U 030000000000000000000000000000000000000000000000000000000000000000000000000000000000000000000000000000000000000000000000002107202100000000            000000000000000                              000                           
0010001300359T 030023210000000700002 32762340051576501   751576501       1008202100000000004570000100000 51576501                 0900000000000000000000000000000000000000000000000000000   000000000000000000000000063        170193276234     
0010001300360U 030000000000000000000000000000000000000000000000000000000000000000000000000000000000000000000000000000000000000000000000002107202100000000            000000000000000                              000                           
0010001300361T 030023210000000700002 32762340051576601   751576601       1008202100000000014865000100000 51576601                 0900000000000000000000000000000000000000000000000000000   000000000000000000000000063        170193276234     
0010001300362U 030000000000000000000000000000000000000000000000000000000000000000000000000000000000000000000000000000000000000000000000002107202100000000            000000000000000                              000                           
0010001300363T 030023210000000700002 32762340051576801   751576801       2008202100000000008706700100000 51576801                 0900000000000000000000000000000000000000000000000000000   000000000000000000000000063        170193276234     
0010001300364U 030000000000000000000000000000000000000000000000000000000000000000000000000000000000000000000000000000000000000000000000002107202100000000            000000000000000                              000                           
0010001300365T 030023210000000700002 32762340051576801   751576801       2008202100000000008706700100000 51576801                 0900000000000000000000000000000000000000000000000000000   000000000000000000000000063        170193276234     
0010001300366U 030000000000000000000000000000000000000000000000000000000000000000000000000000000000000000000000000000000000000000000000002107202100000000            000000000000000                              000                           
0010001300367T 030023210000000700002 32762340051576802   751576802       0409202100000000008706700100000 51576802                 0900000000000000000000000000000000000000000000000000000   000000000000000000000000063        170193276234     
0010001300368U 030000000000000000000000000000000000000000000000000000000000000000000000000000000000000000000000000000000000000000000000002107202100000000            000000000000000                              000                           
0010001300369T 030023210000000700002 32762340051577001   751577001       1008202100000000003780000100000 51577001                 0900000000000000000000000000000000000000000000000000000   000000000000000000000000063        170193276234     
0010001300370U 030000000000000000000000000000000000000000000000000000000000000000000000000000000000000000000000000000000000000000000000002107202100000000            000000000000000                              000                           
0010001300371T 030023210000000700002 32762340051577201   751577201       2008202100000000028420000100000 51577201                 0900000000000000000000000000000000000000000000000000000   000000000000000000000000063        170193276234     
0010001300372U 030000000000000000000000000000000000000000000000000000000000000000000000000000000000000000000000000000000000000000000000002107202100000000            000000000000000                              000                           
0010001300373T 030023210000000700002 32762340051577201   751577201       2008202100000000028420000100000 51577201                 0900000000000000000000000000000000000000000000000000000   000000000000000000000000063        170193276234     
0010001300374U 030000000000000000000000000000000000000000000000000000000000000000000000000000000000000000000000000000000000000000000000002107202100000000            000000000000000                              000                           
0010001300375T 030023210000000700002 32762340051577202   751577202       0409202100000000028420000100000 51577202                 0900000000000000000000000000000000000000000000000000000   000000000000000000000000063        170193276234     
0010001300376U 030000000000000000000000000000000000000000000000000000000000000000000000000000000000000000000000000000000000000000000000002107202100000000            000000000000000                              000                           
0010001300377T 030023210000000700002 32762340051577601   751577601       1008202100000000004725000100000 51577601                 0900000000000000000000000000000000000000000000000000000   000000000000000000000000063        170193276234     
0010001300378U 030000000000000000000000000000000000000000000000000000000000000000000000000000000000000000000000000000000000000000000000002107202100000000            000000000000000                              000                           
0010001300379T 030023210000000700002 32762340051578001   751578001       1008202100000000003881000100000 51578001                 0900000000000000000000000000000000000000000000000000000   000000000000000000000000063        170193276234     
0010001300380U 030000000000000000000000000000000000000000000000000000000000000000000000000000000000000000000000000000000000000000000000002107202100000000            000000000000000                              000                           
0010001300381T 030023210000000700002 32762340051578401   751578401       2008202100000000012766700100000 51578401                 0900000000000000000000000000000000000000000000000000000   000000000000000000000000063        170193276234     
0010001300382U 030000000000000000000000000000000000000000000000000000000000000000000000000000000000000000000000000000000000000000000000002107202100000000            000000000000000                              000                           
0010001300383T 030023210000000700002 32762340051578401   751578401       2008202100000000012766700100000 51578401                 0900000000000000000000000000000000000000000000000000000   000000000000000000000000063        170193276234     
0010001300384U 030000000000000000000000000000000000000000000000000000000000000000000000000000000000000000000000000000000000000000000000002107202100000000            000000000000000                              000                           
0010001300385T 030023210000000700002 32762340051578402   751578402       0409202100000000012766700100000 51578402                 0900000000000000000000000000000000000000000000000000000   000000000000000000000000063        170193276234     
0010001300386U 030000000000000000000000000000000000000000000000000000000000000000000000000000000000000000000000000000000000000000000000002107202100000000            000000000000000                              000                           
0010001300387T 030023210000000700002 32762340051578701   751578701       2008202100000000009216700100000 51578701                 0900000000000000000000000000000000000000000000000000000   000000000000000000000000063        170193276234     
0010001300388U 030000000000000000000000000000000000000000000000000000000000000000000000000000000000000000000000000000000000000000000000002107202100000000            000000000000000                              000                           
0010001300389T 030023210000000700002 32762340051578701   751578701       2008202100000000009216700100000 51578701                 0900000000000000000000000000000000000000000000000000000   000000000000000000000000063        170193276234     
0010001300390U 030000000000000000000000000000000000000000000000000000000000000000000000000000000000000000000000000000000000000000000000002107202100000000            000000000000000                              000                           
0010001300391T 030023210000000700002 32762340051578702   751578702       0409202100000000009216700100000 51578702                 0900000000000000000000000000000000000000000000000000000   000000000000000000000000063        170193276234     
0010001300392U 030000000000000000000000000000000000000000000000000000000000000000000000000000000000000000000000000000000000000000000000002107202100000000            000000000000000                              000                           
0010001300393T 030023210000000700002 32762340051578801   751578801       2008202100000000007793300100000 51578801                 0900000000000000000000000000000000000000000000000000000   000000000000000000000000063        170193276234     
0010001300394U 030000000000000000000000000000000000000000000000000000000000000000000000000000000000000000000000000000000000000000000000002107202100000000            000000000000000                              000                           
0010001300395T 030023210000000700002 32762340051578801   751578801       2008202100000000007793300100000 51578801                 0900000000000000000000000000000000000000000000000000000   000000000000000000000000063        170193276234     
0010001300396U 030000000000000000000000000000000000000000000000000000000000000000000000000000000000000000000000000000000000000000000000002107202100000000            000000000000000                              000                           
0010001300397T 030023210000000700002 32762340051578802   751578802       0409202100000000007793300100000 51578802                 0900000000000000000000000000000000000000000000000000000   000000000000000000000000063        170193276234     
0010001300398U 030000000000000000000000000000000000000000000000000000000000000000000000000000000000000000000000000000000000000000000000002107202100000000            000000000000000                              000                           
0010001300399T 030023210000000700002 32762340051579201   751579201       1008202100000000005370000100000 51579201                 0900000000000000000000000000000000000000000000000000000   000000000000000000000000063        170193276234     
0010001300400U 030000000000000000000000000000000000000000000000000000000000000000000000000000000000000000000000000000000000000000000000002107202100000000            000000000000000                              000                           
0010001300401T 030023210000000700002 32762340051579401   751579401       2008202100000000013360000100000 51579401                 0900000000000000000000000000000000000000000000000000000   000000000000000000000000063        170193276234     
0010001300402U 030000000000000000000000000000000000000000000000000000000000000000000000000000000000000000000000000000000000000000000000002107202100000000            000000000000000                              000                           
0010001300403T 030023210000000700002 32762340051579401   751579401       2008202100000000013360000100000 51579401                 0900000000000000000000000000000000000000000000000000000   000000000000000000000000063        170193276234     
0010001300404U 030000000000000000000000000000000000000000000000000000000000000000000000000000000000000000000000000000000000000000000000002107202100000000            000000000000000                              000                           
0010001300405T 030023210000000700002 32762340051579402   751579402       0409202100000000013360000100000 51579402                 0900000000000000000000000000000000000000000000000000000   000000000000000000000000063        170193276234     
0010001300406U 030000000000000000000000000000000000000000000000000000000000000000000000000000000000000000000000000000000000000000000000002107202100000000            000000000000000                              000                           
0010001300407T 030023210000000700002 32762340051579601   751579601       2008202100000000011546700100000 51579601                 0900000000000000000000000000000000000000000000000000000   000000000000000000000000063        170193276234     
0010001300408U 030000000000000000000000000000000000000000000000000000000000000000000000000000000000000000000000000000000000000000000000002107202100000000            000000000000000                              000                           
0010001300409T 030023210000000700002 32762340051579601   751579601       2008202100000000011546700100000 51579601                 0900000000000000000000000000000000000000000000000000000   000000000000000000000000063        170193276234     
0010001300410U 030000000000000000000000000000000000000000000000000000000000000000000000000000000000000000000000000000000000000000000000002107202100000000            000000000000000                              000                           
0010001300411T 030023210000000700002 32762340051579602   751579602       0409202100000000011546700100000 51579602                 0900000000000000000000000000000000000000000000000000000   000000000000000000000000063        170193276234     
0010001300412U 030000000000000000000000000000000000000000000000000000000000000000000000000000000000000000000000000000000000000000000000002107202100000000            000000000000000                              000                           
